:1000000019C0DFC127C051C165C124C023C022C0AF
:1000100021C020C01FC01EC072C21CC01BC01AC09D
:1000200019C018C017C016C015C014C013C012C024
:1000300011C010C011241FBECFEFD2E0DEBFCDBF74
:1000400021E0A0E0B1E001C01D92A831B207E1F7C4
:10005000E2D1F1C2D5CF892B11F4549A0895549866
:100060000895892B11F4569A089556980895892B6E
:1000700011F4559A089555980895CF93559880EFA7
:100080003BD080E039D0559A559881EE35D080E04C
:1000900033D0559A559883EA2FD080E02DD0559AC9
:1000A000559883EA29D0C82F80E026D0559A8C2F06
:1000B000CF910895892B09F408951092C5001092EC
:1000C000C40081EF89B982EC8093C20088E18093FB
:1000D000C10088E090E09093C5008093C400579AD7
:1000E00080E090E0C4DF80E090E0B5DF80E090E069
:1000F000B8CF5798579A08959091C00095FFFCCFBC
:100100008093C6008091C00087FFFCCF8091C6001D
:10011000089557988091C00085FFFCCF80E48093BC
:10012000C6008091C00087FFFCCF8091C6008091FF
:10013000C00085FFFCCF1092C6008091C00087FFF1
:10014000FCCF8091C6008091C00085FFFCCF81E686
:100150008093C6008091C00087FFFCCF8091C600CD
:10016000579A089557988091C00085FFFCCF81E48D
:100170008093C6008091C00087FFFCCF8091C600AD
:100180008091C00085FFFCCF80E18093C600809104
:10019000C00087FFFCCF8091C6008091C00085FF22
:1001A000FCCF1092C6008091C00087FFFCCF8091E9
:1001B000C600579A089557988091C00085FFFCCFDC
:1001C00081E48093C6008091C00087FFFCCF8091BE
:1001D000C6008091C00085FFFCCF8EE08093C600F2
:1001E0008091C00087FFFCCF8091C6008091C00045
:1001F00085FFFCCF1092C6008091C00087FFFCCF26
:100200008091C600579A089557989091C00095FF25
:10021000FCCF90E49093C6009091C00097FFFCCF74
:100220009091C6009091C00095FFFCCF92E1909311
:10023000C6009091C00097FFFCCF9091C6009091AE
:10024000C00095FFFCCF8093C6009091C00097FF3F
:10025000FCCF9091C600579A57989091C00095FF97
:10026000FCCF90E49093C6009091C00097FFFCCF24
:100270009091C6009091C00095FFFCCF94E19093BF
:10028000C6009091C00097FFFCCF9091C60090915E
:10029000C00095FFFCCF8093C6008091C00087FF0F
:1002A000FCCF8091C600579A08951F920F920FB607
:1002B0000F921124CF93DF9300D0CDB7DEB71A820F
:1002C00019820F900F90DF91CF910F900FBE0F907A
:1002D0001F9018951F920F920FB60F9211248F93B3
:1002E0009F93EF93FF9316BCECE6F0E08081877F4D
:1002F000808381E08093040199E090930D01109236
:10030000090180930C01EEE6F0E080818260808339
:10031000FF91EF919F918F910F900FBE0F901F90C3
:100320001895139A809164008B7F8093640089E014
:100330008DB9489A81E58CBD159A179A169815982B
:1003400081E08EBD0DB407FEFDCF80E48EBD0DB4FF
:1003500007FEFDCF159A159882E08EBD0DB407FEFD
:10036000FDCF1EBC0DB407FEFDCF1EBC0DB407FEB5
:10037000FDCF8FEF9FE11EBC0DB407FEFDCF0197AF
:10038000D1F7159A169A17988CB58F7B8CBD8091F2
:100390006400846080936400139892B181E0982790
:1003A00092B992B1982792B992B1982792B992B125
:1003B000982792B992B1982792B992B1892782B9B8
:1003C00008951F920F920FB60F9211242F933F930F
:1003D0004F935F936F937F938F939F93AF93BF934D
:1003E000EF93FF93F8949DDF88E00EDFBBDE179A52
:1003F00016987894FF91EF91BF91AF919F918F9153
:100400007F916F915F914F913F912F910F900FBE10
:100410000F901F9018958FEE81B987EF85B927E06F
:100420002093680080916B00806180936B00569AE6
:1004300098E097B980916C00886080936C00789404
:100440001092030110920C011092170110920201F8
:10045000339A81E080930A0130E130930101569A8A
:1004600016BC32E834BD85BD84EB87BD8FEF809329
:100470000E0182E080930F0183E08093100184E0FD
:100480008093110185E08093120186E0809313012F
:10049000209314019093150189E08093160181E067
:1004A00090E008DE26DE35DE809101018260ACDE60
:1004B00080910101A9DE7FDEE0DD169A179882B1F6
:1004C0008F6082B982B1807F82B910920B017894DB
:1004D00080910B018130E1F710920B0180930401B0
:1004E00090910901909317011092020180930301EA
:1004F00016BC80916E00826080936E00E9CF1F92DF
:100500000F920FB60F9211242F933F934F935F9347
:100510008F939F9316BC9AB180E489278AB9809102
:100520000C01882349F080910401882379F180919E
:100530000401815080930401809103018823D9F044
:1005400080910401813009F454C080910201883007
:10055000D8F5809109012091020190E002C09595A3
:1005600087952A95E2F780FF3DC0329A809102017B
:100570008F5F809302019F918F915F914F913F9187
:100580002F910F900FBE0F901F90189580910D0125
:1005900090E0029794F184B150910D0140910901CE
:1005A00083FB222720F989E090E0851B910901C097
:1005B000220F8A95EAF7242B2093090180910D01DF
:1005C000815080930D01B8CF80910201883071F67F
:1005D000329A80916E008D7F80936E00109203019D
:1005E000569AC4CF3298809102018F5F80930201A6
:1005F000C2CF109204013298BECF80910D018111BB
:10060000DDCF81E0239B14C080930B0192B188E081
:10061000892782B980916E008D7F80936E008091D2
:100620006C00886080936C00569A10920C01C6CFC3
:0A06300080930001EFCFF894FFCF94
:00000001FF
