S014000053656E736F725F626F6172642E737265632F
S113000019C0D2C427C051C465C424C023C022C0AF
S113001021C054CD1FC01EC0EACD1CC01BC01AC0D5
S113002019C018C017C016C015C014C013C012C020
S113003011C010C011241FBECFEFD2E0DEBFCDBF70
S113004021E0A0E0B1E001C01D92AD35B207E1F7B7
S1130050F3DA38CFD5CF892B11F4549A08955498F4
S11300600895549864E08BE009D364E080E006D3FB
S113007064E080E003D3549A0895549864E08AE0DD
S1130080FDD264E08FE1FAD264E082E5F7D2549ABB
S11300900895549864E08AE0F1D264E08FE1EED2EE
S11300A064E082E5EBD2549A549864E08AE0E6D2A4
S11300B064E080E2E3D280912E0164E0DFD2549ABE
S11300C0549864E08AE0DAD264E081E2D7D2809185
S11300D01A0164E0D3D2549A549864E08AE0CED2F0
S11300E064E082E2CBD264E080E0C8D2549A5498AF
S11300F064E08AE0C3D264E087E2C0D264E080E0D6
S1130100BDD2549A549864E08AE0B8D264E088E29C
S1130110B5D264E080E0B2D2549A549864E08AE0A4
S1130120ADD264E089E2AAD264E088ECA7D2549A02
S1130130549864E08AE0A2D264E08AE29FD264E048
S113014080E19CD2549A549864E08AE097D264E0A7
S11301508BE294D264E080E191D2549A549864E0A2
S11301608AE08CD264E08CE289D264E083E086D2B7
S1130170549A549864E08AE081D264E08DE27ED29D
S113018064E08AE07BD2549A0895CF93549864E053
S11301908BE074D264E084E171D264E080E06ED2DA
S11301A0C82F64E080E06AD2549A6C2F70E0782BF8
S11301B0072E000C880B990B8EDD28EB3EE145E8F9
S11301C05DE3EDDD55DD6093260170932701809397
S11301D0280190932901CF9108950F931F93CF93F2
S11301E0549864E08BE04AD264E08BE047D264E048
S11301F080E044D2C82F549A549864E08BE03ED2F5
S113020064E08EE03BD264E080E038D28093530116
S113021064E080E033D280933D0164E080E02ED23C
S113022080933E0164E080E029D28093160164E06B
S113023080E024D28093230164E080E01FD2809385
S11302402B01549A20913D018091530190E0922B0F
S113025090931901809318012091160180913E0119
S113026090E0922B90933C0180933B0120912B01D1
S11302708091230190E0922B90933201809331017D
S1130280209118013091190100915B0110915C01DA
S113029080913B0190913C01A0915B01B0915C0184
S11302A0409131015091320160915B0170915C0188
S11302B037FD1CC0E1E00217130708F0E0E097FDEA
S11302C019C021E0A817B90708F020E02E2B41F44B
S11302D0CA0157FD13C068517C4F6817790708F4A9
S11302E0C0618C2FCF911F910F9108953195219565
S11302F03109E0CF919581959109E3CF919581954D
S11303009109E9CF549864E08AE0B8D164E080E2CE
S1130310B5D180912E0164E0B1D1549A549864E02F
S11303208AE0ACD164E081E2A9D180911A0164E051
S1130330A5D1549A0895CF93549864E08BE09ED14C
S113034064E08CE09BD164E080E098D1C82F64E045
S113035080E094D1549A2C2F30E0A901582BCA0183
S1130360CF9108950895892B11F4559A08955598BD
S11303700895559861E080ED81D161E080EC7ED1F3
S1130380559A0895CF93DF9300D0CDB7DEB7559833
S113039061E083EC73D161E080E070D161E080E0E2
S11303A06DD18A8361E080E069D189838A81898102
S11303B061E080E063D190E0982F882790932D012D
S11303C080932C0161E080E059D120912C0130917F
S11303D02D01282B30932D0120932C01559A0F9039
S11303E00F90DF91CF9108950F931F93CF93C62F52
S11303F090E0462F50E042955295507F5427407F1D
S11304005427480F591F40FF5FC061E070E041FF6F
S11304105FC021E030E0260F371F42FF5FC061E07C
S113042070E0260F371F43FF5FC061E070E0260FC6
S1130430371F44FF5FC061E070E0260F371F45FFA0
S11304405FC061E070E0260F371F46FF5FC061E0C8
S113045070E0260F371F47FF5FC061E070E0260F92
S1130460371F50FF5FC061E070E0260F371F51FF58
S11304705FC061E070E0260F371F52FF5FC061E08C
S113048070E0260F371F53FF5FC041E050E0240F98
S1130490351F8C0102951295107F1027007F1027BD
S11304A0112720FF54C00C5F1F4F559861E087E867
S11304B0E5D061E08C2FE2D061E0802FDFD0559A47
S11304C0CF911F910F91089560E070E041FDA1CF9D
S11304D020E030E0260F371F42FDA1CF60E070E03E
S11304E0260F371F43FDA1CF60E070E0260F371FB2
S11304F044FDA1CF60E070E0260F371F45FDA1CF7A
S113050060E070E0260F371F46FDA1CF60E070E089
S1130510260F371F47FDA1CF60E070E0260F371F7D
S113052050FDA1CF60E070E0260F371F51FDA1CF31
S113053060E070E0260F371F52FDA1CF60E070E04D
S1130540260F371F53FDA1CF40E050E0A0CF085F36
S11305501F4FABCF559861E08EE890D061E080EBFF
S11305608DD061E080E08AD080934B01559A5598F4
S113057061E08EE883D061E080EC80D061E080E0CF
S11305807DD080931701559A0895559861E080EFC6
S113059075D061E080E072D0559A08959091510130
S11305A091113BC091E09093340190935A0116BC91
S11305B090916E00926090936E0004C0909134010B
S11305C09923A1F19091C00095FFF8CF90916E000E
S11305D09D7F90936E00A99A8093C60081E08093DA
S11305E0340180935A0116BC80916E00826080931E
S11305F06E0004C080913401882391F08091C00082
S113060087FFF8CF80916E008D7F80936E00A99A4A
S1130610809134018111109203018091C6000895E4
S1130620809103018F5F80930301ECCF90910301CC
S11306309F5F90930301CACF892B09F40895109208
S1130640C5001092C40081EF89B983EC8093C20085
S113065088E18093C10088E090E09093C500809386
S1130660C400579A80E090E07EDE80E090E0F3DC06
S113067080E090E077CE5798579A08959091510171
S1130680911144C091E09093340190935A0116BCA7
S113069090916E00926090936E0004C0909134012A
S11306A09923B9F19091C00095FFF8CF90916E0015
S11306B09D7F90936E00A99A8093C60081E08093F9
S11306C0340180935A0116BC80916E00826080933D
S11306D06E0004C080913401882349F18091C000E8
S11306E087FFF8CF80916E008D7F80936E00A99A6A
S11306F080913401882351F0643009F44CC0603196
S113070089F1613009F45AC0109200018091C60049
S11307100895643009F455C0603139F1613009F449
S113072056C0909100019F5F90930001BFCF643049
S113073011F1603141F0613089F1809100018F5FE6
S113074080930001CFCF809103018F5F80930301D9
S113075080916E008D7F80936E00A99A8091340100
S11307608823A1F210920301D1CF909103019F5FDE
S1130770909303019BCF809102018F5F80930201CC
S113078080916E008D7F80936E00A99A80913401D0
S1130790882309F4BBCF10920201B8CF80910101E4
S11307A08F5F8093010180916E008D7F80936E0036
S11307B0A99A80913401882309F4A8CF10920101E9
S11307C0A5CF909102019F5F909302016FCF90910A
S11307D001019F5F9093010169CF579880E4DEDEA9
S11307E080E0DCDE81E6DADE579A579880E4D6DED4
S11307F08CE0D4DE81E2D2DE579A0895579880E4E3
S1130800CDDE88E0CBDE80E4C9DE579A579880E4D9
S1130810C5DE86E0C3DE80E4C1DE579A579880E4E3
S1130820BDDE8AE0BBDE80E0B9DE579A579881E4EA
S1130830B5DE82E1B3DE80E0B1DE579A579881E4F9
S1130840ADDE80E1ABDE80E0A9DE579A579880E404
S1130850A5DE84E0A3DE80E4A1DE579A08955798CC
S113086081E49CDE80E19ADE80E098DE579A089568
S1130870579881E493DE82E191DE80E08FDE579A1F
S11308800895CF93C82F579880E488DE82E186DEEE
S11308908C2F84DE579A579880E480DE84E17EDED4
S11308A08C2F7CDE579ACF9108951F920F920FB62A
S11308B00F921124CF93DF9300D0CDB7DEB71A8205
S11308C019820F900F90DF91CF910F900FBE0F9070
S11308D01F9018951F920F920FB60F9211248F93A9
S11308E09F93EF93FF9381E08093510110928500D1
S11308F010928400ECE6F0E09081977F9083109250
S11309001B018093250199E090933F0110923001DF
S113091080933801EFE6F0E0808182608083FF916C
S1130920EF919F918F910F900FBE0F901F9018958C
S1130930119A91E090933501809164008B7F8093AC
S1130940640089E08DB9489A81E58CBD159A179A9F
S1130950169815989EBD0DB407FEFDCF80E48EBD9C
S11309600DB407FEFDCF159A159882E08EBD0DB427
S113097007FEFDCF1EBC0DB407FEFDCF1EBC0DB49B
S113098007FEFDCF8FEF9FE11EBC0DB407FEFDCF28
S11309900197D1F7159A8CB58F7B8CBD809164003B
S11309A084608093640008951F920F920FB60F9293
S11309B011242F933F934F935F936F937F938F9360
S11309C09F93AF93BF93EF93FF9380911501882377
S11309D021F080911301853589F0FF91EF91BF914A
S11309E0AF919F918F917F916F915F914F913F91C3
S11309F02F910F900FBE0F901F901895F89498DFC9
S1130A0088E03FDF2CDF1DBA7894E7CFCF93DF93E4
S1130A1000D0CDB7DEB780913001813409F484C4AD
S1130A2080913001823409F44CC4809130018334C4
S1130A3009F414C480913001843409F47EC3809194
S1130A403001853409F42BC380913001863409F4D4
S1130A50D7C2809130018F3409F4A1C28091300152
S1130A60873409F448C280913001883409F488C17C
S1130A70809130018D3409F4E9C1809130018E34C4
S1130A8009F4C6C0809130018A3409F4A0C0809171
S1130A9030018C3491F1809130018B3439F0109213
S1130AA051010F900F90DF91CF910895109237016B
S1130AB080913501813009F4C7C484E180934D01EC
S1130AC010921F0181E080932501809321011092EF
S1130AD08500109284008093510180916F008260A0
S1130AE080936F00809121018111FCCF10925101FC
S1130AF00F900F90DF91CF9108951092370180915C
S1130B000D0180934D0110921F0181E08093250116
S1130B1080932101109285001092840080935101EA
S1130B2080916F00826080936F0080912101811118
S1130B30FCCF80910C0180934D0110921F0181E044
S1130B4080932501809321011092850010928400E6
S1130B508093510180916F00826080936F00809137
S1130B6021018111FCCF80910B0180934D011092E2
S1130B701F0181E08093250180932101109285005B
S1130B80109284008093510180916F008260809361
S1130B906F00809121018111FCCF84E180934D018C
S1130BA010921F0181E0809325018093210110920E
S1130BB08500109284008093510180916F008260BF
S1130BC080936F00809121018111FCCF64CF10923A
S1130BD03701169A179885E58093130184E1809371
S1130BE04D0110921F0181E0809325018093210122
S1130BF010928500109284008093510180916F00BF
S1130C00826080936F00809121018111FCCF3FCFDE
S1130C101092370180913D0180934D0110921F0184
S1130C2081E0809325018093210110928500109228
S1130C3084008093510180916F00826080936F00E3
S1130C40809121018111FCCF8091530180934D014A
S1130C5010921F0181E0809325018093210110925D
S1130C608500109284008093510180916F0082600E
S1130C7080936F00809121018111FCCF8091160136
S1130C8080934D0110921F0181E080932501809390
S1130C90210110928500109284008093510180916B
S1130CA06F00826080936F00809121018111FCCFDD
S1130CB080913E0180934D0110921F0181E0809349
S1130CC02501809321011092850010928400809365
S1130CD0510180916F00826080936F0080912101A7
S1130CE08111FCCF80912B0180934D0110921F0143
S1130CF081E0809325018093210110928500109258
S1130D0084008093510180916F00826080936F0012
S1130D10809121018111FCCF8091230180934D01A9
S1130D2010921F0181E0809325018093210110928C
S1130D308500109284008093510180916F0082603D
S1130D4080936F00809121018111FCCF84E1809315
S1130D504D0110921F0181E08093250180932101B0
S1130D6010928500109284008093510180916F004D
S1130D70826080936F00809121018111FCCF82CE2B
S1130D80109237018091260190912701A0912801AA
S1130D90B0912901892F9A2FAB2FBB27A7FDBA95B4
S1130DA080934D0110921F0181E08093250180936F
S1130DB0210110928500109284008093510180914A
S1130DC06F00826080936F00809121018111FCCFBC
S1130DD08091260190912701A0912801B0912901C9
S1130DE080934D0110921F0181E08093250180932F
S1130DF0210110928500109284008093510180910A
S1130E006F00826080936F00809121018111FCCF7B
S1130E1084E180934D0110921F0181E080932501AC
S1130E2080932101109285001092840080935101D7
S1130E3080916F00826080936F0080912101811105
S1130E40FCCF809130018D3409F017CE1092370118
S1130E5072DA8091090190910A0190934D011092E8
S1130E601F0181E080932501809321011092850068
S1130E70109284008093510180916F00826080936E
S1130E806F00809121018111FCCF80910901909123
S1130E900A0180934D0110921F0181E08093250186
S1130EA08093210110928500109284008093510157
S1130EB080916F00826080936F0080912101811185
S1130EC0FCCF84E180934D0110921F0181E0809357
S1130ED02501809321011092850010928400809353
S1130EE0510180916F00826080936F008091210195
S1130EF08111FCCFC2CD1092370180912C019091C9
S1130F002D0190934D0110921F0181E080932501E2
S1130F1080932101109285001092840080935101E6
S1130F2080916F00826080936F0080912101811114
S1130F30FCCF80912C0190912D0180934D01109252
S1130F401F0181E080932501809321011092850087
S1130F50109284008093510180916F00826080938D
S1130F606F00809121018111FCCF84E180934D01B8
S1130F7010921F0181E0809325018093210110923A
S1130F808500109284008093510180916F008260EB
S1130F9080936F00809121018111FCCF64CD109268
S1130FA037018091370190911B01882331F1109210
S1130FB0370180911B01813009F492C28091300184
S1130FC0811140C2569884E180934D0110921F0113
S1130FD081E0809325018093210110928500109275
S1130FE084008093510180916F00826080936F0030
S1130FF0809121018111FCCF31CD992391F2D7CF7A
S1131000109237018091370190911B01882309F4D4
S113101042C01092370180911B01813009F47BC2D8
S1131020809130018095909114018923809314015B
S113103084E180934D0110921F0181E0809325018A
S113104080932101109285001092840080935101B5
S113105080916F00826080936F00809121018111E3
S1131060FCCF8091140180FDE1C110922F0181FF1A
S1131070E2C191E09093330182FFE1C191E090934A
S1131080200183FD00C2109215011DBA1092350192
S1131090169A1798DECC992309F4B4CFBACF1092DC
S11310A037018091370190911B01882309F441C0D5
S11310B01092370180911B01813009F4F4C18091B1
S11310C0300190911401892B8093140184E1809361
S11310D04D0110921F0181E080932501809321012D
S11310E010928500109284008093510180916F00CA
S11310F0826080936F00809121018111FCCF8091E7
S1131100140180FD87C110922F0181FF88C191E0F5
S11311109093330182FF87C191E09093200183FD76
S1131120BAC1109215011DBA10923501169A17987A
S11311308BCC992309F4B5CFBBCF1A8219821092B4
S1131140370181E080934E018091370190911B011A
S1131150882309F459C0809130018A8310923701A1
S113116080911B01813009F44AC2809130018A8345
S11311708091370190911B01882309F449C0109292
S1131180370180911B0181114DC080913001898309
S113119080914E01882309F452CC8A8180932E01D8
S11311A0898180931A0110924E0184E180934D014C
S11311B010921F0181E080932501809321011092F8
S11311C08500109284008093510180916F008260A9
S11311D080936F00809121018111FCCF1092510105
S11311E020911A0180912E0190E0922B90935C0142
S11311F080935B0180EC8093C2008091C2008D7F5C
S11312008093C2007FD81BCC992309F49DCFA3CF30
S1131210992309F4ADCF1092370180911B018823E3
S113122009F4B3CF10924E0185E180934D011092E1
S11312301F0181E080932501809321011092850094
S1131240109284008093510180916F00826080939A
S11312506F00809121018111FCCF9ACF1092370148
S11312608091370190911B01882341F1109237013D
S113127080911B01813009F488C184E180934D0180
S113128010921F0181E08093250180932101109227
S11312908500109284008093510180916F008260D8
S11312A080936F00809121018111FCCF80913001E6
S11312B090E09093500180934F01BCCB992381F22D
S11312C0D5CF109237018091370190911B0188236B
S11312D041F11092370180911B01813009F438C12A
S11312E084E180934D0110921F0181E080932501D8
S11312F08093210110928500109284008093510103
S113130080916F00826080936F0080912101811130
S1131310FCCF8091300190E09093500180934F0175
S113132084CB992381F2D5CF1092370181E0809349
S11313303A018091370190911B01882309F442C03E
S1131340209130011092370180911B01813009F402
S113135039C12091300130E0322F222780913701AA
S113136090911B01882391F11092370180911B0108
S1131370811134C080913001282B80913A01882357
S113138009F44ECB30934A012093490110923A015B
S113139084E180934D0110921F0181E08093250127
S11313A08093210110928500109284008093510152
S11313B080916F00826080936F0080912101811180
S11313C0FCCF2ECB992309F4B4CFBACF992331F2B1
S11313D01092370180911B01882361F210923A0127
S11313E085E180934D0110921F0181E080932501D6
S11313F08093210110928500109284008093510102
S113140080916F00826080936F008091210181112F
S1131410FCCFB3CF91E090932F0181FD78CE109251
S1131420330182FD79CE1092200179CE91E0909320
S11314302F0181FD1ECE1092330182FD1FCE10922A
S113144020011FCE569ABFCD95E190934D01109285
S11314501F01809325018093210110928500109231
S113146084008093510180916F00826080936F00AB
S1131470809121018111FCCF109251010F900F90A6
S1131480DF91CF91089581E0809315011092690056
S11314908DBB7894FBCD81E0809315011092690097
S11314A08DBB789441CE10921B0110923A0195E1C4
S11314B090934D0110921F01809325018093210187
S11314C010928500109284008093510180916F00E6
S11314D0826080936F00809121018111FCCFB4CA96
S11314E010921B0195E190934D0110921F0180937E
S11314F0250180932101109285001092840080932D
S1131500510180916F00826080936F00809121016E
S11315108111FCCFA3CA10921B0110923A0195E1EC
S113152090934D0110921F01809325018093210116
S113153010928500109284008093510180916F0075
S1131540826080936F00809121018111FCCF81CA58
S113155010921B0110923A0195E190934D01109263
S11315601F01809325018093210110928500109220
S113157084008093510180916F00826080936F009A
S1131580809121018111FCCF50CA10921B0110924D
S11315903A0195E190934D0110921F01809325012A
S11315A08093210110928500109284008093510150
S11315B080916F00826080936F008091210181117E
S11315C0FCCF38CA10921B0110923A0195E1909316
S11315D04D0110921F0180932501809321011092E7
S11315E08500109284008093510180916F00826085
S11315F080936F00809121018111FCCFACCE1092B9
S11316001B0110924E0195E190934D0110921F0120
S1131610809325018093210110928500109284000B
S11316208093510180916F00826080936F0080915C
S113163021018111FCCF9CCDCF93DF931F92CDB7B5
S1131640DEB7179A16988FEE81B987EF85B907E050
S11316500093680080916B00806180936B0088E048
S113166087B980916C00886080936C0078948FEFC8
S11316708093140110921301109235011982109273
S113168021011092380110924D0110921F01109205
S11316901001109211011092120110920F01109278
S11316A00E011092510110921D0110920801109226
S11316B00701109206011092050110920401339A59
S11316C0329A11E01093360180E180931C0116BC1C
S11316D082E884BD15BD99EB97BD109285001092E8
S11316E0840080938000109381008BEA90E09093B3
S11316F089008093880081E090E09ED780E2809307
S11317002E0100931A01109AB6D7B2D866D88091E8
S11317101C018260B6D880911C01B3D86FD8A8D8B8
S113172034D764E870E08DE090E05ED613D780ECA7
S11317308093C2008091C2008D7F8093C20091D4B7
S11317409CD4A7D422D5169A179880E590E0A0E0FF
S1131750B0E08093260190932701A0932801B093D1
S1131760290180E090E290932D0180932C0180E088
S113177090E490934A018093490110923701789440
S113178085E180934D0110921F0110932501109360
S113179021011092850010928400109351018091D0
S11317A06F00826080936F00809121018111FCCFD2
S11317B083ECF82E11E090EC892E22E0622E34E0C6
S11317C0932E48ECA42E52E3B52E69EBC62E70E29C
S11317D0D72E00E4E0E8EE2EF0E17F2E8091370171
S11317E0813009F4DAC0809113018535B9F780910D
S11317F051018111F3CF109880911001853160F06F
S113180080912F01882341F000930D0110930C0166
S113181010920B011093350180911101853180F0F4
S113182080912001811104C080913301882341F00B
S113183000930D0190920C0110920B01109335014D
S113184080911201853160F080911501882341F067
S113185000930D0170920C0110920B01109335014D
S113186080910E01853140F000930D01E0920C014E
S113187010920B0110933501F092C200F9D78983BD
S1131880898185FD90C0809107018F5F8093070156
S1131890809107018A3110F010930801129A89810E
S11318A080FD04C010933501D0920D018091080190
S11318B0882309F47EC010933901A7BCB0924C016F
S11318C016BC80916E00826080936E008091390115
S11318D08111FCCF80916E008D7F80936E00A99A58
S11318E0C7BC1298179A169880912001882329F072
S11318F080915101882309F45FC0809133018823CA
S113190029F080915101882309F465C080912F0149
S1131910882309F463CF8091510181115FCFF09244
S1131920C20080911D01882309F4C6C080911D0165
S11319308111C0C080911D01882309F49CC01092BC
S11319401D0120912C0130912D018091490190912C
S11319504A018217930708F08BC0809105018F5FBD
S11319608093050180910501843008F437CF1093EA
S11319700D0180912C0190912D0110920C01809108
S11319802C0190912D0180930B01D2D710922F013D
S113199080913701813009F026CF1092370180936E
S11319A0250134D820CF1092070110920801129813
S11319B076CF169A179898CF8092C2008091C20071
S11319C08D7F8093C20009D484FD64C087FD62C00A
S11319D01092040192CF8092C2008091C2008D7F48
S11319E08093C200D2D380914F01909150014091D5
S11319F026015091270160912801709129012091BD
S1131A0054013091550120902601309027014090D7
S1131A10280150902901092E000CAA0BBB0B841736
S1131A209507A607B70754F5809106018F5F809349
S1131A30060180910601843008F468CF60920D019C
S1131A408091260190912701A0912801B09129014C
S1131A5010920C018091260190912701A0912801F8
S1131A60B091290180930B0163D7109233014ECFBB
S1131A7010920501B3CE10931D0163CFC901330F3A
S1131A80AA0BBB0B281639064A065B066CF21092A9
S1131A9006013CCF809104018F5F80930401809103
S1131AA00401843008F429CF90920D0141D710929B
S1131AB0200123CF67D43ECF5CD438CF1F920F923E
S1131AC00FB60F9211242F933F934F935F938F93ED
S1131AD09F9310928500109284008091380188238E
S1131AE049F080912501882379F180912501815065
S1131AF080932501809121018823D9F080912501CB
S1131B00813009F453C080911F018830D8F5809149
S1131B104D0120911F0190E002C0959587952A956B
S1131B20E2F780FF3CC0329A80911F018F5F80935F
S1131B301F019F918F915F914F913F912F910F9032
S1131B400FBE0F901F90189580913F0190E002976F
S1131B508CF184B150913F014091300183FB2227E5
S1131B6020F989E090E0851B910901C0220F8A9534
S1131B70EAF7242B2093300180913F018150809318
S1131B803F01B8CF80911F01883071F6329A80915D
S1131B906F008D7F80936F0010922101C5CF329822
S1131BA080911F018F5F80931F01C3CF1092250185
S1131BB03298BFCF80913F018111DECF81E0239B1A
S1131BC013C08093370192B188E0892782B980914C
S1131BD06F008D7F80936F0080916C00886080938C
S1131BE06C0010923801C8CF80931B01F0CF1F9274
S1131BF00F920FB60F9211248F9316BC80916E0032
S1131C008D7F80936E00A99A80913401882349F0D6
S1131C1080915A01815080935A0180915A018823FE
S1131C20D1F080913901882371F080914C01815069
S1131C3080934C0180914C01882381F080916E0047
S1131C40826080936E0010922A018F910F900FBED4
S1131C500F901F90189510923401E3CF1092390120
S1131C6010922A018F910F900FBE0F901F9018951C
S1131C7004D06894B1118DC0089570D088F09F5736
S1131C8090F0B92F9927B751A0F0D1F0660F771FC4
S1131C90881F991F1AF0BA95C9F712C0B13081F0A4
S1131CA077D0B1E0089574C0672F782F8827B85F84
S1131CB039F0B93FCCF3869577956795B395D9F705
S1131CC03EF490958095709561957F4F8F4F9F4F0F
S1131CD00895E89409C097FB3EF49095809570951B
S1131CE061957F4F8F4F9F4F9923A9F0F92F96E964
S1131CF0BB279395F695879577956795B795F111D9
S1131D00F8CFFAF4BB0F11F460FF1BC06F5F7F4F75
S1131D108F4F9F4F16C0882311F096E911C0772387
S1131D2021F09EE8872F762F05C0662371F096E890
S1131D30862F70E060E02AF09A95660F771F881F5F
S1131D40DAF7880F9695879597F9089557FD905877
S1131D50440F551F59F05F3F71F04795880F97FB6B
S1131D60991F61F09F3F79F0879508951216130625
S1131D701406551FF2CF4695F1DF08C01616170654
S1131D801806991FF1CF8695710561050894089589
S1131D90E894BB2766277727CB0197F908950AD0E3
S1131DA080C071D028F076D018F0952309F062C075
S1131DB067C0EFCFCBDFA8F39923D9F35523C9F339
S1131DC0950F50E0551FAA27EE27FF27BB270024B5
S1131DD00894679520F4E20FF31FB41F0A1E220F24
S1131DE0331F441FAA1F6695A9F7779530F4F30FA4
S1131DF0B41F0A1E121E08F46395330F441FAA1F52
S1131E00221F769599F7879520F4B40F0A1E121EA7
S1131E10631F440FAA1F221F331F8695A9F7862F1D
S1131E20712D602D11249F5750408AF0E1F08823D2
S1131E304AF0EE0FFF1FBB1F661F771F881F9150CC
S1131E405040A9F79E3F510570F014C0A2CF5F3FE8
S1131E50ECF3983EDCF3869577956795B795F795FF
S1131E60E7959F5FC1F7FE2B880F911D9695879587
S1131E7097F9089597F99F6780E870E060E0089506
S1131E809FEF80EC089500240A941616170618068E
S1131E900906089500240A9412161306140605066A
S1131EA00895092E0394000C11F4882352F0BB0FFB
S1131EB040F4BF2B11F460FF04C06F5F7F4F8F4F5E
S10B1EC09F4F0895F894FFCF31
S9030000FC
