:1000000019C04CC527C0B7C4CBC424C023C022C06C
:1000100021C0E1CC1FC01EC077CD1CC01BC01AC0C0
:1000200019C018C017C016C015C014C013C012C024
:1000300011C010C011241FBECFEFD2E0DEBFCDBF74
:1000400021E0A0E0B1E001C01D92A43CB207E1F7BD
:1000500085DBE9CED5CF892B11F4549A08955498B5
:100060000895549864E08BE03DD364E080E03AD397
:1000700064E080E037D3549A0895549864E08AE0AD
:1000800031D364E08FE12ED364E082E52BD3549A20
:100090000895549864E08AE025D364E08FE122D388
:1000A00064E082E51FD3549A549864E08AE01AD33E
:1000B00064E080E217D380919C0164E013D3549AEA
:1000C000549864E08AE00ED364E081E20BD380911F
:1000D0008B0164E007D3549A549864E08AE002D319
:1000E00064E082E2FFD264E080E0FCD2549A54984B
:1000F00064E08AE0F7D264E087E2F4D264E080E072
:10010000F1D2549A549864E08AE0ECD264E088E238
:10011000E9D264E080E0E6D2549A549864E08AE040
:10012000E1D264E089E2DED264E088ECDBD2549A6A
:10013000549864E08AE0D6D264E08AE2D3D264E0E4
:1001400080E1D0D2549A549864E08AE0CBD264E043
:100150008BE2C8D264E080E1C5D2549A549864E03E
:100160008AE0C0D264E08CE2BDD264E083E0BAD21F
:10017000549A549864E08AE0B5D264E08DE2B2D239
:1001800064E08AE0AFD2549A0895CF93549864E023
:100190008BE0A8D264E084E1A5D264E080E0A2D242
:1001A000C82F64E080E09ED2549A6C2F70E0782BC8
:1001B000072E000C880B990B3FDD28EB3EE145E84C
:1001C0005DE39EDD06DD609395017093960180935B
:1001D000970190939801CF910895EF92FF921F930A
:1001E000CF93DF9300D000D000D0CDB7DEB75498C6
:1001F00064E08BE077D264E08BE074D264E080E06E
:1002000071D2182F549A549864E08BE06BD264E05A
:100210008EE068D264E080E065D290E09E838D83BA
:1002200064E080E05FD22D813E8190E0982F8827A6
:10023000820F931F9E838D8364E080E053D290E011
:100240009C838B8364E080E04DD22B813C8190E0E5
:10025000982F8827820F931F9C838B8364E080E014
:1002600041D290E09A83898364E080E03BD2298187
:100270003A8190E0982F8827820F931F9A83898371
:10028000549A2D813E81E090C201F090C3018B8190
:100290009C81A091C201B091C30149815A81E09132
:1002A000C201F091C30137FD22C061E0E216F306FE
:1002B00008F060E097FD1FC021E0A817B90708F01B
:1002C00020E0262B31F4CA0157FD19C0E817F907C1
:1002D00008F41061812F26960FB6F894DEBF0FBE8A
:1002E000CDBFDF91CF911F91FF90EF900895319591
:1002F00021953109DACF919581959109DDCF9195BD
:1003000081959109E3CF549864E08AE0EBD164E0F1
:1003100080E2E8D180919C0164E0E4D1549A549841
:1003200064E08AE0DFD164E081E2DCD180918B017E
:1003300064E0D8D1549A0895CF93549864E08BE048
:10034000D1D164E08CE0CED164E080E0CBD1C82F85
:1003500064E080E0C7D1549A2C2F30E0A901582BDB
:10036000CA01CF910895FF920F931F93CF93DF930C
:10037000082F10E001151105F9F0C0E0D0E0549805
:1003800064E08BE0AFD164E08DE0ACD164E080E06C
:10039000A9D1F82E64E080E0A5D12F2D30E0382BD4
:1003A000549AFE01EE0FFF1FE050FF4F3183208370
:1003B0002196C017D10719F78F2DDF91CF911F918B
:1003C0000F91FF9008950895892B11F4559A08957F
:1003D00055980895559861E080ED84D161E080ECF6
:1003E00081D1559A0895CF93DF9300D0CDB7DEB772
:1003F000559861E083EC76D161E080E073D161E0F3
:1004000080E070D18A8361E080E06CD189838A8149
:10041000898161E080E066D190E0982F88279093F1
:100420009B0180939A0161E080E05CD120919A0168
:1004300030919B01282B30939B0120939A01559A70
:100440000F900F90DF91CF9108950F931F93CF934B
:10045000C62F90E0462F50E042955295507F54278A
:10046000407F5427480F591F40FF5FC061E070E094
:1004700041FF5FC021E030E0260F371F42FF5FC021
:1004800061E070E0260F371F43FF5FC061E070E05E
:10049000260F371F44FF5FC061E070E0260F371F53
:1004A00045FF5FC061E070E0260F371F46FF5FC069
:1004B00061E070E0260F371F47FF5FC061E070E02A
:1004C000260F371F50FF5FC061E070E0260F371F17
:1004D00051FF5FC061E070E0260F371F52FF5FC021
:1004E00061E070E0260F371F53FF5FC041E050E02E
:1004F000240F351F8C0102951295107F1027007F65
:100500001027112720FF54C00C5F1F4F559861E042
:1005100087E8E8D061E08C2FE5D061E0802FE2D061
:10052000559ACF911F910F91089560E070E041FDC1
:10053000A1CF20E030E0260F371F42FDA1CF60E0C1
:1005400070E0260F371F43FDA1CF60E070E0260F5B
:10055000371F44FDA1CF60E070E0260F371F45FD37
:10056000A1CF60E070E0260F371F46FDA1CF60E00D
:1005700070E0260F371F47FDA1CF60E070E0260F27
:10058000371F50FDA1CF60E070E0260F371F51FDEF
:10059000A1CF60E070E0260F371F52FDA1CF60E0D1
:1005A00070E0260F371F53FDA1CF40E050E0A0CFF1
:1005B000085F1F4FABCF559861E08EE893D061E0A4
:1005C00080EB90D061E080E08DD08093B301559AAC
:1005D000559861E08EE886D061E080EC83D061E0E0
:1005E00080E080D080938A01559A0895559861E003
:1005F00080EF78D061E080E075D0559A08959091B1
:10060000B90191113EC093EC9093C20091E0909398
:10061000A0019093C10116BC90916E0092609093DE
:100620006E0004C09091A0019923A1F19091C000A7
:1006300095FFF8CF90916E009D7F90936E00A99AE0
:100640008093C60081E08093A0018093C10116BC15
:1006500080916E00826080936E0004C08091A00142
:10066000882391F08091C00087FFF8CF80916E00C1
:100670008D7F80936E00A99A8091A00181111092C4
:1006800040018091C6000895809140018F5F809362
:100690004001ECCF909140019F5F90934001CACF01
:1006A000892B09F408951092C5001092C40081EFBF
:1006B00089B983EC8093C20088E18093C10088E00F
:1006C00090E09093C5008093C400579A80E090E03A
:1006D0007BDE80E090E0BFDC80E090E074CE579855
:1006E000579A08959091B90191114EC0643009F460
:1006F00078C093EC9093C20091E09093A001909306
:10070000C10116BC90916E00926090936E0005C07E
:100710009091A001992309F454C09091C00095FFD5
:10072000F7CF90916E009D7F90936E00A99A809371
:10073000C60081E08093A0018093C10116BC809126
:100740006E00826080936E0004C08091A0018823B7
:10075000F1F08091C00087FFF8CF80916E008D7F0F
:1007600080936E00A99A8091A001882369F064307B
:1007700009F46EC008F46FC0603109F481C06032C2
:1007800009F06BC010923D018091C600089564305D
:1007900009F44EC078F1603109F462C0603209F0AA
:1007A00072C080913D018F5F80933D0180916E000A
:1007B0008D7F80936E00A99A8091A0018111E2CF74
:1007C000E3CF643009F465C058F1603109F46DC0BD
:1007D000603209F064C090913D019F5F90933D01AC
:1007E000A0CF90EC9093C2009091C2009D7F909317
:1007F000C20082CF613009F046C080913E018F5F18
:1008000080933E0180916E008D7F80936E00A99A47
:100810008091A001882309F4B7CF10923E01B4CF94
:100820006130E9F590913E019F5F90933E0179CF51
:1008300080913F018F5F80933F0180916E008D7F9B
:1008400080936E00A99A8091A001882309F49CCF1F
:1008500010923F0199CF613001F310923C0194CF87
:10086000809140018F5F8093400180916E008D7F69
:1008700080936E00A99A8091A001882309F484CF07
:100880001092400181CF80913C018F5F80933C01A9
:1008900064CF90913F019F5F90933F0142CF909131
:1008A0003C019F5F90933C013CCF909140019F5F42
:1008B0009093400136CF579880E4A1DE80E09FDE20
:1008C00081E69DDE579A0895579880E498DE88E087
:1008D00096DE80E494DE579A579880E490DE86E0B6
:1008E0008EDE80E08CDE579A579880E488DE8AE0BE
:1008F00086DE80E084DE579A579881E480DE82E1CC
:100900007EDE80E07CDE579A579881E478DE80E1D5
:1009100076DE80E074DE579A579880E470DE84E0DB
:100920006EDE80E46CDE579A0895579881E467DEA6
:1009300080E165DE80E063DE579A0895579881E490
:100940005EDE8EE05CDE80E05ADE579A0895CF933B
:10095000C82F579880E453DE82E151DE8C2F4FDEA2
:10096000579A579880E44BDE84E149DE8C2F47DEAE
:10097000579ACF9108951F920F920FB60F9211249C
:10098000CF93DF9300D0CDB7DEB71A8219820F90D4
:100990000F90DF91CF910F900FBE0F901F90189581
:1009A0001F920F920FB60F9211248F939F93EF9384
:1009B000FF9381E08093B90110928500109284002A
:1009C000ECE6F0E09081977F908310928C01809309
:1009D000940199E09093A70110929E018093A40145
:1009E000EFE6F0E0808182608083FF91EF919F913C
:1009F0008F910F900FBE0F901F901895139A8091B2
:100A000064008B7F8093640089E08DB9489A81E50A
:100A10008CBD159A179A1698159881E08EBD0DB465
:100A200007FEFDCF80E48EBD0DB407FEFDCF159A05
:100A3000159882E08EBD0DB407FEFDCF1EBC0DB42F
:100A400007FEFDCF1EBC0DB407FEFDCF8FEF9FE16B
:100A50001EBC0DB407FEFDCF0197D1F7159A169A6B
:100A600017988CB58F7B8CBD8091640084608093D7
:100A70006400139892B181E0982792B992B19827B7
:100A800092B992B1982792B992B1982792B992B13E
:100A9000982792B992B1892782B908951F920F922F
:100AA0000FB60F9211242F933F934F935F936F9341
:100AB0007F938F939F93AF93BF93EF93FF93809117
:100AC0008901882321F080918701853589F0FF9184
:100AD000EF91BF91AF919F918F917F916F915F91B6
:100AE0004F913F912F910F900FBE0F901F9018952F
:100AF000F89484DF88E02BDF18DF179A16981DBA68
:100B00007894E5CFCF93DF9300D0CDB7DEB7809157
:100B10009E01813409F48EC480919E01823409F4CF
:100B200054C480919E01833409F41AC480919E01BB
:100B3000843409F48AC380919E01853409F416C374
:100B400080919E01863409F49FC280919E01873472
:100B500009F444C280919E01883409F480C18091D7
:100B60009E018D3409F4E3C180919E018E3409F415
:100B7000C8C080919E018A3409F4A0C080919E0172
:100B80008C3481F180919E018B3429F00F900F906D
:100B9000DF91CF9108951092A3018091A10181303E
:100BA00009F4C2C484E18093B5011092900181E000
:100BB000809394018093920110928500109284009A
:100BC0008093B90180916F00826080936F00809163
:100BD00092018111FCCF1092B9010F900F90DF911B
:100BE000CF9108951092A301809181018093B50166
:100BF0001092900181E08093940180939201109271
:100C00008500109284008093B90180916F0082600A
:100C100080936F00809192018111FCCF80918001BF
:100C20008093B5011092900181E0809394018093AC
:100C3000920110928500109284008093B9018091F6
:100C40006F00826080936F00809192018111FCCFD0
:100C500080917F018093B5011092900181E0809393
:100C600094018093920110928500109284008093E9
:100C7000B90180916F00826080936F008091920132
:100C80008111FCCF84E18093B5011092900181E045
:100C900080939401809392011092850010928400B9
:100CA0008093B90180916F00826080936F00809182
:100CB00092018111FCCF1092B90164CF1092A3016F
:100CC000169A179885E58093870184E18093B50192
:100CD0001092900181E08093940180939201109290
:100CE0008500109284008093B90180916F0082602A
:100CF00080936F00809192018111FCCF1092B90115
:100D00003DCF1092A3018091A30190918C01882383
:100D100009F47EC01092A30180918C01813009F406
:100D200081C080919E0190E090937E0180937D012F
:100D300080917D0190917E0116DB80917D019091E3
:100D40007E01892B09F448C040E050E091E09A010F
:100D5000220F331FF901EF5BFE4F608171817093A9
:100D6000B50110929001909394019093920110928A
:100D70008500109284009093B90180916F00826089
:100D800080936F00809192018111FCCFF901EF5B9C
:100D9000FE4F208131812093B501109290019093F4
:100DA0009401909392011092850010928400909388
:100DB000B90180916F00826080936F0080919201F1
:100DC0008111FCCF4F5F5F4F20917D0130917E01FB
:100DD0004217530708F4BBCF84E18093B50110920A
:100DE000900181E08093940180939201109285009C
:100DF000109284008093B90180916F00826080938B
:100E00006F00809192018111FCCF1092B901B1CE97
:100E1000992309F478CF1092A30180918C0181303D
:100E200009F07FCF10928C0195E19093B50110925B
:100E3000900180939401809392011092850010920A
:100E400084008093B90180916F00826080936F006D
:100E5000809192018111FCCF1092B9018ACE10923B
:100E6000A3018091950190919601A0919701B09175
:100E70009801892F9A2FAB2FBB27A7FDBA95809396
:100E8000B5011092900181E08093940180939201CA
:100E900010928500109284008093B90180916F00B8
:100EA000826080936F00809192018111FCCF8091CC
:100EB000950190919601A0919701B091980180932E
:100EC000B5011092900181E080939401809392018A
:100ED00010928500109284008093B90180916F0078
:100EE000826080936F00809192018111FCCF84E138
:100EF0008093B5011092900181E0809394018093DA
:100F0000920110928500109284008093B901809123
:100F10006F00826080936F00809192018111FCCFFD
:100F20001092B90180919E018D3409F01DCE10926E
:100F3000A30102DA80917D0190917E019093B50129
:100F40001092900181E0809394018093920110921D
:100F50008500109284008093B90180916F008260B7
:100F600080936F00809192018111FCCF80917D016F
:100F700090917E018093B5011092900181E0809361
:100F800094018093920110928500109284008093C6
:100F9000B90180916F00826080936F00809192010F
:100FA0008111FCCF84E18093B5011092900181E022
:100FB0008093940180939201109285001092840096
:100FC0008093B90180916F00826080936F0080915F
:100FD00092018111FCCF1092B901C6CD1092A301EC
:100FE00080919A0190919B019093B501109290018C
:100FF00081E0809394018093920110928500109279
:1010000084008093B90180916F00826080936F00AB
:10101000809192018111FCCF80919A0190919B0166
:101020008093B5011092900181E0809394018093A8
:10103000920110928500109284008093B9018091F2
:101040006F00826080936F00809192018111FCCFCC
:1010500084E18093B5011092900181E08093940126
:101060008093920110928500109284008093B901C0
:1010700080916F00826080936F0080919201811156
:10108000FCCF1092B90166CD1092A3018091A3010B
:1010900090918C01882309F440C01092A3018091A3
:1010A0008C01813009F443C080919E01982F909566
:1010B0008091880189238093880180FFD6C291E0C6
:1010C00090939D0181FFCEC291E090939F0182FF9A
:1010D000C6C291E09093910183FDD8C2109289011C
:1010E0001DBA84E18093B5011092900181E0809354
:1010F0009401809392011092850010928400809355
:10110000B90180916F00826080936F00809192019D
:101110008111FCCF1092B90118CD992309F4B6CFF3
:101120001092A30180918C01813009F0BDCF109203
:101130008C011092A60195E19093B5011092900157
:101140008093940180939201109285001092840004
:101150008093B90180916F00826080936F008091CD
:1011600092018111FCCF1092B901EFCC1092A30132
:101170008091A30190918C018823F1F11092A30139
:1011800080918C01813009F441C090919E01809141
:10119000880189238093880180FF5EC291E090934B
:1011A0009D0181FF68C291E090939F0182FF60C220
:1011B00091E09093910183FD61C2109289011DBA63
:1011C00084E18093B5011092900181E080939401B5
:1011D0008093920110928500109284008093B9014F
:1011E00080916F00826080936F00809192018111E5
:1011F000FCCF1092B901A4CC992309F4B9CF109275
:10120000A30180918C01813009F0BFCF10928C0135
:101210001092A60195E19093B501109290018093F0
:101220009401809392011092850010928400809323
:10123000B90180916F00826080936F00809192016C
:101240008111FCCF1092B9017BCC1A8219821092C5
:10125000A30181E08093B6018091A30190918C015C
:10126000882309F451C080919E018A831092A301C2
:1012700080918C01813009F491C180919E018A8313
:101280008091A30190918C01882309F441C01092B0
:10129000A30180918C01811145C080919E018983B9
:1012A0008091B601882309F446CC8A8180939C0101
:1012B000898180938B011092B60184E18093B501FE
:1012C0001092900181E0809394018093920110929A
:1012D0008500109284008093B90180916F00826034
:1012E00080936F00809192018111FCCF1092B9011F
:1012F00020918B0180919C0190E0922B9093C301EF
:101300008093C20100D817CC992309F4A5CFABCFA5
:10131000992309F4B5CF1092A30180918C01882301
:1013200009F4BBCF1092B60185E18093B50110920C
:10133000900181E080939401809392011092850046
:10134000109284008093B90180916F008260809335
:101350006F00809192018111FCCF1092B901A0CF52
:101360001092A3018091A30190918C01882351F1E7
:101370001092A30180918C01813009F4F0C084E1C6
:101380008093B5011092900181E080939401809345
:10139000920110928500109284008093B90180918F
:1013A0006F00826080936F00809192018111FCCF69
:1013B0001092B90180919E0190E09093B8018093C2
:1013C000B701B4CB992371F2D3CF1092A3018091CE
:1013D000A30190918C01882351F11092A301809177
:1013E0008C01813009F41BC184E18093B501109216
:1013F000900181E080939401809392011092850086
:10140000109284008093B90180916F008260809374
:101410006F00809192018111FCCF80919E0190E03C
:101420009093B8018093B7011092B9017ACB9923B8
:1014300071F2D3CF1092A30181E08093A601809135
:10144000A30190918C01882309F444C020919E014E
:101450001092A30180918C01813009F4BEC02091CB
:101460009E0130E0322F22278091A30190918C01C0
:101470008823A1F11092A30180918C01811136C0C3
:1014800080919E01282B8091A601882309F444CBEA
:101490003093B2012093B1011092A60184E18093B0
:1014A000B5011092900181E08093940180939201A4
:1014B00010928500109284008093B90180916F0092
:1014C000826080936F00809192018111FCCF109215
:1014D000B90122CB992309F4B2CFB8CF992321F2D5
:1014E0001092A30180918C01882351F21092A601E1
:1014F00085E18093B5011092900181E08093940181
:101500008093920110928500109284008093B9011B
:1015100080916F00826080936F00809192018111B1
:10152000FCCF1092B901AFCF95E19093B501109225
:101530009001809394018093920110928500109203
:1015400084008093B90180916F00826080936F0066
:10155000809192018111FCCF1092B9013ECB109283
:101560008C011092A60195E19093B5011092900123
:1015700080939401809392011092850010928400D0
:101580008093B90180916F00826080936F00809199
:1015900092018111FCCF1092B901C8CA10928C013E
:1015A0001092B60195E19093B5011092900180934D
:1015B0009401809392011092850010928400809390
:1015C000B90180916F00826080936F0080919201D9
:1015D0008111FCCF1092B90153CE10928C01109260
:1015E000A60195E19093B50110929001809394012A
:1015F0008093920110928500109284008093B9012B
:1016000080916F00826080936F00809192018111C0
:10161000FCCF30E0322F22271092B90125CF109253
:101620008C011092A60195E19093B5011092900162
:10163000809394018093920110928500109284000F
:101640008093B90180916F00826080936F008091D8
:1016500092018111FCCFE8CE10929D01A2CD109293
:1016600091013ACD10929F0132CD10929D012ACD69
:1016700010929101A0CD10929F0198CD81E08093AE
:101680008901109269008DBB78949ACD81E0809396
:101690008901109269008DBB789423CD80918401DB
:1016A000853178F080919D01882309F451C080E450
:1016B0008093810181E08093800110927F0180936B
:1016C000A10180918501853120F0809191018111E6
:1016D00033C080918601853120F08091890181118C
:1016E0001FC080918301853158F080E4809381018F
:1016F00080E28093800110927F0181E08093A101BC
:1017000080918201853158F080E48093810180E8E6
:101710008093800110927F0181E08093A101089560
:1017200080E48093810180E18093800110927F01A9
:1017300081E08093A101D5CF80E48093810184E092
:101740008093800110927F0181E08093A101C1CF3D
:1017500080919F01882309F4B4CFA9CF179A1698D6
:101760008FEE81B987EF85B9D7E0D093680080917B
:101770006B00806180936B0088E087B980916C007A
:10178000886080936C0078948FEF8093880110922A
:1017900087011092A101109292011092A40110925F
:1017A000B50110929001109284011092850110925F
:1017B000860110928301109282011092B901109259
:1017C0008E01339AC1E0C093A20180E180938D0124
:1017D00016BC82E884BDC5BD99EB97BD109285000B
:1017E0001092840080938000C093810084EB90E08D
:1017F000909389008093880081E090E051D780E247
:1018000080939C01D0938B016AD798D854D880914B
:101810008D0182609CD880918D0199D855D88ED841
:1018200010926900CDBB7894E1D664E870E08DE059
:1018300090E00BD6C0D6CED5D6D5CCD5D4D5CAD58A
:10184000D2D50FD41AD425D4A0D4169A179882B121
:101850008F6082B982B1807F82B980E590E0A0E09C
:10186000B0E08093950190939601A0939701B09377
:10187000980185E59AEA90939B0180939A011092D2
:10188000A301789412E0D4E08091A301813009F49F
:1018900046C0809187018535B9F78091B9018111E2
:1018A000F3CFFCDE8091910181117BC080919F017B
:1018B00081113BC080919D01882331F380918E017D
:1018C000882309F486C080918E01811180C0909197
:1018D0008E0180918E01892780938E0120919A013B
:1018E00030919B018091B1019091B20182179307D1
:1018F00058F6C093810180919A0190919B011092BA
:10190000800180919A0190919B0180937F0176D80C
:1019100010929D018091A301813009F0BACF1092FD
:10192000A30180939401EED8B4CF2FD48091B70156
:101930009091B80140919501509196016091970165
:10194000709198012091BB013091BC01C09095012C
:10195000D0909601E0909701F0909801092E000C2C
:10196000AA0BBB0B84179507A607B7072CF5109396
:1019700081018091950190919601A0919701B0917C
:101980009801109280018091950190919601A0910B
:101990009701B091980180937F0130D810929F01F8
:1019A00089CF1BD484FD02C087FF80CFD0938101F3
:1019B00025D8109291017ACFC901330FAA0BBB0B26
:1019C000C816D906EA06FB060CF074CFD0CF0BD5AB
:1019D0007ECF00D578CF1F920F920FB60F921124B1
:1019E0002F933F934F935F938F939F931092850014
:1019F000109284008091A401882349F08091940181
:101A0000882379F180919401815080939401809191
:101A100092018823D9F080919401813009F453C058
:101A2000809190018830D8F58091B5012091900186
:101A300090E002C0959587952A95E2F780FF3CC01B
:101A4000329A809190018F5F809390019F918F9146
:101A50005F914F913F912F910F900FBE0F901F906C
:101A600018958091A70190E002978CF184B1509174
:101A7000A70140919E0183FB222720F989E090E095
:101A8000851B910901C0220F8A95EAF7242B209328
:101A90009E018091A70181508093A701B8CF8091CA
:101AA0009001883071F6329A80916F008D7F80931B
:101AB0006F0010929201C5CF3298809190018F5F94
:101AC00080939001C3CF109294013298BFCF809140
:101AD000A7018111DECF81E0239B13C08093A30176
:101AE00092B188E0892782B980916F008D7F8093C1
:101AF0006F0080916C00886080936C001092A4014C
:101B0000C8CF80938C01F0CF1F920F920FB60F9227
:101B100011248F939F93AF93BF9316BC9AB180E427
:101B200089278AB980916E008D7F80936E00A99A73
:101B30008091A001882351F08091C1018150809350
:101B4000C1018091C101882309F440C08091A501A1
:101B5000882349F08091B40181508093B401809131
:101B6000B401882381F180919301882309F1809148
:101B7000BD019091BE01A091BF01B091C00101973C
:101B8000A109B1098093BD019093BE01A093BF014B
:101B9000B093C0018091BD019091BE01A091BF01A1
:101BA000B091C001892B8A2B8B2B11F410929301D9
:101BB00010929901BF91AF919F918F910F900FBE9D
:101BC0000F901F9018951092A501CDCF1092A001F3
:101BD000BDCF04D06894B1118DC0089570D088F045
:101BE0009F5790F0B92F9927B751A0F0D1F0660F09
:101BF000771F881F991F1AF0BA95C9F712C0B13024
:101C000081F077D0B1E0089574C0672F782F8827CE
:101C1000B85F39F0B93FCCF3869577956795B39562
:101C2000D9F73EF490958095709561957F4F8F4FD1
:101C30009F4F0895E89409C097FB3EF490958095D6
:101C4000709561957F4F8F4F9F4F9923A9F0F92F82
:101C500096E9BB279395F695879577956795B79500
:101C6000F111F8CFFAF4BB0F11F460FF1BC06F5FE6
:101C70007F4F8F4F9F4F16C0882311F096E911C0F8
:101C8000772321F09EE8872F762F05C0662371F019
:101C900096E8862F70E060E02AF09A95660F771F2D
:101CA000881FDAF7880F9695879597F9089557FD5D
:101CB0009058440F551F59F05F3F71F04795880FBA
:101CC00097FB991F61F09F3F79F087950895121651
:101CD00013061406551FF2CF4695F1DF08C01616FD
:101CE00017061806991FF1CF8695710561050894AE
:101CF0000895E894BB2766277727CB0197F90895C5
:101D00000AD080C071D028F076D018F0952309F061
:101D100062C067C0EFCFCBDFA8F39923D9F3552377
:101D2000C9F3950F50E0551FAA27EE27FF27BB27C1
:101D300000240894679520F4E20FF31FB41F0A1ED5
:101D4000220F331F441FAA1F6695A9F7779530F419
:101D5000F30FB41F0A1E121E08F46395330F441FBD
:101D6000AA1F221F769599F7879520F4B40F0A1EB3
:101D7000121E631F440FAA1F221F331F8695A9F747
:101D8000862F712D602D11249F5750408AF0E1F06D
:101D900088234AF0EE0FFF1FBB1F661F771F881FA7
:101DA00091505040A9F79E3F510570F014C0A2CF4A
:101DB0005F3FECF3983EDCF3869577956795B79592
:101DC000F795E7959F5FC1F7FE2B880F911D9695BC
:101DD000879597F9089597F99F6780E870E060E02C
:101DE00008959FEF80EC089500240A9416161706B4
:101DF00018060906089500240A94121613061406FC
:101E000005060895092E0394000C11F4882352F05E
:101E1000BB0F40F4BF2B11F460FF04C06F5F7F4F16
:0A1E20008F4F9F4F0895F894FFCFF5
:00000001FF
