:1000000019C086C227C0F6C10AC224C023C022C0BC
:1000100021C04DC81FC01EC0AEC71CC01BC01AC027
:1000200019C018C017C016C015C014C013C012C024
:1000300011C010C011241FBECFEFD2E0DEBFCDBF74
:1000400021E0A0E0B1E001C01D92AB33B207E1F7BF
:10005000BDD66DC8D5CFCF93C0911E01549864E032
:100060008AE003D164E080E200D164E08C2FFDD00F
:1000700064E080E0FAD0549AC0911201549864E090
:100080008AE0F3D064E081E2F0D064E08C2FEDD020
:1000900064E080E0EAD0549A549864E08AE0E5D0C5
:1000A00064E082E2E2D064E085E0DFD064E080E0FA
:1000B000DCD0549A549864E08AE0D7D064E08CE2B3
:1000C000D4D064E081E1D1D064E080E0CED0549A15
:1000D000549864E08AE0C9D064E087E2C6D064E066
:1000E00083E0C3D064E080E0C0D0549A549864E0C8
:1000F0008AE0BBD064E08BE2B8D064E080E9B5D0A0
:1001000064E080E0B2D0549A549864E08AE0ADD0C4
:1001100064E08DE2AAD064E08AE0A7D064E080E0E9
:10012000A4D0549ACF910895549864E08BE09DD068
:1001300064E08DE09AD064E080E097D0549A08950E
:10014000CF93DF93559861E083EC8FD061E080E03E
:100150008CD061E080E089D0C82FD0E0DC2FCC27A4
:1001600061E080E082D0C82B61E080E07ED090E04A
:10017000982F882790931D0180931C0161E080E0F7
:1001800074D020911C0130911D01282B30931D014A
:1001900020931C01559A209111016091330130E0A8
:1001A00020523109C901880F991F82959295907F3D
:1001B0009827807F9827820F931F880F991F820F9F
:1001C000931F8150924D8C1B9D0B70E06D5C7F4F97
:1001D00087D7625E7F4F70931B0160931A01DF9196
:1001E000CF91089591E090930501109285001092AF
:1001F000840090916F00926090936F009091050140
:10020000992349F19091C00095FFFCCF8093C600DF
:1002100081E0809305011092850010928400809106
:100220006F00826080936F0080910501882349F000
:100230008091C00087FFFCCF109204018091C6001E
:1002400008958091C00087FDF9CF809104018F5FF0
:1002500080930401F3CF9091C00095FDD7CF90918A
:1002600004019F5F90930401D1CF91E09093050129
:10027000109285001092840090916F00926090938C
:100280006F00909105019923E1F19091C00095FFD5
:10029000FCCF8093C60081E0809305011092850019
:1002A0001092840080916F00826080936F00809133
:1002B0000501882391F08091C00087FFFCCF643056
:1002C000B9F108F446C0603171F1603209F058C0EC
:1002D000109201018091C60008958091C00087FDB1
:1002E000F9CF643009F45DC008F442C0603159F1BF
:1002F000603209F05CC0809101018F5F8093010141
:10030000E9CF9091C00095FDC4CF643009F443C09B
:1003100038F1603191F06032C1F5909101019F5F39
:1003200090930101B6CF109204018091C600089508
:10033000109203018091C6000895909104019F5F7F
:1003400090930401A6CF809104018F5F80930401F4
:10035000C1CF6130A9F4109202018091C6000895C6
:10036000613099F4909102019F5F9093020191CFC7
:100370006130E9F4809102018F5F80930201AACF7E
:10038000109200018091C6000895909100019F5F36
:10039000909300017ECF909103019F5F90930301A2
:1003A00078CF809103018F5F8093030193CF809179
:1003B00000018F5F809300018DCF579881E412DF99
:1003C00080E110DF80E00EDF579A0895CF93C82FA9
:1003D000579880E407DF82E105DF8C2F03DF579A0F
:1003E000579880E4FFDE84E1FDDE8C2FFBDE579A18
:1003F000CF9108951F920F920FB60F921124CF93B1
:10040000DF9300D0CDB7DEB71A8219820F900F901C
:10041000DF91CF910F900FBE0F901F9018951F92F4
:100420000F920FB60F9211248F939F93EF93FF9328
:1004300016BCECE6F0E08081877F80831092130188
:1004400081E08093190199E0909327011092200197
:1004500080932501EEE6F0E0808182608083FF9149
:10046000EF919F918F910F900FBE0F901F90189555
:10047000139A809164008B7F8093640089E08DB92A
:10048000489A81E58CBD159A179A1698159881E0BF
:100490008EBD0DB407FEFDCF80E48EBD0DB407FE0A
:1004A000FDCF159A159882E08EBD0DB407FEFDCFE5
:1004B0001EBC0DB407FEFDCF1EBC0DB407FEFDCF64
:1004C0008FEF9FE11EBC0DB407FEFDCF0197D1F762
:1004D000159A169A17988CB58F7B8CBD8091640005
:1004E000846080936400139892B181E0982792B958
:1004F00092B1982792B992B1982792B992B1982760
:1005000092B992B1982792B992B1892782B9089588
:100510001F920F920FB60F9211242F933F934F9378
:100520005F936F937F938F939F93AF93BF93EF935B
:10053000FF9380911001882321F080910E01853571
:1005400089F0FF91EF91BF91AF919F918F917F9132
:100550006F915F914F913F912F910F900FBE0F9030
:100560001F901895F89484DF88E030DF26DF179A13
:1005700016987894E6CF80912001813409F4CDC299
:1005800080912001823409F49AC280912001833441
:1005900009F467C280912001843409F4F5C1809187
:1005A0002001853409F493C180912001863409F437
:1005B00030C180912001873409F4E6C08091200188
:1005C000883409F49CC0809120018A3409F47BC0EE
:1005D000809120018C3409F1809120018B3409F045
:1005E00008951092240180912201813009F400C302
:1005F00084E1809334011092160181E08093190107
:100600008093180116BC80916E00826080936E000A
:10061000809118018111FCCF0895109224018091DE
:100620000801809334011092160181E08093190132
:100630008093180116BC80916E00826080936E00DA
:10064000809118018111FCCF8091070180933401C2
:100650001092160181E0809319018093180116BC55
:1006600080916E00826080936E00809118018111EC
:10067000FCCF80910601809334011092160181E035
:10068000809319018093180116BC80916E008260DE
:1006900080936E00809118018111FCCF84E18093DA
:1006A00034011092160181E08093190180931801A2
:1006B00016BC80916E00826080936E00809118015C
:1006C0008111FCCF89CF10922401169A179885E5E5
:1006D00080930E0184E1809334011092160181E031
:1006E000809319018093180116BC80916E0082607E
:1006F00080936E00809118018111FCCF69CF109218
:10070000240180911A0190911B01109234011092E2
:10071000160181E0809319018093180116BC809125
:100720006E00826080936E00809118018111FCCF71
:1007300080911A0190911B0180933401109216014F
:1007400081E0809319018093180116BC80916E009E
:10075000826080936E00809118018111FCCF84E14A
:10076000809334011092160181E0809319018093E7
:10077000180116BC80916E00826080936E0080919B
:1007800018018111FCCF1FCF1092240180911C0110
:1007900090911D01109234011092160181E0809316
:1007A00019018093180116BC80916E0082608093BD
:1007B0006E00809118018111FCCF80911C019091F5
:1007C0001D01809334011092160181E0809319017C
:1007D0008093180116BC80916E00826080936E0039
:1007E000809118018111FCCF84E180933401109233
:1007F000160181E0809319018093180116BC809145
:100800006E00826080936E00809118018111FCCF90
:10081000D5CE109224018091240190911301882358
:10082000B1F110922401809113018130C1F18091C6
:100830002001809590910F01892380930F0180FF03
:1008400051C291E090931F0181FF49C291E09093C2
:10085000210182FF41C291E09093170183FD4EC2B6
:100860001092100184E1809334011092160181E00E
:10087000809319018093180116BC80916E008260EC
:1008800080936E00809118018111FCCF92CE992344
:1008900011F21092240180911301813041F61092DF
:1008A00013011092260195E19093340110921601E4
:1008B000809319018093180116BC80916E008260AC
:1008C00080936E00809118018111FCCF72CE10923E
:1008D000240180912401909113018823A9F11092A1
:1008E0002401809113018130B9F190912001809110
:1008F0000F01892B80930F0180FFFDC191E0909340
:100900001F0181FFF5C191E09093210182FFEDC1AC
:1009100091E09093170183FDF5C11092100184E1DD
:10092000809334011092160181E080931901809325
:10093000180116BC80916E00826080936E008091D9
:1009400018018111FCCF30CE992319F210922401A5
:1009500080911301813049F6109213011092260103
:1009600095E19093340110921601809319018093C0
:10097000180116BC80916E00826080936E00809199
:1009800018018111FCCF10CE1092240181E08093D8
:10099000350180912401909113018823E9F1209180
:1009A00020011092240180911301813009F434C197
:1009B0008091200190E0382F22278091240190918E
:1009C0001301882369F11092240180911301811190
:1009D0002FC08091200140913501442309F4DFCDDF
:1009E00020931E01809312011092350134DB84E1C3
:1009F000809334011092160181E080931901809355
:100A0000180116BC80916E00826080936E00809108
:100A100018018111FCCFC3CD992309F4BACFBFCF00
:100A2000992359F21092240180911301882389F2AD
:100A30001092350185E1809334011092160181E016
:100A4000809319018093180116BC80916E0082601A
:100A500080936E00809118018111FCCF80E090E0BE
:100A6000BACF109224018091240190911301882320
:100A700019F11092240180911301813009F4E4C02E
:100A800084E1809334011092160181E08093190172
:100A90008093180116BC80916E00826080936E0076
:100AA000809118018111FCCF8091200190E09093FA
:100AB0003701809336016ECD9923A9F2DACF1092D7
:100AC00024018091240190911301882319F110923F
:100AD000240180911301813009F4E6C084E1809300
:100AE00034011092160181E080931901809318015E
:100AF00016BC80916E00826080936E008091180118
:100B00008111FCCF8091200190E090933701809378
:100B100036013BCD9923A9F2DACF1092240181E06E
:100B20008093260180912401909113018823E9F19B
:100B3000209120011092240180911301813009F449
:100B40009BC02091200130E0322F22278091240188
:100B500090911301882369F110922401809113016F
:100B600081112FC080912001282B8091260188239C
:100B700009F406CD30933201209331011092260101
:100B800084E1809334011092160181E08093190171
:100B90008093180116BC80916E00826080936E0075
:100BA000809118018111FCCFEBCC992309F4BACFC5
:100BB000BFCF992359F21092240180911301882309
:100BC00089F21092260185E180933401109216017A
:100BD00081E0809319018093180116BC80916E000A
:100BE000826080936E00809118018111FCCFBDCF8F
:100BF00095E190933401109216018093190180932E
:100C0000180116BC80916E00826080936E00809106
:100C100018018111FCCF0895109213011092350133
:100C200095E19093340110921601809319018093FD
:100C3000180116BC80916E00826080936E008091D6
:100C400018018111FCCFB9CE109213011092260128
:100C500095E19093340110921601809319018093CD
:100C6000180116BC80916E00826080936E008091A6
:100C700018018111FCCF8ECC109213011092260125
:100C800095E190933401109216018093190180939D
:100C9000180116BC80916E00826080936E00809176
:100CA00018018111FCCF4FCF109213011092260131
:100CB00095E190933401109216018093190180936D
:100CC000180116BC80916E00826080936E00809146
:100CD00018018111FCCF59CC10921701BFCD109291
:100CE0002101B7CD10921F01AFCD1092170113CE85
:100CF000109221010BCE10921F0103CE81E0809350
:100D00001001B0CD81E08093100109CE80910B01DC
:100D1000853178F080911F01882309F451C080E467
:100D20008093080181E0809307011092060180936F
:100D3000220180910C01853120F0809117018111F1
:100D400033C080910D01853120F080911001811117
:100D50001FC080910A01853158F080E4809308011A
:100D600080E2809307011092060181E080932201C6
:100D700080910901853158F080E48093080180E872
:100D8000809307011092060181E08093220108956B
:100D900080E48093080180E18093070110920601AE
:100DA00081E080932201D5CF80E48093080184E024
:100DB000809307011092060181E080932201C1CF48
:100DC00080912101882309F4B4CFA9CF179A1698EE
:100DD0008FEE81B987EF85B987E0809368008091B5
:100DE0006B00806180936B00569A88E087B9809190
:100DF0006C00886080936C0078948FEF80930F0173
:100E000010920E01109222011092180110922501E9
:100E1000109234011092160110920B0110920C01E5
:100E200010920D0110920A0110920901339A81E08B
:100E30008093230190E190931401569A16BC92E896
:100E400094BD85BD24EB27BD1092850010928400CF
:100E5000909380008093810084EB90E090938900D0
:100E60008093880082B18F6082B982B1807F82B91D
:100E700080E590E090931B0180931A0185E59AEA42
:100E800090931D0180931C0110922401789414E02A
:100E9000D2E0C1E004C080910E01853569F08091F7
:100EA00024018130C1F7109224018093190163DB82
:100EB00080910E01853599F729DF36D984FF04C06A
:100EC00080911701811153C03BD920911A013091B3
:100ED0001B01809136019091370160911A01709148
:100EE0001B014091390150913A018217930744F553
:100EF0008091210181112BC020911C0130911D0195
:100F000080913101909132018217930740F68091D0
:100F10001F01882321F2C093080180911C01909148
:100F20001D01992721E009970CF420E02093070187
:100F300080911C0190911D018093060199DAAFCF39
:100F400064177507CCF6809121018823A9F2D0930C
:100F5000080180911A0190911B0110920701809164
:100F60001A0190911B018093060182DAC5CF10937C
:100F700008017EDAA9CF1F920F920FB60F921124AB
:100F80002F933F934F935F938F939F9316BC9AB188
:100F900080E489278AB980912501882349F08091CE
:100FA0001901882379F180911901815080931901E9
:100FB000809118018823D9F080911901813009F4BA
:100FC00054C0809116018830D8F580913401209169
:100FD000160190E002C0959587952A95E2F780FF6B
:100FE0003DC0329A809116018F5F809316019F91C8
:100FF0008F915F914F913F912F910F900FBE0F9066
:101000001F9018958091270190E0029794F184B188
:10101000509127014091200183FB222720F989E08C
:1010200090E0851B910901C0220F8A95EAF7242BD5
:101030002093200180912701815080932701B8CF10
:1010400080911601883071F6329A80916E008D7F02
:1010500080936E0010921801569AC4CF32988091F6
:1010600016018F5F80931601C2CF1092190132983A
:10107000BECF809127018111DDCF81E0239B14C079
:101080008093240192B188E0892782B980916E0013
:101090008D7F80936E0080916C00886080936C00DF
:1010A000569A10922501C6CF80931301EFCF1F925D
:1010B0000F920FB60F9211248F93EF93FF9310921C
:1010C000850010928400EFE6F0E080818D7F8083C0
:1010D000FF91EF918F910F900FBE0F901F90189579
:1010E00097FB072E16F4009406D077FD08D00BD09E
:1010F00007FC05D03EF4909581959F4F089570951B
:1011000061957F4F0895AA1BBB1B51E107C0AA1F21
:10111000BB1FA617B70710F0A61BB70B881F991F98
:101120005A95A9F780959095BC01CD010895F89442
:02113000FFCFEF
:00000001FF
