:1000000019C0AEC427C029C43DC424C023C022C027
:1000100021C06CCA1FC01EC002CB1CC01BC01AC0AE
:1000200019C018C017C016C015C014C013C012C024
:1000300011C010C011241FBECFEFD2E0DEBFCDBF74
:1000400021E0A0E0B1E001C01D92A639B207E1F7BE
:10005000EBD748CCD5CF54980895892B09F0FBCF26
:10006000549A0895F8DF64E08AE0B2D264E08FE148
:10007000AFD264E082E5ACD280E090E0EECFEBDF7F
:1000800064E08AE0A5D264E08FE1A2D264E082E578
:100090009FD280E090E0E1DFDEDF64E08AE098D28A
:1000A00064E080E295D28091640164E091D280E0C6
:1000B00090E0D3DFD0DF64E08AE08AD264E081E2BE
:1000C00087D28091500164E083D280E090E0C5DF68
:1000D000C2DF64E08AE07CD264E082E279D264E04C
:1000E00080E076D280E090E0B8DFB5DF64E08AE0BF
:1000F0006FD264E087E26CD264E080E069D280E095
:1001000090E0ABDFA8DF64E08AE062D264E088E2DE
:100110005FD264E080E05CD280E090E09EDF9BDF15
:1001200064E08AE055D264E089E252D264E088EC6F
:100130004FD280E090E091DF8EDF64E08AE048D229
:1001400064E08AE245D264E080E142D280E090E05F
:1001500084DF81DF64E08AE03BD264E08BE238D266
:1001600064E080E135D280E090E077DF74DF64E026
:100170008AE02ED264E08CE22BD264E083E028D2C5
:1001800080E090E06ADF67DF64E08AE021D264E02B
:100190008DE21ED264E08AE01BD280E090E05DCF69
:1001A000CF93DF9358DF64E08BE012D264E084E108
:1001B0000FD264E080E00CD2C82F64E080E008D267
:1001C000D82F80E090E049DF6C2F70E07D2B072E68
:1001D000000C880B990B8FDA28EB3EE145E85DE3D4
:1001E000EEDA56DA60935C0170935D0180935E01F4
:1001F00090935F01DF91CF9108950F931F93CF9359
:100200002ADF64E08BE0E4D164E08BE0E1D164E0DC
:1002100080E0DED1C82F80E090E01FDF1CDF64E0CB
:100220008BE0D6D164E08EE0D3D164E080E0D0D121
:1002300080938B0164E080E0CBD18093750164E012
:1002400080E0C6D18093760164E080E0C1D18093E4
:100250004C0164E080E0BCD18093590164E080E00F
:10026000B7D18093610180E090E0F7DE20917501C5
:1002700080918B0190E0922B90934F0180934E01DF
:1002800020914C018091760190E0922B9093740123
:1002900080937301209161018091590190E0922B2C
:1002A000909368018093670140914E0150914F01F6
:1002B0000091940110919501209173013091740186
:1002C000A0919401B091950180916701909168018E
:1002D000609194017091950157FF03C0519541952C
:1002E0005109E1E00417150708F0E0E037FF03C00B
:1002F00031952195310941E0A217B30708F040E09C
:100300004E2B59F497FF03C09195819591099B015C
:1003100028513C4F2817390708F4C0618C2FCF9122
:100320001F910F91089597DE64E08AE051D164E057
:1003300080E24ED18091640164E04AD180E090E097
:100340008CDE89DE64E08AE043D164E081E240D162
:100350008091500164E03CD180E090E07ECECF936C
:10036000DF9379DE64E08BE033D164E08CE030D160
:1003700064E080E02DD1C82F64E080E029D1D0E096
:10038000D82B80E090E069DECE01DF91CF91089517
:10039000089555980895892B09F0FBCF559A089533
:1003A000F8DF61E080ED14D161E080EC11D180E0F4
:1003B00090E0F1CFCF93DF9300D0CDB7DEB7E9DF88
:1003C00061E083EC05D161E080E002D161E080E092
:1003D000FFD08A8361E080E0FBD089838A818981B4
:1003E00061E080E0F5D090E0982F8827909363013A
:1003F0008093620161E080E0EBD020916201309156
:100400006301282B309363012093620180E090E028
:10041000C2DF0F900F90DF91CF9108951F93CF937C
:10042000DF93162FC82FD0E0862F90E0F4E0880FDE
:10043000991FFA95E1F78C0F9D1F4CE050E020E0EA
:1004400030E061E070E0FC01E623F723EF2B11F0D0
:100450002F5F3F4F660F771F41505109A1F784E08E
:10046000CC0FDD1F8A95E1F7DD2720FD02C028961D
:1004700001C024968EDF61E087E8AAD061E0812F79
:10048000A7D061E08C2FA4D080E090E0DF91CF91E5
:100490001F9181CF7EDF61E08EE89AD061E080EB32
:1004A00097D061E080E094D08093830180E090E079
:1004B00072DF6FDF61E08EE88BD061E080EC88D086
:1004C00061E080E085D080934D0180E090E063CFD3
:1004D00060DF61E080EF7CD061E080E079D080E097
:1004E00090E059CF57980895892B09F0FBCF579A80
:1004F0000895892BF1F01092C5001092C40081EF8D
:1005000089B983EC8093C20088E18093C10088E0C0
:1005100090E09093C5008093C40080E090E0E4DF19
:1005200080E090E038DF80E090E097DD80E090E0D0
:100530002FCF0895D7DF80E090E0D6CF843039F018
:10054000803141F08130B1F4109201010895109290
:10055000020108958091050190910601892B61F0B7
:100560008091050190910601019790930601809377
:1005700005010895109200010895843051F08031F2
:1005800071F08130F9F4809101018F5F8093010156
:100590000895809102018F5F8093020108958091F8
:1005A0000501909106010196909306018093050143
:1005B000809103019091040101969093040180932E
:1005C00003010895809100018F5F809300010895D9
:1005D000CF93DF9390918901911143C0C62FD82FFB
:1005E00081E080936B018093930116BC80916E0033
:1005F000826080936E008091C00085FD07C080916D
:100600006B018111F8CF8C2F90E0B7DF80916E00E5
:100610008D7F80936E00A99AD093C60081E080936D
:100620006B018093930116BC80916E008260809371
:100630006E008091C00087FD07C080916B01811121
:10064000F8CF8C2F90E099DF80916E008D7F8093A2
:100650006E00A99A80916B01882331F08C2F6EDF98
:1006600003C081E080936A018091C600DF91CF9141
:10067000089538DF60E180E4ABDF60E180E0A8DF6F
:1006800060E181E6A5DF80E090E02EDF2BDF60E116
:1006900080E49EDF60E18CE09BDF60E181E298DF37
:1006A00080E090E021CF1EDF60E180E491DF60E137
:1006B00088E08EDF60E180E48BDF80E090E014DF93
:1006C00011DF60E180E484DF60E186E081DF60E1EA
:1006D00080E47EDF80E090E007DF04DF60E180E41B
:1006E00077DF60E18AE074DF60E180E071DF80E065
:1006F00090E0FADEF7DE60E181E46ADF60E182E14A
:1007000067DF60E180E064DF80E090E0EDDEEADE5C
:1007100060E181E45DDF60E180E15ADF60E180E07B
:1007200057DF80E090E0E0DEDDDE60E180E450DF76
:1007300060E184E04DDF60E180E44ADF80E090E04A
:10074000D3CED0DE60E181E443DF60E180E140DFD1
:1007500060E180E03DDF80E090E0C6CECF93C2DE76
:1007600060E181E435DF60E182E132DF60E180E079
:100770002FDFC82F80E090E0B7DE8C2FCF91089557
:10078000CF93C82FAFDE60E180E422DF60E182E139
:100790001FDF60E18C2F1CDF80E090E0A5DEA2DE91
:1007A00060E180E415DF60E184E112DF60E18C2F1D
:1007B0000FDF80E090E0CF9197CE179A16980895BA
:1007C000169A179808958EBD0DB407FEFDCF0895B3
:1007D00080934A0180FF04C091E09093650102C0BC
:1007E0001092650181FF04C091E09093690102C0FD
:1007F0001092690182FF04C091E09093560102C0FB
:100800001092560183FF04C081E080934B0103C026
:1008100010924B011DBA80914A0185FF04C081E00E
:100820008093700102C01092700110926C011198B7
:100830001298C6DF80E090E0FC01E65CFE4F10827B
:10084000FC01EC5CFE4F1082FC01E25DFE4F108269
:1008500001968530910581F708951F920F920FB68A
:100860000F921124CF93DF9300D0CDB7DEB71A8259
:1008700019820F900F90DF91CF910F900FBE0F90C4
:100880001F9018951F920F920FB60F9211248F93FD
:100890009F93EF93FF9381E080938901EEE6F0E070
:1008A00090819D7F908310926B0110927101109244
:1008B000850010928400ECE6F0E09081977F9083B1
:1008C0001092510180935B0199E09093770110920F
:1008D000660180936F01EFE6F0E0808182608083A3
:1008E000FF91EF919F918F910F900FBE0F901F90EE
:1008F00018951092690081E08DBB78940895CF938C
:10090000DF93119A81E080936C01809164008B7F6A
:100910008093640089E08DB9489A81E58CBD159A71
:100920004CDF159881E04FDF80E44DDF159A159874
:1009300082E049DF80E047DF80E045DFCFEFDFE1A5
:1009400080E041DF2197E1F7159A8CB58F7B8CBD54
:1009500080916400846080936400DF91CF9108955A
:100960001F920F920FB60F9211242F933F934F9324
:100970005F936F937F938F939F93AF93BF93CF9327
:10098000EF93FF93C1E0C093890180916E008D7F4A
:1009900080936E0010926B011092710180914B0157
:1009A0008823F1F0809149018535D1F480911501BA
:1009B000811116C0F894A3DF1DBA789488E0E0DEB8
:1009C000C0DEC0936C01C0931501E091400181E04D
:1009D0008E0F80934001F0E0E65CFE4F88E080835C
:1009E000FF91EF91CF91BF91AF919F918F917F91A7
:1009F0006F915F914F913F912F910F900FBE0F908C
:100A00001F901895809385011092550181E0809385
:100A10005B018093570110928500109284008093AF
:100A2000890180916F00826080936F0080915701EF
:100A30008111FCCF08950F931F93CF93DF9300D0C4
:100A4000CDB7DEB7809166018134C9F510926E0191
:100A500090916E0180915101911102C08823C1F3E0
:100A60000091660110926E0180915101813041F434
:100A700010E0102F00271092510185E1C3DF05C05F
:100A80000091660110E0102F002790916E01809177
:100A90005101911102C08823C1F310926E0180911F
:100AA0005101882319F085E1ADDF03C08091660113
:100AB000082B109382010093810184E1A3DF8091D0
:100AC00066018234F1F410926E0190916E01809172
:100AD0005101911102C08823C1F310926E018091DF
:100AE0005101813029F41092510185E18BDF09C059
:100AF00084E188DF8091660190E090938801809383
:100B00008701809166018334F1F410926E01909117
:100B10006E0180915101911102C08823C1F310929E
:100B20006E0180915101813029F41092510185E1CB
:100B300069DF09C084E166DF8091660190E09093EF
:100B40008D0180938C0180916601843409F05BC033
:100B50001A82198210926E0181E080938601909131
:100B60006E0180915101911102C08823C1F38091DF
:100B700066018A8310926E0180915101813039F4AF
:100B8000109251011092860185E13CDF03C08091F3
:100B900066018A8390916E0180915101911102C08A
:100BA0008823C1F310926E0180915101882329F0AE
:100BB0001092860185E126DF03C08091660189835A
:100BC000809186018823F9F08A818093640189816C
:100BD000809350011092860184E114DF1092890104
:100BE000209150018091640190E0922B90939501A7
:100BF0008093940180EC8093C2008091C2008D7F2D
:100C00008093C20090DB80916601853401F51092DB
:100C10006E0190916E0180915101911102C0882363
:100C2000C1F310926E0180915101813029F410922C
:100C3000510185E1E7DE0BC01091660180914A0108
:100C4000182B10934A0184E1DDDE812FC1DD8091F4
:100C50006601863409F510926E0190916E018091C3
:100C60005101911102C08823C1F310926E0180914D
:100C70005101813029F41092510185E1C3DE0CC08D
:100C800010916601109580914A01182310934A0132
:100C900084E1B8DE812F9CDD809166018F34E9F418
:100CA00010926E0190916E0180915101911102C0DC
:100CB0008823C1F310926E0180915101813021F49B
:100CC0001092510185E108C080916601882311F0DE
:100CD000569A01C0569884E195DE8091660187346A
:100CE00079F410926E018091620190916301892FD5
:100CF00089DE809162019091630184DE84E182DE6D
:100D0000809166018834B9F410926E0180915C0183
:100D100090915D01A0915E01B0915F01892F72DE1B
:100D200080915C0190915D01A0915E01B0915F01A5
:100D300069DE84E167DE809166018D3481F4109272
:100D40006E010DDB80910E0190910F01892F5ADE0B
:100D500080910E0190910F0155DE84E153DE809168
:100D600066018E34B1F410926E01809175014ADEF5
:100D700080918B0147DE80914C0144DE80917601A9
:100D800041DE809161013EDE809159013BDE84E1CC
:100D900039DE809166018A3479F410926E0110DD9B
:100DA00085E58093490180914B01882319F01092C9
:100DB00015019FDD84E126DE80916601813571F5A4
:100DC00010926E0100E010E0F801E65CFE4F8081B9
:100DD00019DEF801EC5CFE4F808114DEF801E25D63
:100DE000FE4F80810FDEF801E85DFE4F80810ADE54
:100DF000F801EE5DFE4F808105DEF801E45EFE4FF6
:100E0000808100DEF801EA5EFE4F8081FBDD0F5F2E
:100E10001F4F05301105C1F684E1F4DD80916601B4
:100E20008C34D1F410926E0100E010E0F801E65C21
:100E3000FE4F8081E7DDF801EC5CFE4F8081E2DD52
:100E4000F801E25DFE4F8081DDDD0F5F1F4F053051
:100E5000110561F784E1D6DD809166018B3451F490
:100E600010926E0180916C01813011F485E101C016
:100E700084E1C8DD80916601803589F410926E01AD
:100E800080914901BFDD8091470190914801BADD11
:100E90008091450190914601B5DD84E1B3DD8091FB
:100EA0006601823571F510926E0180915601AADDBE
:100EB00080916501A7DD80916901A4DD80914B01DE
:100EC000A1DD809170019EDD809150019BDD8091BC
:100ED000640198DD8091810190918201892F92DDDA
:100EE00080918101909182018DDD809187019091A7
:100EF000880188DD80918C0190918D0183DD84E1F2
:100F000081DD109289010F900F90DF91CF911F9199
:100F10000F91089580914301853148F080916501DA
:100F2000882329F081E08093340180936C018091C3
:100F30004401853170F080915601811104C0809187
:100F40006901882331F084E08093340181E080934B
:100F50006C018091470190914801893C910550F0C6
:100F600080914B01882331F080E18093340181E04E
:100F700080936C0180914101853130F080E880934D
:100F8000340181E080936C010895EF92FF920F93FA
:100F90001F93CF93DF9300D0CDB7DEB71A821982AB
:100FA00083EC8093C20011E008EC84E1F82E99EB09
:100FB000E92E8A8187FD2FC05CDB80915201806819
:100FC000DFDB71DBCBDB8A8389818F5F898389815A
:100FD000863150F0809145019091460101969093A1
:100FE00046018093450117C01093710107BDF0922F
:100FF000840116BC80916E00826080936E008091A7
:1010000071018111F7CF80916E008D7F80936E000A
:10101000A99AE7BCCECF0F900F90DF91CF911F918F
:101020000F91FF90EF900895CF93DF931F92CDB76C
:10103000DEB7C3DB8FEE81B987EF85B987E0809398
:10104000680080916B00806180936B0088E087B9B5
:1010500080916C00886080936C00789410924A01B3
:101060001092490110926C0119821092570110924E
:101070006F01109285011092550110924301109258
:1010800044011092480110924701109246011092BB
:101090004501109242011092410110928901109273
:1010A0006A011092530110920D0110920C011092DE
:1010B0000B0110920A01109209011092080110927E
:1010C0000701109215011092140110921301109251
:1010D0001201109211011092100181E080934001E1
:1010E00010928E01339A329A80936D0116BC92E869
:1010F00094BD85BD29EB27BD109285001092840018
:1011000090938000809381008BEA90E09093890017
:101110008093880081E090E0ECD9109A0BDA35DFFB
:10112000D7D964E870E08DE090E078D9B3D980EC4D
:101130008093C2008091C2008D7F8093C20092D7BD
:101140009ED73EDB10926E01789403EC11E080ECA8
:10115000F82E92E0E92E24E0D22E30E2C32E8091C8
:101160006E01813029F410926E0180935B0163DC83
:1011700080914901853599F7809189018111EFCFDF
:101180001098C8DE0093C200E9DA8983898187FD5F
:1011900002C0FBDE5BC08091470190914801892B22
:1011A00049F080914701909148010197909348013F
:1011B0008093470180916A0181113FC0898185FD3B
:1011C0000FC080910C018F5F80930C0180910C0106
:1011D000853658F010930D0110920C01129A05C03B
:1011E00010920C0110920D011298898180FD22C08D
:1011F000809108018F5F80930801809108018536F6
:10120000F0F08091100181111AC080917001882343
:10121000B1F010936C01E091400181E08E0F80935A
:101220004001F0E0E65CFE4FC08210931001109286
:10123000700105C01092080102C010926A018091ED
:101240000D01882311F0B9DA01C0BADA8091560194
:10125000882309F466C080918901811162C0F092EF
:10126000C2008091C2008D7F8093C200C6D784FDEA
:1012700002C087FF52C080916A0181114EC08091E7
:1012800009018F5F8093090180910901873008F47B
:1012900048C080911401811144C0E0914001F0E008
:1012A000E65CFE4FD082E0914001F0E080918B013E
:1012B000EC5CFE4F8083E0914001F0E0809175018D
:1012C000E25DFE4F8083E0914001F0E08091760185
:1012D000E85DFE4F8083E0914001F0E080914C0199
:1012E000EE5DFE4F8083E0914001F0E08091590176
:1012F000E45EFE4F8083E091400181E08E0F809399
:101300004001F0E080916101EA5EFE4F8083F7DAF0
:10131000109256011093140104C010926A011092A9
:10132000090180916901882309F477C080918901BE
:10133000811173C0F092C2008091C2008D7F8093B2
:10134000C2002ED7409187015091880140905C01E6
:1013500050905D0160905E0170905F0180918C0102
:1013600090918D0180905C0190905D01A0905E0154
:10137000B0905F01052E000C660B770B44155505E8
:10138000660577054CF0092E000CAA0BBB0B8816DE
:101390009906AA06BB06ECF580916A01811139C055
:1013A00080910B018F5F80930B0180910B018A313B
:1013B000A0F180911301811130C0E0914001F0E073
:1013C000E65CFE4FE082E0914001F0E080915C013C
:1013D00090915D01A0915E01B0915F01EC5CFE4FC8
:1013E0001082E091400181E08E0F80934001F0E097
:1013F00080915C0190915D01A0915E01B0915F01CF
:10140000E25DFE4F80831093130179DA1092690137
:1014100004C010920B0110926A018091650188232B
:1014200009F461C08091890181115DC00093C200FF
:1014300080915301811101C0B3D78091530188235A
:1014400019F0B8D710938E018091530181278093B2
:10145000530120916201309163018091810190914B
:10146000820182179307D8F580916A01811137C0F4
:1014700080918E01882399F180910A018F5F80937A
:101480000A0180910A01873038F18091120181119F
:1014900023C0E0914001F0E0E65CFE4F10838091B4
:1014A000620190916301E0914001F0E0EC5CFE4F3D
:1014B0001082E091400181E08E0F80934001F0E0C6
:1014C0008091620190916301E25DFE4F808317DAA3
:1014D000109312011092650110928E0104C01092B7
:1014E0000A0110926A011092070139CE1F920F92E1
:1014F0000FB60F9211242F933F934F935F938F93C7
:101500009F93109285001092840020916F012223F6
:1015100009F447C020915B01222331F080915B01E7
:10152000815080935B013DC02091770130E02230F3
:101530003105A4F024B1509177014091660123FB5D
:10154000882780F929E030E0251B310901C0880F88
:101550002A95EAF7842B809366011EC0809177015B
:1015600081111AC081E0239B07C080936E0192B164
:1015700088E0892782B904C08093510110928901C3
:1015800080916F008D7F80936F0080916C008860E8
:1015900080936C0010926F0180917701815080934D
:1015A000770180915701882379F180915B01813027
:1015B00021F410925B01329827C080915501883048
:1015C00080F4809185012091550190E002C09595AD
:1015D00087952A95E2F780FF02C0329A10C03298B0
:1015E0000EC080915501883051F4329A80916F007D
:1015F0008D7F80936F001092570110928901809126
:1016000055018F5F809355019F918F915F914F910D
:101610003F912F910F900FBE0F901F9018951F9222
:101620000F920FB60F9211248F9316BC80916E000B
:101630008D7F80936E00A99A80916B01882359F069
:101640008091930181508093930180919301811146
:1016500002C010926B0180917101882389F0809102
:10166000840181508093840180918401811103C0A1
:101670001092710105C080916E00826080936E00AF
:10168000109260018F910F900FBE0F901F901895D0
:1016900004D06894B1118DC0089570D088F09F5720
:1016A00090F0B92F9927B751A0F0D1F0660F771FAE
:1016B000881F991F1AF0BA95C9F712C0B13081F08E
:1016C00077D0B1E0089574C0672F782F8827B85F6E
:1016D00039F0B93FCCF3869577956795B395D9F7EF
:1016E0003EF490958095709561957F4F8F4F9F4FF9
:1016F0000895E89409C097FB3EF490958095709505
:1017000061957F4F8F4F9F4F9923A9F0F92F96E94D
:10171000BB279395F695879577956795B795F111C2
:10172000F8CFFAF4BB0F11F460FF1BC06F5F7F4F5F
:101730008F4F9F4F16C0882311F096E911C0772371
:1017400021F09EE8872F762F05C0662371F096E87A
:10175000862F70E060E02AF09A95660F771F881F49
:10176000DAF7880F9695879597F9089557FD905861
:10177000440F551F59F05F3F71F04795880F97FB55
:10178000991F61F09F3F79F087950895121613060F
:101790001406551FF2CF4695F1DF08C0161617063E
:1017A0001806991FF1CF8695710561050894089573
:1017B000E894BB2766277727CB0197F908950AD0CD
:1017C00080C071D028F076D018F0952309F062C05F
:1017D00067C0EFCFCBDFA8F39923D9F35523C9F323
:1017E000950F50E0551FAA27EE27FF27BB2700249F
:1017F0000894679520F4E20FF31FB41F0A1E220F0E
:10180000331F441FAA1F6695A9F7779530F4F30F8D
:10181000B41F0A1E121E08F46395330F441FAA1F3B
:10182000221F769599F7879520F4B40F0A1E121E91
:10183000631F440FAA1F221F331F8695A9F7862F07
:10184000712D602D11249F5750408AF0E1F08823BC
:101850004AF0EE0FFF1FBB1F661F771F881F9150B6
:101860005040A9F79E3F510570F014C0A2CF5F3FD2
:10187000ECF3983EDCF3869577956795B795F795E9
:10188000E7959F5FC1F7FE2B880F911D9695879571
:1018900097F9089597F99F6780E870E060E00895F0
:1018A0009FEF80EC089500240A9416161706180678
:1018B0000906089500240A94121613061406050654
:1018C0000895092E0394000C11F4882352F0BB0FE5
:1018D00040F4BF2B11F460FF04C06F5F7F4F8F4F48
:0818E0009F4F0895F894FFCF1B
:00000001FF
