:1000000019C08EC427C0FEC312C424C023C022C09E
:1000100021C06ECA1FC01EC0CFC91CC01BC01AC0E1
:1000200019C018C017C016C015C014C013C012C024
:1000300011C010C011241FBECFEFD2E0DEBFCDBF74
:1000400021E0A0E0B1E001C01D92AB33B207E1F7BF
:10005000C5D890CAD5CF892B11F4549A08955498D5
:100060000895CF93C0911E01549864E08AE003D1B3
:1000700064E080E200D164E08C2FFDD064E080E099
:10008000FAD0549AC0911101549864E08AE0F3D0F8
:1000900064E081E2F0D064E08C2FEDD064E080E099
:1000A000EAD0549A549864E08AE0E5D064E082E2B1
:1000B000E2D064E085E0DFD064E080E0DCD0549AF8
:1000C000549864E08AE0D7D064E08CE2D4D064E055
:1000D00081E1D1D064E080E0CED0549A549864E0BD
:1000E0008AE0C9D064E087E2C6D064E083E0C3D090
:1000F00064E080E0C0D0549A549864E08AE0BBD0B9
:1001000064E08BE2B8D064E080E9B5D064E080E0E0
:10011000B2D0549A549864E08AE0ADD064E08DE2A5
:10012000AAD064E08AE0A7D064E080E0A4D0549A2A
:10013000CF910895549864E08BE09DD064E08DE009
:100140009AD064E080E097D0549A0895892B11F4F6
:10015000569A089556980895892B11F4559A089542
:1001600055980895559861E080ED85D061E080E66E
:1001700082D0559A0895CF93DF93559861E083EC30
:100180007AD061E080E077D061E080E074D0C82F61
:10019000D0E0DC2FCC2761E080E06DD0C82B61E09F
:1001A00080E069D090E0982F882790931D0180937C
:1001B0001C0161E080E05FD020911C0130911D01A5
:1001C000282B30931D0120931C01559A209110017A
:1001D0006091330130E020523109C901880F991F25
:1001E00082959295907F9827807F9827820F931F02
:1001F000880F991F820F931F8150924D8C1B9D0B6E
:1002000070E06D5C7F4F8FD9625E7F4F70931A01F3
:1002100060931901DF91CF910895559861E087E8C7
:100220002AD061E084E827D061E084ED24D0559A9B
:100230000895892B09F408951092C5001092C40006
:1002400081EF89B983EC8093C20088E18093C1007B
:1002500088E090E09093C5008093C400579A80E0B6
:1002600090E07ADF80E090E0F6DE80E090E06ECF14
:100270005798579A089591E090931B01109285002A
:100280001092840090916F00926090936F00909113
:10029000C00095FFFCCF8093C60081E080931B01D6
:1002A000109285001092840080916F00826080938C
:1002B0006F008091C00087FFFCCF80911B018823D5
:1002C00049F0643079F098F0603139F06032B1F47F
:1002D000109201018091C60008951092040180914E
:1002E000C6000895109203018091C6000895613000
:1002F00029F4109202018091C60008951092000125
:100300008091C6000895579881E080931B01109258
:1003100085001092840080916F00826080936F004E
:100320008091C00085FFFCCF80E48093C60081E00F
:1003300080931B01109285001092840080916F00C1
:10034000826080936F008091C00087FFFCCF809116
:100350001B018111109204018091C60081E08093FD
:100360001B01109285001092840080916F008260C2
:1003700080936F008091C00085FFFCCF1092C60073
:1003800081E080931B01109285001092840080917F
:100390006F00826080936F008091C00087FFFCCF68
:1003A00080911B018111109204018091C60081E0AF
:1003B00080931B01109285001092840080916F0041
:1003C000826080936F008091C00085FFFCCF81E642
:1003D0008093C60081E080931B01109285001092EB
:1003E000840080916F00826080936F008091C000D4
:1003F00087FFFCCF80911B01811110920401809135
:10040000C600579A0895579881E080931B01109277
:1004100085001092840080916F00826080936F004D
:100420008091C00085FFFCCF81E48093C60081E00D
:1004300080931B01109285001092840080916F00C0
:10044000826080936F008091C00087FFFCCF809115
:100450001B018111109204018091C60081E08093FC
:100460001B01109285001092840080916F008260C1
:1004700080936F008091C00085FFFCCF80E1809366
:10048000C60081E080931B011092850010928400C9
:1004900080916F00826080936F008091C00087FF21
:1004A000FCCF80911B018111109204018091C60044
:1004B00081E080931B01109285001092840080914E
:1004C0006F00826080936F008091C00085FFFCCF39
:1004D0001092C60081E080931B011092850010925B
:1004E000840080916F00826080936F008091C000D3
:1004F00087FFFCCF80911B01811110920401809134
:10050000C600579A0895579881E080931B01109276
:1005100085001092840080916F00826080936F004C
:100520008091C00085FFFCCF81E48093C60081E00C
:1005300080931B01109285001092840080916F00BF
:10054000826080936F008091C00087FFFCCF809114
:100550001B018111109204018091C60081E08093FB
:100560001B01109285001092840080916F008260C0
:1005700080936F008091C00085FFFCCF8EE0809358
:10058000C60081E080931B011092850010928400C8
:1005900080916F00826080936F008091C00087FF20
:1005A000FCCF80911B018111109204018091C60043
:1005B00081E080931B01109285001092840080914D
:1005C0006F00826080936F008091C00085FFFCCF38
:1005D0001092C60081E080931B011092850010925A
:1005E000840080916F00826080936F008091C000D2
:1005F00087FFFCCF80911B01811110920401809133
:10060000C600579A0895579891E090931B01109255
:1006100085001092840090916F00926090936F001B
:100620009091C00095FFFCCF90E49093C60091E0BC
:1006300090931B01109285001092840090916F009E
:10064000926090936F009091C00097FFFCCF9091C3
:100650001B019111109204019091C60091E09093BA
:100660001B01109285001092840090916F0092609F
:1006700090936F009091C00095FFFCCF92E1909312
:10068000C60091E090931B011092850010928400A7
:1006900090916F00926090936F009091C00097FFCF
:1006A000FCCF90911B019111109204019091C60012
:1006B00091E090931B01109285001092840090911C
:1006C0006F00926090936F009091C00095FFFCCFF7
:1006D0008093C60091E090931B01109285001092C8
:1006E000840090916F00926090936F009091C00091
:1006F00097FFFCCF90911B019111109204019091F2
:10070000C600579A579891E090931B01109285006C
:100710001092840090916F00926090936F0090917E
:10072000C00095FFFCCF90E49093C60091E09093B9
:100730001B01109285001092840090916F009260CE
:1007400090936F009091C00097FFFCCF90911B0198
:100750009111109204019091C60091E090931B01B9
:10076000109285001092840090916F009260909397
:100770006F009091C00095FFFCCF94E19093C6006C
:1007800091E090931B01109285001092840090914B
:100790006F00926090936F009091C00097FFFCCF24
:1007A00090911B019111109204019091C60091E06B
:1007B00090931B01109285001092840090916F001D
:1007C000926090936F009091C00095FFFCCF809352
:1007D000C60081E080931B01109285001092840076
:1007E00080916F00826080936F008091C00087FFCE
:1007F000FCCF80911B018111109204018091C600F1
:10080000579A08951F920F920FB60F921124CF930B
:10081000DF9300D0CDB7DEB71A8219820F900F9008
:10082000DF91CF910F900FBE0F901F9018951F92E0
:100830000F920FB60F9211248F939F93EF93FF9314
:1008400016BCECE6F0E08081877F80831092120175
:1008500081E08093180199E0909327011092200184
:1008600080932501EEE6F0E0808182608083FF9135
:10087000EF919F918F910F900FBE0F901F90189541
:10088000139A809164008B7F8093640089E08DB916
:10089000489A81E58CBD159A179A1698159881E0AB
:1008A0008EBD0DB407FEFDCF80E48EBD0DB407FEF6
:1008B000FDCF159A159882E08EBD0DB407FEFDCFD1
:1008C0001EBC0DB407FEFDCF1EBC0DB407FEFDCF50
:1008D0008FEF9FE11EBC0DB407FEFDCF0197D1F74E
:1008E000159A169A17988CB58F7B8CBD80916400F1
:1008F000846080936400139892B181E0982792B944
:1009000092B1982792B992B1982792B992B198274B
:1009100092B992B1982792B992B1892782B9089574
:100920001F920F920FB60F9211242F933F934F9364
:100930005F936F937F938F939F93AF93BF93EF9347
:10094000FF9380910F01882321F080910D0185355F
:1009500089F0FF91EF91BF91AF919F918F917F911E
:100960006F915F914F913F912F910F900FBE0F901C
:100970001F901895F89484DF88E045DE44DD179ACF
:1009800016987894E6CF80912001813409F4CDC285
:1009900080912001823409F49AC28091200183342D
:1009A00009F467C280912001843409F4F5C1809173
:1009B0002001853409F493C180912001863409F423
:1009C00030C180912001873409F4E6C08091200174
:1009D000883409F49CC0809120018A3409F47BC0DA
:1009E000809120018C3409F1809120018B3409F031
:1009F00008951092240180912201813009F400C3EE
:100A000084E1809334011092150181E080931801F4
:100A10008093170116BC80916E00826080936E00F7
:100A2000809117018111FCCF0895109224018091CB
:100A30000701809334011092150181E08093180121
:100A40008093170116BC80916E00826080936E00C7
:100A5000809117018111FCCF8091060180933401B0
:100A60001092150181E0809318018093170116BC44
:100A700080916E00826080936E00809117018111D9
:100A8000FCCF80910501809334011092150181E023
:100A9000809318018093170116BC80916E008260CC
:100AA00080936E00809117018111FCCF84E18093C7
:100AB00034011092150181E0809318018093170191
:100AC00016BC80916E00826080936E008091170149
:100AD0008111FCCF89CF10922401169A179885E5D1
:100AE00080930D0184E1809334011092150181E01F
:100AF000809318018093170116BC80916E0082606C
:100B000080936E00809117018111FCCF69CF109204
:100B100024018091190190911A019093340110924F
:100B2000150181E0809318018093170116BC809114
:100B30006E00826080936E00809117018111FCCF5E
:100B40008091190190911A0180933401109215013E
:100B500081E0809318018093170116BC80916E008C
:100B6000826080936E00809117018111FCCF84E137
:100B7000809334011092150181E0809318018093D5
:100B8000170116BC80916E00826080936E00809188
:100B900017018111FCCF1FCF1092240180911C01FD
:100BA00090911D01909334011092150181E0809382
:100BB00018018093170116BC80916E0082608093AB
:100BC0006E00809117018111FCCF80911C019091E2
:100BD0001D01809334011092150181E0809318016A
:100BE0008093170116BC80916E00826080936E0026
:100BF000809117018111FCCF84E180933401109220
:100C0000150181E0809318018093170116BC809133
:100C10006E00826080936E00809117018111FCCF7D
:100C2000D5CE109224018091240190911201882345
:100C3000B1F110922401809112018130C1F18091B3
:100C40002001809590910E01892380930E0180FFF1
:100C500051C291E090931F0181FF49C291E09093AE
:100C6000210182FF41C291E09093160183FD4EC2A3
:100C700010920F0184E1809334011092150181E0FC
:100C8000809318018093170116BC80916E008260DA
:100C900080936E00809117018111FCCF92CE992331
:100CA00011F21092240180911201813041F61092CC
:100CB00012011092260195E19093340110921501D2
:100CC000809318018093170116BC80916E0082609A
:100CD00080936E00809117018111FCCF72CE10922B
:100CE000240180912401909112018823A9F110928E
:100CF0002401809112018130B9F1909120018091FD
:100D00000E01892B80930E0180FFFDC191E090932D
:100D10001F0181FFF5C191E09093210182FFEDC198
:100D200091E09093160183FDF5C110920F0184E1CB
:100D3000809334011092150181E080931801809313
:100D4000170116BC80916E00826080936E008091C6
:100D500017018111FCCF30CE992319F21092240192
:100D600080911201813049F61092120110922601F1
:100D700095E19093340110921501809318018093AE
:100D8000170116BC80916E00826080936E00809186
:100D900017018111FCCF10CE1092240181E08093C5
:100DA000350180912401909112018823E9F120916D
:100DB00020011092240180911201813009F434C184
:100DC0008091200190E0382F22278091240190917A
:100DD0001201882369F1109224018091120181117E
:100DE0002FC08091200140913501442309F4DFCDCB
:100DF00020931E01809311011092350132D984E1B4
:100E0000809334011092150181E080931801809342
:100E1000170116BC80916E00826080936E008091F5
:100E200017018111FCCFC3CD992309F4BACFBFCFED
:100E3000992359F21092240180911201882389F29A
:100E40001092350185E1809334011092150181E003
:100E5000809318018093170116BC80916E00826008
:100E600080936E00809117018111FCCF80E090E0AB
:100E7000BACF10922401809124019091120188230D
:100E800019F11092240180911201813009F4E4C01B
:100E900084E1809334011092150181E08093180160
:100EA0008093170116BC80916E00826080936E0063
:100EB000809117018111FCCF8091200190E09093E7
:100EC0003701809336016ECD9923A9F2DACF1092C3
:100ED00024018091240190911201882319F110922C
:100EE000240180911201813009F4E6C084E18093ED
:100EF00034011092150181E080931801809317014D
:100F000016BC80916E00826080936E008091170104
:100F10008111FCCF8091200190E090933701809364
:100F200036013BCD9923A9F2DACF1092240181E05A
:100F30008093260180912401909112018823E9F188
:100F4000209120011092240180911201813009F436
:100F50009BC02091200130E0322F22278091240174
:100F600090911201882369F110922401809112015D
:100F700081112FC080912001282B80912601882388
:100F800009F406CD309332012093310110922601ED
:100F900084E1809334011092150181E0809318015F
:100FA0008093170116BC80916E00826080936E0062
:100FB000809117018111FCCFEBCC992309F4BACFB2
:100FC000BFCF992359F210922401809112018823F6
:100FD00089F21092260185E1809334011092150167
:100FE00081E0809318018093170116BC80916E00F8
:100FF000826080936E00809117018111FCCFBDCF7C
:1010000095E190933401109215018093180180931B
:10101000170116BC80916E00826080936E008091F3
:1010200017018111FCCF0895109212011092350121
:1010300095E19093340110921501809318018093EB
:10104000170116BC80916E00826080936E008091C3
:1010500017018111FCCFB9CE109212011092260116
:1010600095E19093340110921501809318018093BB
:10107000170116BC80916E00826080936E00809193
:1010800017018111FCCF8ECC109212011092260113
:1010900095E190933401109215018093180180938B
:1010A000170116BC80916E00826080936E00809163
:1010B00017018111FCCF4FCF10921201109226011F
:1010C00095E190933401109215018093180180935B
:1010D000170116BC80916E00826080936E00809133
:1010E00017018111FCCF59CC10921601BFCD10927F
:1010F0002101B7CD10921F01AFCD1092160113CE72
:10110000109221010BCE10921F0103CE81E080933B
:101110000F01B0CD81E080930F0109CE80910A01CB
:10112000853178F080911F01882309F451C080E453
:101130008093070181E0809306011092050180935E
:10114000220180910B01853120F0809116018111DF
:1011500033C080910C01853120F080910F01811105
:101160001FC080910901853158F080E48093070108
:1011700080E2809306011092050181E080932201B4
:1011800080910801853158F080E48093070180E860
:10119000809306011092050181E080932201089559
:1011A00080E48093070180E180930601109205019D
:1011B00081E080932201D5CF80E48093070184E011
:1011C000809306011092050181E080932201C1CF36
:1011D00080912101882309F4B4CFA9CF179A1698DA
:1011E0008FEE81B987EF85B987E0809368008091A1
:1011F0006B00806180936B00569A88E087B980917C
:101200006C00886080936C0078948FEF80930E015F
:1012100010920D01109222011092170110922501D7
:10122000109234011092150110920A0110920B01D4
:1012300010920C011092090110920801339AC1E03A
:10124000C093230180E180931301569A16BC82E873
:1012500084BDC5BD94EB97BD1092850010928400AB
:1012600080938000C093810080ED97E09093890087
:101270008093880081E090E0DCD7FAD744D943D846
:10128000809113018260BFD980911301BCD93BD9F1
:10129000E8D6C3D7C2D766D765D764D7169A17984A
:1012A00082B18F6082B982B1807F82B980E590E09F
:1012B00090931A018093190185E59AEA90931D0194
:1012C00080931C0110926900CDBB10922401789488
:1012D00014E0D2E004C080910D01853569F0809161
:1012E00024018130C1F710922401809318014BDB57
:1012F00080910D01853599F711DF1CD784FF04C05B
:1013000080911601811154C02DD735D72091190134
:1013100030911A0180913601909137016091190145
:1013200070911A014091390150913A018217930747
:1013300044F58091210181112BC020911C01309135
:101340001D0180913101909132018217930738F687
:1013500080911F01882319F2C093070180911C011D
:1013600090911D01992721E009970CF420E020932A
:10137000060180911C0190911D018093050180DA86
:10138000AECF64177507CCF6809121018823A9F2AE
:10139000D09307018091190190911A0110920601D2
:1013A0008091190190911A018093050169DAC5CFE6
:1013B0001093070165DAA8CF1F920F920FB60F9214
:1013C00011242F933F934F935F938F939F9316BC5A
:1013D0009AB180E489278AB980912501882349F050
:1013E00080911801882379F18091180181508093B0
:1013F0001801809117018823D9F08091180181305C
:1014000009F454C0809115018830D8F580913401D9
:101410002091150190E002C0959587952A95E2F7F5
:1014200080FF3DC0329A809115018F5F8093150136
:101430009F918F915F914F913F912F910F900FBE90
:101440000F901F9018958091270190E0029794F1DA
:1014500084B1509127014091200183FB222720F97C
:1014600089E090E0851B910901C0220F8A95EAF777
:10147000242B209320018091270181508093270104
:10148000B8CF80911501883071F6329A80916E0044
:101490008D7F80936E0010921701569AC4CF3298B8
:1014A000809115018F5F80931501C2CF10921801B2
:1014B0003298BECF809127018111DDCF81E0239B3F
:1014C00014C08093240192B188E0892782B9809169
:1014D0006E008D7F80936E0080916C008860809399
:1014E0006C00569A10922501C6CF80931201EFCF5F
:1014F0001F920F920FB60F9211248F93EF93FF93C9
:101500001092850010928400EFE6F0E080818D7FDC
:10151000808310921B01FF91EF918F910F900FBE6E
:101520000F901F90189597FB072E16F4009406D085
:1015300077FD08D00BD007FC05D03EF4909581953F
:101540009F4F0895709561957F4F0895AA1BBB1B0F
:1015500051E107C0AA1FBB1FA617B70710F0A61BB3
:10156000B70B881F991F5A95A9F780959095BC01D4
:08157000CD010895F894FFCFAE
:00000001FF
