S014000053656E736F725F626F6172642E737265632F
S113000019C086C227C0F6C10AC224C023C022C0B8
S113001021C0C1C71FC01EC022C71CC01BC01AC03C
S113002019C018C017C016C015C014C013C012C020
S113003011C010C011241FBECFEFD2E0DEBFCDBF70
S113004021E0A0E0B1E001C01D92AA33B207E1F7BC
S113005030D6E1C7D5CFCF93C0911D01549864E049
S11300608AE003D164E080E200D164E08C2FFDD00B
S113007064E080E0FAD0549AC0911201549864E08C
S11300808AE0F3D064E081E2F0D064E08C2FEDD01C
S113009064E080E0EAD0549A549864E08AE0E5D0C1
S11300A064E082E2E2D064E085E0DFD064E080E0F6
S11300B0DCD0549A549864E08AE0D7D064E08CE2AF
S11300C0D4D064E081E1D1D064E080E0CED0549A11
S11300D0549864E08AE0C9D064E087E2C6D064E062
S11300E083E0C3D064E080E0C0D0549A549864E0C4
S11300F08AE0BBD064E08BE2B8D064E080E9B5D09C
S113010064E080E0B2D0549A549864E08AE0ADD0C0
S113011064E08DE2AAD064E08AE0A7D064E080E0E5
S1130120A4D0549ACF910895549864E08BE09DD064
S113013064E08DE09AD064E080E097D0549A08950A
S1130140CF93DF93559861E083EC8FD061E080E03A
S11301508CD061E080E089D0C82FD0E0DC2FCC27A0
S113016061E080E082D0C82B61E080E07ED090E046
S1130170982F882790931C0180931B0161E080E0F5
S113018074D020911B0130911C01282B30931C0149
S113019020931B01559A209111016091320130E0A6
S11301A020523109C901880F991F82959295907F39
S11301B09827807F9827820F931F880F991F820F9B
S11301C0931F8150924D8C1B9D0B70E06D5C7F4F93
S11301D0FBD6625E7F4F70931A0160931901DF9121
S11301E0CF91089591E090930501109285001092AB
S11301F0840090916F00926090936F00909105013C
S1130200992349F19091C00095FFFCCF8093C600DB
S113021081E0809305011092850010928400809102
S11302206F00826080936F0080910501882349F0FC
S11302308091C00087FFFCCF109204018091C6001A
S113024008958091C00087FDF9CF809104018F5FEC
S113025080930401F3CF9091C00095FDD7CF909186
S113026004019F5F90930401D1CF91E09093050125
S1130270109285001092840090916F009260909388
S11302806F00909105019923E1F19091C00095FFD1
S1130290FCCF8093C60081E0809305011092850015
S11302A01092840080916F00826080936F0080912F
S11302B00501882391F08091C00087FFFCCF643052
S11302C0B9F108F446C0603171F1603209F058C0E8
S11302D0109201018091C60008958091C00087FDAD
S11302E0F9CF643009F45DC008F442C0603159F1BB
S11302F0603209F05CC0809101018F5F809301013D
S1130300E9CF9091C00095FDC4CF643009F443C097
S113031038F1603191F06032C1F5909101019F5F35
S113032090930101B6CF109204018091C600089504
S1130330109203018091C6000895909104019F5F7B
S113034090930401A6CF809104018F5F80930401F0
S1130350C1CF6130A9F4109202018091C6000895C2
S1130360613099F4909102019F5F9093020191CFC3
S11303706130E9F4809102018F5F80930201AACF7A
S1130380109200018091C6000895909100019F5F32
S1130390909300017ECF909103019F5F909303019E
S11303A078CF809103018F5F8093030193CF809175
S11303B000018F5F809300018DCF579881E412DF95
S11303C080E110DF80E00EDF579A0895CF93C82FA5
S11303D0579880E407DF82E105DF8C2F03DF579A0B
S11303E0579880E4FFDE84E1FDDE8C2FFBDE579A14
S11303F0CF9108951F920F920FB60F921124CF93AD
S1130400DF9300D0CDB7DEB71A8219820F900F9018
S1130410DF91CF910F900FBE0F901F9018951F92F0
S11304200F920FB60F9211248F939F93EF93FF9324
S113043016BCECE6F0E08081877F80831092130184
S113044081E08093180199E09093260110921F0196
S113045080932401EEE6F0E0808182608083FF9146
S1130460EF919F918F910F900FBE0F901F90189551
S1130470139A809164008B7F8093640089E08DB926
S1130480489A81E58CBD159A179A1698159881E0BB
S11304908EBD0DB407FEFDCF80E48EBD0DB407FE06
S11304A0FDCF159A159882E08EBD0DB407FEFDCFE1
S11304B01EBC0DB407FEFDCF1EBC0DB407FEFDCF60
S11304C08FEF9FE11EBC0DB407FEFDCF0197D1F75E
S11304D0159A169A17988CB58F7B8CBD8091640001
S11304E0846080936400139892B181E0982792B954
S11304F092B1982792B992B1982792B992B198275C
S113050092B992B1982792B992B1892782B9089584
S11305101F920F920FB60F9211242F933F934F9374
S11305205F936F937F938F939F93AF93BF93EF9357
S1130530FF9380911001882321F080910E0185356D
S113054089F0FF91EF91BF91AF919F918F917F912E
S11305506F915F914F913F912F910F900FBE0F902C
S11305601F901895F89484DF88E030DF26DF179A0F
S113057016987894E6CF80911F01813409F462C201
S113058080911F01823409F433C280911F018334A6
S113059009F404C280911F01843409F49AC1809142
S11305A01F01853409F44AC180911F01863409F47E
S11305B0F9C080911F01873409F4BDC080911F01E7
S11305C0883409F481C080911F018A3409F464C01D
S11305D080911F018C34E9F080911F018B3409F064
S11305E008951092230180912101813009F4E1C220
S11305F084E1809333011092150181E08093180106
S11306008093170116BC80916E00826080936E0007
S11306100895109223018091080180933301109270
S1130620150181E0809318018093170116BC909105
S11306306E00926090936E00909107019093330145
S113064010921501809318018093170116BC9091A4
S11306506E00926090936E00909106019093330126
S113066010921501809318018093170116BC909184
S11306706E00926090936E0094E190933301109217
S11306801501809318018093170116BC80916E00A8
S1130690826080936E00A0CF10922301169A17985F
S11306A085E580930E0184E1809333011092150156
S11306B081E0809318018093170116BC80916E002D
S11306C0826080936E0084CF10922301809119017F
S11306D090911A01109233011092150181E08093D8
S11306E018018093170116BC90916E00926090934C
S11306F06E002091190130911A0120933301109258
S11307001501809318018093170116BC90916E0017
S1130710926090936E0094E19093330110921501CE
S1130720809318018093170116BC80916E0082603B
S113073080936E0048CF1092230180911B01909109
S11307401C01109233011092150181E0809318016D
S11307508093170116BC90916E00926090936E0086
S113076020911B0130911C0120933301109215013B
S1130770809318018093170116BC90916E009260CB
S113078090936E0094E1909333011092150180933D
S113079018018093170116BC80916E0082608093CB
S11307A06E000CCF109223018091230190911301CC
S11307B0882391F110922301809113018130A1F1DA
S11307C080911F01809590910F01892380930F01DF
S11307D080FFFBC191E090931E0181FFF3C191E082
S11307E09093200182FFEBC191E09093160183FD69
S11307F0F8C11092100184E1809333011092150125
S113080081E0809318018093170116BC80916E00DB
S1130810826080936E00CDCE992331F21092230131
S113082080911301813061F6109213011092250119
S113083095E19093330110921501E3CF10922301B7
S11308408091230190911301882389F1109223014F
S113085080911301813099F190911F0180910F01D2
S1130860892B80930F0180FFB9C191E090931E0101
S113087081FFB1C191E09093200182FFA9C191E071
S11308809093160183FDB1C11092100184E180930D
S113089033011092150181E08093180180931701B0
S11308A016BC80916E00826080936E007DCE992389
S11308B039F21092230180911301813069F610926C
S11308C013011092250195E19093330110921501C3
S11308D0E3CF1092230181E08093340180912301BE
S11308E0909113018823C9F180911F011092230173
S11308F090911301913009F408C180911F0190E097
S1130900382F22278091230190911301882349F1E4
S1130910109223018091130181112BC080911F013A
S113092040913401442309F43ACE20931D0180936D
S11309301201109234018FDB84E180933301109211
S1130940150181E0809318018093170116BC8091F2
S11309506E00826080936E0022CE992309F4BECF8C
S1130960C3CF992379F21092230180911301882334
S1130970A9F21092340185E180933301109215019C
S113098081E0809318018093170116BC80916E005A
S1130990826080936E0080E090E0C2CF10922301C9
S11309A080912301909113018823F9F0109223017F
S11309B080911301813009F4BDC084E18093330137
S11309C01092150181E0809318018093170116BCE1
S11309D080916E00826080936E0080911F0190E090
S11309E09093360180933501D5CD9923C9F2DECF9A
S11309F01092230180912301909113018823F9F02F
S1130A001092230180911301813009F4BEC084E166
S1130A10809333011092150181E080931801809333
S1130A20170116BC80916E00826080936E008091E5
S1130A301F0190E09093360180933501A6CD992350
S1130A40C9F2DECF1092230181E0809325018091C9
S1130A502301909113018823C9F120911F01109261
S1130A60230180911301813009F478C020911F0182
S1130A7030E0322F222780912301909113018823A3
S1130A8049F1109223018091130181112BC08091AF
S1130A901F01282B80912501882309F471CD3093FF
S1130AA03101209330011092250184E180933301B8
S1130AB01092150181E0809318018093170116BCF0
S1130AC080916E00826080936E005ACD992309F460
S1130AD0BECFC3CF992379F21092230180911301E1
S1130AE08823A9F21092250185E1809333011092A5
S1130AF0150181E0809318018093170116BC809141
S1130B006E00826080936E00C5CF282F109213016F
S1130B101092340185E18093330110921501909372
S1130B2018019093170116BC80916E008260809327
S1130B306E00E8CE109213011092250195E1909376
S1130B40330110921501809318018093170116BC8C
S1130B5080916E00826080936E001CCD30E0322F55
S1130B602227109213011092250195E190933301ED
S1130B7010921501809318018093170116BC80917F
S1130B806E00826080936E0076CF109213011092F3
S1130B90250195E19093330110921501809318017A
S1130BA08093170116BC80916E00826080936E0062
S1130BB0ECCC95E190933301109215011FCD109266
S1130BC0160115CE109220010DCE10921E0105CEF5
S1130BD01092160157CE109220014FCE10921E0192
S1130BE047CE81E08093100106CE81E0809310010E
S1130BF04DCE80910B01853178F080911E018823C0
S1130C0009F451C080E48093080181E080930701D6
S1130C10109206018093210180910C01853120F00E
S1130C2080911601811133C080910D01853120F02E
S1130C308091100181111FC080910A01853158F003
S1130C4080E48093080180E28093070110920601FA
S1130C5081E08093210180910901853158F080E47D
S1130C608093080180E8809307011092060181E0D7
S1130C7080932101089580E48093080180E18093AA
S1130C8007011092060181E080932101D5CF80E411
S1130C908093080184E0809307011092060181E0AB
S1130CA080932101C1CF80912001882309F4B4CF1E
S1130CB0A9CF179A16988FEE81B987EF85B987E087
S1130CC08093680080916B00806180936B00569ADA
S1130CD088E087B980916C00886080936C00789478
S1130CE08FEF80930F0110920E0110922101109248
S1130CF017011092240110923301109215011092E1
S1130D000B0110920C0110920D0110920A01109225
S1130D100901339A81E08093220190E190931401B8
S1130D20569A16BC92E894BD85BD24EB27BD10925B
S1130D30850010928400909380008093810084EB5E
S1130D4090E0909389008093880082B18F6082B98B
S1130D5082B1807F82B980E590E090931A018093FC
S1130D60190185E59AEA90931C0180931B01109266
S1130D702301789414E0D2E0C1E005C03ADF809109
S1130D800E01853571F0809123018130B9F71092FD
S1130D90230180931801EFDB2CDF80910E01853550
S1130DA091F7C2D984FF04C080911601811153C008
S1130DB0C7D92091190130911A0180913501909180
S1130DC036016091190170911A01409138015091D6
S1130DD039018217930744F58091200181112BC0BA
S1130DE020911B0130911C018091300190913101BF
S1130DF08217930740F680911E01882321F2C09345
S1130E00080180911B0190911C01992721E0099709
S1130E100CF420E02093070180911B0190911C01A8
S1130E208093060125DBAFCF64177507CCF680915C
S1130E3020018823A9F2D09308018091190190918F
S1130E401A01109207018091190190911A0180935F
S1130E5006010EDBC5CF109308010ADBA9CF1F9250
S1130E600F920FB60F9211242F933F934F935F93DA
S1130E708F939F9316BC9AB180E489278AB9809195
S1130E802401882349F080911801882379F1809105
S1130E901801815080931801809117018823D9F09B
S1130EA080911801813009F454C080911501883073
S1130EB0D8F5809133012091150190E002C09595F9
S1130EC087952A95E2F780FF3DC0329A80911501FB
S1130ED08F5F809315019F918F915F914F913F9107
S1130EE02F910F900FBE0F901F901895809126019F
S1130EF090E0029794F184B15091260140911F0132
S1130F0083FB222720F989E090E0851B910901C029
S1130F10220F8A95EAF7242B20931F018091260142
S1130F20815080932601B8CF80911501883071F6E5
S1130F30329A80916E008D7F80936E00109217011B
S1130F40569AC4CF3298809115018F5F8093150112
S1130F50C2CF109218013298BECF80912601811120
S1130F60DDCF81E0239B14C08093230192B188E0FC
S1130F70892782B980916E008D7F80936E00809165
S1130F806C00886080936C00569A10922401C6CF3E
S1130F9080931301EFCF1F920F920FB60F9211247B
S1130FA08F93EF93FF931092850010928400EFE6E5
S1130FB0F0E080818D7F8083FF91EF918F910F907E
S1130FC00FBE0F901F90189597FB072E16F40094F0
S1130FD006D077FD08D00BD007FC05D03EF49095E1
S1130FE081959F4F0895709561957F4F0895AA1B31
S1130FF0BB1B51E107C0AA1FBB1FA617B70710F000
S1131000A61BB70B881F991F5A95A9F78095909531
S10D1010BC01CD010895F894FFCF50
S9030000FC
