:1000000019C0AEC227C026C025C0DCC223C022C092
:1000100021C020C01FC01EC04DC41CC01BC01AC0C0
:1000200019C018C017C016C015C014C013C012C024
:1000300011C010C011241FBECFEFD2E0DEBFCDBF74
:1000400021E0A0E0B1E001C01D92A430B207E1F7C9
:10005000C3D36DC4D5CFCF93DF9300D0CDB7DEB778
:100060009A83898389819A81892B51F08AE290E071
:100070002AE230E0F90120812F7EFC01208309C0B3
:100080008AE290E02AE230E0F90120812061FC015F
:10009000208300000F900F90DF91CF910895CF93B0
:1000A000DF9300D0CDB7DEB79A83898389819A81A7
:1000B000892B51F08AE290E02AE230E0F9012081B8
:1000C0002F7DFC01208309C08AE290E02AE230E023
:1000D000F90120812062FC01208300000F900F9025
:1000E000DF91CF910895CF93DF931F92CDB7DEB705
:1000F00081E090E0D4DF80EF96D080E094D080E083
:1001000090E0CDDF81E090E0CADF81EE8CD080E02E
:100110008AD080E090E0C3DF81E090E0C0DF83EA36
:1001200082D0898380E07FD080E090E0B8DF898151
:100130000F90DF91CF910895CF93DF9300D0CDB78B
:10014000DEB79A83898389819A81892B51F08AE26B
:1001500090E02AE230E0F90120812F77FC01208332
:1001600009C08AE290E02AE230E0F90120812068AB
:10017000FC01208300000F900F90DF91CF91089534
:10018000CF93DF9300D0CDB7DEB79A83898389817F
:100190009A81892B21F184EC90E0FC01118210827C
:1001A00089E290E021EBFC01208382EC90E022ECDC
:1001B000FC01208381EC90E028E1FC01208384ECA9
:1001C00090E028E030E0FC013183208380E090E083
:1001D000B3DF80E090E063DF80E090E03CDF000090
:1001E0000F900F90DF91CF910895CF93DF9300D0C0
:1001F000CDB7DEB781E090E09FDF1A82198205C09B
:1002000089819A8101969A83898389819A818C3D1B
:100210009540B4F380E090E08FDF00000F900F90E6
:10022000DF91CF910895CF93DF931F92CDB7DEB7C3
:100230008983000080EC90E0FC018081882F90E0B1
:1002400080729927892BB1F386EC90E02981FC011B
:100250002083000080EC90E0FC0180818823D4F7AB
:1002600086EC90E0FC0180810F90DF91CF910895A2
:10027000CF93DF93CDB7DEB781E090E05DDF80E420
:10028000D2DF80E0D0DF81E6CEDF80E090E054DF97
:100290000000DF91CF910895CF93DF93CDB7DEB704
:1002A00081E090E049DF80E4BEDF88E0BCDF80E4ED
:1002B000BADF80E090E040DF81E090E03DDF80E465
:1002C000B2DF86E0B0DF80E0AEDF80E090E034DFD8
:1002D00081E090E031DF80E4A6DF8AE0A4DF80E007
:1002E000A2DF80E090E028DF81E090E025DF81E47C
:1002F0009ADF82E198DF80E096DF80E090E01CDF0B
:1003000081E090E019DF81E48EDF80E18CDF80E026
:100310008ADF80E090E010DF81E090E00DDF80E494
:1003200082DF84E080DF80E47EDF80E090E004DF35
:100330000000DF91CF910895CF93DF93CDB7DEB763
:1003400081E090E0F9DE81E46EDF80E16CDF80E047
:100350006ADF80E090E0F0DE0000DF91CF91089549
:10036000CF93DF931F92CDB7DEB781E090E0E4DE5C
:1003700081E459DF8EE057DF80E055DF898380E03C
:1003800090E0DADE89810F90DF91CF910895CF93CD
:10039000DF931F92CDB7DEB7898381E090E0CCDE9A
:1003A00080E441DF82E13FDF89813DDF80E090E052
:1003B000C3DE81E090E0C0DE80E435DF84E133DF3E
:1003C000898131DF80E090E0B7DE00000F90DF919F
:1003D000CF910895CF93DF9300D0CDB7DEB79A8346
:1003E000898389819A81892B51F082E290E022E20F
:1003F00030E0F90120812F7DFC01208309C082E2D9
:1004000090E022E230E0F90120812062FC012083AB
:1004100000000F900F90DF91CF910895CF93DF935D
:10042000CDB7DEB782E290E022E230E0F901208130
:100430002068FC01208382E290E022E230E0F901B2
:1004400020812F7BFC0120830000DF91CF91089554
:10045000CF93DF93CDB7DEB782E290E022E230E0C7
:10046000F90120812064FC01208382E290E022E2F5
:1004700030E0F90120812F77FC0120830000DF911B
:10048000CF910895CF93DF9300D0CDB7DEB79A8395
:10049000898389819A81892B31F184E690E024E671
:1004A00030E0F90120812B7FFC0120838DE290E078
:1004B00029E0FC01208389E290E029E230E0F901A3
:1004C00020812160FC0120838CE490E021E5FC0187
:1004D000208382E290E022E230E0F9012081206274
:1004E000FC01208312C08CE490E02CE430E0F901A0
:1004F00020812F7BFC01208384E690E024E630E01D
:10050000F90120812460FC01208300000F900F90EE
:10051000DF91CF910895CF93DF931F92CDB7DEB7D0
:1005200089838EE490E02981FC0120838DE490E0B2
:10053000FC0180818823D4F700000F90DF91CF91D8
:100540000895CF93DF931F92CDB7DEB7898381E003
:10055000E2DF8981E0DF00000F90DF91CF91089505
:100560001F920F9200905F000F9211242F933F93E0
:100570004F935F936F937F938F939F93AF93BF93AB
:10058000EF93FF93CF93DF93CDB7DEB7F89497D077
:1005900088E0FDDED1DE42DF78940000DF91CF916C
:1005A000FF91EF91BF91AF919F918F917F916F914B
:1005B0005F914F913F912F910F9000925F000F90AC
:1005C0001F9018951F920F9200905F000F921124B8
:1005D0002F933F934F935F936F937F938F939F934B
:1005E000AF93BF93EF93FF93CF93DF93CDB7DEB776
:1005F0002FDF87EFCCDE0000DF91CF91FF91EF91ED
:10060000BF91AF919F918F917F916F915F914F912A
:100610003F912F910F9000925F000F901F901895BF
:10062000CF93DF93CDB7DEB781E290E02FEEFC01F0
:1006300020830000DF91CF910895CF93DF93CDB752
:10064000DEB788E690E028E630E0F90120812460FA
:10065000FC0120838BE690E02BE630E0F90120815D
:100660002061FC0120838BE290E020E4FC012083E8
:100670008DE690E02DE630E0F90120812064FC0158
:10068000208378940000DF91CF910895CF93DF937A
:10069000CDB7DEB789E690E0FC0110828DE390E0F3
:1006A00021E0FC0120830000DF91CF910895CF93DA
:1006B000DF93CDB7DEB70000DF91CF910895CF93E0
:1006C000DF9300D000D000D0CDB7DEB782E290E05B
:1006D00022E230E0F90120812860FC01208381E0E2
:1006E00090E0D0DE9BDE81E090E074DE80E429DFE4
:1006F00080E090E06FDE81E090E06CDE82E00BDF76
:1007000080E009DF80E007DF1A82198207C080E0FD
:1007100002DF89819A8101969A83898389819A81EE
:100720008F3F9F41A4F380E090E054DE91DE80E0B3
:1007300090E0A8DE82E290E022E230E0F901208140
:10074000277FFC0120831C821B821CC082E290E078
:1007500022E230E0F901308121E02327FC012083EF
:100760001E821D8205C08D819E8101969E838D8390
:100770008D819E8180389C40B4F38B819C81019651
:100780009C838B838B819C81069704F300002696C3
:100790000FB6F894DEBF0FBECDBFDF91CF910895A5
:1007A000CF93DF93CDB7DEB783E590E023E530E06C
:1007B000F90120812D7FFC01208383E590E023E572
:1007C00030E0F90120812560FC0120837894889530
:1007D0000000DF91CF910895CF93DF9300D000D038
:1007E000CDB7DEB71DDF63DF28DF1B8281E080939A
:1007F000010180E18093000181E090E0C1DCF5DC43
:1008000037DD809100018260C2DD80910001BFDD93
:1008100043DDA6DD8C833ADF66DC1ADE82E290E0FF
:1008200022E230E0F90120812F60FC0120831A824E
:10083000198205C089819A8101969A838983898169
:100840009A8180389E43B4F382E290E022E230E065
:10085000F9012081207FFC012083A2DFFFCFCF930D
:10086000DF931F92CDB7DEB7898384E490E024E460
:1008700030E0F90120812264FC01208385E490E0CE
:1008800025E430E0F90120812260FC01208387E427
:1008900090E02981FC0120838EE690E02EE630E096
:1008A000F90120812260FC01208300000F90DF917C
:1008B000CF9108951F920F9200905F000F92112424
:1008C0002F933F934F935F936F937F938F939F9358
:1008D000AF93BF93EF93FF93CF93DF93CDB7DEB783
:1008E000F89480910301882321F089E8B8DF109201
:1008F0000301809102018F7E4ADD809102018061B7
:1009000046DD78940000DF91CF91FF91EF91BF9188
:10091000AF919F918F917F916F915F914F913F9197
:100920002F910F9000925F000F901F901895F894F0
:02093000FFCFF7
:00000001FF
