S014000053656E736F725F626F6172642E737265632F
S113000019C0EAC327C0D0C325C424C023C022C05A
S113001021C02BCA1FC01EC013C91CC01BC01AC0DC
S113002019C018C017C016C015C014C013C012C020
S113003011C010C011241FBECFEFD2E0DEBFCDBF70
S113004021E0A0E0B1E001C01D92AB33B207E1F7BB
S11300504DD561CAD5CFCF93DF9300D0CDB7DEB7EE
S11300609A83898389819A81892B51F08AE290E06D
S11300702AE230E0F90120812F7EFC01208309C0AF
S11300808AE290E02AE230E0F90120812061FC015B
S1130090208300000F900F90DF91CF910895CF93AC
S11300A0DF9300D01F92CDB7DEB78A836B8381E0E4
S11300B090E0D1DF64E08AE0C3D164E08A81C0D1FA
S11300C064E08B81BDD164E080E0BAD1898380E0B3
S11300D090E0C1DF00000F900F900F90DF91CF915F
S11300E00895CF93DF93CDB7DEB780911E01682FBB
S11300F080E2D5DF80911101682F81E2D0DF65E0D5
S113010082E2CDDF61E18CE2CADF63E087E2C7DF30
S113011060E98BE2C4DF6AE08DE2C1DF0000DF91B9
S1130120CF910895CF93DF931F92CDB7DEB781E0CF
S113013090E091DF64E08BE083D164E08DE080D1D6
S113014064E080E07DD1898380E090E084DF898170
S11301500F90DF91CF910895CF93DF9300D0CDB767
S1130160DEB79A83898389819A81892B51F08AE247
S113017090E02AE230E0F90120812F7BFC0120830A
S113018009C08AE290E02AE230E0F901208120648B
S1130190FC01208300000F900F90DF91CF91089510
S11301A0CF93DF9300D0CDB7DEB79A83898389815B
S11301B09A81892B51F08AE290E02AE230E0F90139
S11301C020812F7DFC01208309C08AE290E02AE28D
S11301D030E0F90120812062FC01208300000F90AF
S11301E00F90DF91CF910895CF93DF93CDB7DEB712
S11301F081E090E0D5DF61E080ED22D161E080E62E
S11302001FD180E090E0CCDF0000DF91CF91089512
S1130210CF93DF9300D0CDB7DEB781E090E0C0DFAD
S113022061E083EC0DD161E080E00AD161E080E01F
S113023007D1882F90E0982F88279A83898361E0DB
S113024080E0FED0882F90E029813A81822B932B85
S11302509A83898361E080E0F3D0882F90E0982F1F
S1130260882790931D0180931C0161E080E0E8D011
S1130270282F30E080911C0190911D01822B932B3B
S113028090931D0180931C0180E090E089DF8091B0
S11302901001882F90E09C0120523109C901880F78
S11302A0991F82959295907F9827807F9827820F37
S11302B0931F880F991F820F931F9C012150324D69
S11302C089819A81A901481B590B80913301882F98
S11302D090E09C012D5C3F4FCA01B901F5D8CB01D8
S11302E04E9690931A018093190100000F900F907D
S11302F0DF91CF910895CF93DF93CDB7DEB781E03F
S113030090E04EDF61E087E89BD061E084E898D01C
S113031061E084ED95D080E090E042DF0000DF9161
S1130320CF910895CF93DF93CDB7DEB781E090E00E
S113033037DF61E080EF84D061E080E081D080E04D
S113034090E02EDF0000DF91CF910895CF93DF93EB
S113035000D0CDB7DEB79A83898389819A81892BAE
S113036051F08AE290E02AE230E0F90120812F770F
S1130370FC01208309C08AE290E02AE230E0F9011E
S113038020812068FC01208300000F900F90DF91F2
S1130390CF910895CF93DF9300D0CDB7DEB79A8382
S11303A0898389819A81892B39F184EC90E0FC015D
S11303B01182108289E290E021EFFC01208382EC1B
S11303C090E023ECFC01208381EC90E028E1FC0127
S11303D0208384EC90E028E030E0FC01318320832A
S11303E080E090E0B3DF80E090E0DADE80E090E04F
S11303F032DE80E090E0B0DE00000F900F90DF91DD
S1130400CF910895CF93DF9300D0CDB7DEB781E0CD
S113041090E09CDF1A82198205C089819A81019635
S11304209A83898389819A818C3D9540B4F380E0D5
S113043090E08CDF00000F900F90DF91CF91089532
S1130440CF93DF9300D0CDB7DEB789836A8381E091
S113045080931B0184E890E0FC01118210828FE6F6
S113046090E02FE630E0F90120812260FC01208336
S1130470000080EC90E0FC018081882F90E0807285
S11304809927892BB1F386EC90E02981FC01208324
S113049081E080931B0184E890E0FC0111821082CA
S11304A08FE690E02FE630E0F90120812260FC0124
S11304B02083000080EC90E0FC0180818823D4F745
S11304C080911B01882321F08A81882F90E009D034
S11304D086EC90E0FC0180810F900F90DF91CF912A
S11304E00895CF93DF931F92CDB7DEB789838981B7
S11304F0882F90E08430910579F0853091051CF4C3
S1130500019739F012C08031910549F0809751F07C
S11305100CC0109202010CC01092010109C010928B
S1130520000106C01092030103C0109204010000F0
S113053000000F90DF91CF910895CF93DF93CDB753
S1130540DEB781E090E002DF60E180E479DF60E122
S113055080E076DF60E181E673DF80E090E0F6DE44
S11305600000DF91CF910895CF93DF93CDB7DEB72D
S113057081E090E0EBDE60E181E462DF60E180E154
S11305805FDF60E180E05CDF80E090E0DFDE0000C0
S1130590DF91CF910895CF93DF931F92CDB7DEB74C
S11305A081E090E0D3DE60E181E44ADF60E18EE047
S11305B047DF60E180E044DF898380E090E0C6DECD
S11305C089810F90DF91CF910895CF93DF931F928C
S11305D0CDB7DEB7898381E090E0B8DE60E180E4E6
S11305E02FDF60E182E12CDF60E1898129DF80E097
S11305F090E0ACDE81E090E0A9DE60E180E420DF01
S113060060E184E11DDF60E189811ADF80E090E030
S11306109DDE00000F90DF91CF910895CF93DF937B
S113062000D0CDB7DEB79A83898389819A81892BDB
S113063051F082E290E022E230E0F90120812F7D46
S1130640FC01208309C082E290E022E230E0F9015B
S113065020812062FC01208300000F900F90DF9125
S1130660CF910895CF93DF93CDB7DEB782E290E0C8
S113067022E230E0F90120812068FC01208382E23B
S113068090E022E230E0F90120812F7BFC012083FD
S11306900000DF91CF910895CF93DF93CDB7DEB7FC
S11306A082E290E022E230E0F90120812064FC0142
S11306B0208382E290E022E230E0F90120812F776A
S11306C0FC0120830000DF91CF910895CF93DF9345
S11306D000D0CDB7DEB79A83898389819A81892B2B
S11306E031F184E690E024E630E0F90120812B7FAB
S11306F0FC0120838DE290E029E0FC01208389E263
S113070090E029E230E0F90120812160FC0120839E
S11307108CE490E021E5FC01208382E290E022E277
S113072030E0F90120812062FC01208312C08CE4B6
S113073090E02CE430E0F90120812F7BFC01208340
S113074084E690E024E630E0F90120812460FC0195
S1130750208300000F900F90DF91CF910895CF93E5
S1130760DF931F92CDB7DEB789838EE490E02981B1
S1130770FC0120838DE490E0FC0180818823D4F780
S113078000000F90DF91CF910895CF93DF931F92D4
S1130790CDB7DEB7898381E0E2DF8981E0DF000045
S11307A00F90DF91CF9108951F920F9200905F00F8
S11307B00F921124CF93DF9300D0CDB7DEB71A8206
S11307C0198200000F900F90DF91CF910F9000924B
S11307D05F000F901F9018951F920F9200905F007A
S11307E00F9211242F933F934F935F936F937F93B3
S11307F08F939F93AF93BF93EF93FF93CF93DF9325
S1130800CDB7DEB780910F01882379F0809106017E
S1130810853559F4F894F9D088E0D7DEA5DE22DFD7
S11308208DE390E0FC01108278940000DF91CF9179
S1130830FF91EF91BF91AF919F918F917F916F91B4
S11308405F914F913F912F910F9000925F000F9015
S11308501F9018951F920F9200905F000F92112421
S11308602F933F938F939F93EF93FF93CF93DF93B4
S1130870CDB7DEB786E490E0FC0110828CE690E010
S11308802CE630E0F9012081277FFC0120831092BF
S1130890120181E08093180189E08093270110926E
S11308A0200181E0809325018EE690E02EE630E081
S11308B0F90120812260FC0120830000DF91CF91A7
S11308C0FF91EF919F918F913F912F910F90009203
S11308D05F000F901F901895CF93DF93CDB7DEB7CD
S11308E081E290E02FEEFC01208385E290E027EF87
S11308F0FC0120830000DF91CF910895CF93DF9313
S1130900CDB7DEB788E690E027E0FC0120838BE6D4
S113091090E02BE630E0F90120812061FC01208386
S11309208AE290E02AE230E0F90120812064FC01AF
S1130930208387E290E028E0FC0120838CE690E0AD
S11309402CE630E0F90120812860FC0120837894B2
S11309500000DF91CF910895CF93DF9300D0CDB7FE
S1130960DEB789836A8389818093050180910501BB
S1130970882F90E081709927892B21F081E0809362
S11309801F0102C010921F0180910501882F90E081
S113099082709927892B21F081E08093210102C084
S11309A01092210180910501882F90E0847099278D
S11309B0892B21F081E08093160102C01092160168
S11309C080910501882F90E088709927892B49F040
S11309D081E080930F018DE390E021E0FC0120830E
S11309E006C010920F018DE390E0FC01108200001C
S11309F00F900F90DF91CF910895CF93DF93CDB7F0
S1130A00DEB70000DF91CF910895CF93DF9300D03C
S1130A1000D000D0CDB7DEB782E290E022E230E031
S1130A20F90120812860FC01208381E090E04EDE02
S1130A3019DE81E090E0F2DD80E4A7DE80E090E062
S1130A40EDDD81E090E0EADD82E089DE80E087DEB2
S1130A5080E085DE1A82198207C080E080DE898109
S1130A609A8101969A83898389819A818F3F9F41D4
S1130A70A4F380E090E0D2DD0FDE80E090E026DE9B
S1130A8082E290E022E230E0F9012081277FFC013C
S1130A9020831C821B821CC082E290E022E230E0B0
S1130AA0F901308121E02327FC0120831E821D826D
S1130AB005C08D819E8101969E838D838D819E814B
S1130AC080389C40B4F38B819C8101969C838B83FA
S1130AD08B819C81069704F3000026960FB6F89448
S1130AE0DEBF0FBECDBFDF91CF910895CF93DF93CB
S1130AF000D000D0CDB7DEB7B5DDEEDE7EDFFEDEA2
S1130B008FEF8093050110920601109222011B823F
S1130B1010921701109225011092340110921501C0
S1130B2010920901109208011092070110920A0113
S1130B3010920B0186E290E026E230E0F901208178
S1130B402860FC01208381E08093230180E180936D
S1130B5013018AE290E02AE230E0F9012081206466
S1130B60FC01208386E490E0FC01108284E490E0A0
S1130B7022E8FC01208385E490E021E0FC0120834D
S1130B8087E490E029E9FC01208384E890E0FC01FB
S1130B901182108280E890E022E8FC01208381E841
S1130BA090E021E0FC01208388E890E020ED37E02C
S1130BB0FC013183208381E090E0ECDB23DCEBDC7F
S1130BC0BCDC80911301826000DD80911301FDDCA7
S1130BD0E2DC8C8386DAA6DB8EDB06DB05DB04DB5A
S1130BE05BDD82E290E022E230E0F90120812F60B7
S1130BF0FC0120831A82198205C089819A81019699
S1130C009A83898389819A8180389E43B4F382E2EE
S1130C1090E022E230E0F9012081207FFC01208372
S1130C2080E590E090931A018093190185E59AEA92
S1130C3090931D0180931C0110922401789480915B
S1130C402401813041F41092240181E08093180141
S1130C5072D085E16AD280910601853581F78DD203
S1130C6061DA882F90E080719927892B41F0809177
S1130C701601882321F084E080930C01C6DEB4DAE7
S1130C80C7DA2091190130911A01809136019091AF
S1130C90370151E0821793070CF050E020911901BD
S1130CA030911A018091390190913A0141E028175D
S1130CB039070CF040E0852F842B8823A1F0809124
S1130CC02101882381F082E080930C018091190135
S1130CD090911A0110920D018091190190911A01BD
S1130CE080930E0192DE20911C0130911D018091B0
S1130CF03101909132018217930708F0A0CF8091BF
S1130D001F01882309F49BCF81E080930C0180911B
S1130D101C0190911D01992721E009970CF420E012
S1130D20822F80930D0180911C0190911D0180936D
S1130D300E016BDE84CFCF93DF9300D000D000D0C0
S1130D40CDB7DEB780912001813409F067C01A82E3
S1130D5019821092240181E0809326010000809181
S1130D60240191E0882309F090E02091120181E0B0
S1130D70222309F080E08923882389F780912001C8
S1130D80882F90E0982F88279A83898310922401D2
S1130D9080911201813039F41092120110922601CF
S1130DA085E1C3D108C080912001882F90E0982F5D
S1130DB088279A83898300008091240191E0882305
S1130DC009F090E02091120181E0222309F080E0F3
S1130DD08923882389F710922401809112018823A2
S1130DE029F01092260185E1A0D10AC0809120014A
S1130DF0282F30E089819A81822B932B9A838983CF
S1130E0080912601882351F089819A81909332013F
S1130E10809331011092260184E187D180912001D1
S1130E20823449F51092240100008091240191E05C
S1130E30882309F090E02091120181E0222309F037
S1130E4080E08923882389F710922401809112017C
S1130E50813039F4109212011092260185E165D196
S1130E600AC084E162D180912001882F90E09093A0
S1130E7037018093360180912001833449F5109223
S1130E80240100008091240191E0882309F090E07E
S1130E902091120181E0222309F080E08923882334
S1130EA089F71092240180911201813039F4109253
S1130EB012011092260185E138D10AC084E135D1AE
S1130EC080912001882F90E0909337018093360120
S1130ED080912001843409F064C01C821B821E822C
S1130EE01D821092240181E08093350100008091DD
S1130EF0240191E0882309F090E02091120181E01F
S1130F00222309F080E08923882389F78091200136
S1130F10882F90E09C838B8310922401809112018E
S1130F20813039F4109212011092350185E1FDD01F
S1130F3008C080912001882F90E0982F88279C83F7
S1130F408B8300008091240191E0882309F090E0D4
S1130F502091120181E0222309F080E08923882373
S1130F6089F71092240180911201882329F01092AC
S1130F70350185E1DAD006C080912001882F90E008
S1130F809E838D8380913501882359F08B818093D2
S1130F901E018D818093110110923501A2D884E144
S1130FA0C4D080912001853461F5109224010000A1
S1130FB08091240191E0882309F090E020911201AE
S1130FC081E0222309F080E08923882389F71092A5
S1130FD0240180911201813039F41092120110928F
S1130FE0260185E1A2D00DC09091200180910501D8
S1130FF0892B809305018091050160E0ADDC84E1DB
S113100094D080912001863489F510922401000047
S11310108091240191E0882309F090E0209112014D
S113102081E0222309F080E08923882389F7109244
S1131030240180911201813039F41092120110922E
S1131040260185E172D012C080912001882F90E0A2
S113105080959095982F80910501892380930501AF
S11310608091050160E078DC84E15FD0809120010B
S1131070873481F41092240180911C0190911D0108
S1131080892F992752D080911C0190911D014DD038
S113109084E14BD080912001883489F4109224019A
S11310A08091190190911A01892F990F990B3DD0C4
S11310B08091190190911A0138D084E136D0809141
S11310C020018A3441F410922401E6DA85E5809304
S11310D0060184E12AD0809120018C3469F41092B5
S11310E0240180910C0121D080910D011ED08091AA
S11310F00E011BD084E119D0809120018B3459F466
S11311001092240180912201813019F485E10DD0DF
S113111002C084E10AD0000026960FB6F894DEBF20
S11311200FBECDBFDF91CF910895CF93DF931F9270
S1131130CDB7DEB78983898180933401109215017C
S113114081E08093180181E08093170186E490E0A8
S1131150FC0110828EE690E02EE630E0F901208159
S11311602260FC0120830000809117018823E1F7AD
S113117000000F90DF91CF910895CF93DF93CDB707
S1131180DEB780910901853198F080911F01882391
S113119021F480912101882359F080E480930C018B
S11311A081E080930D0110920E0181E08093220171
S11311B080910801853178F080911601882359F0D7
S11311C080E480930C0184E080930D0110920E0161
S11311D081E08093220180910701853178F080912C
S11311E00F01882359F080E480930C0180E18093FF
S11311F00D0110920E0181E08093220180910A0179
S1131200853158F080E480930C0180E280930D01D5
S113121010920E0181E08093220180910B018531AF
S113122058F080E480930C0180E880930D011092C3
S11312300E0181E0809322010000DF91CF91089597
S11312401F920F9200905F000F9211242F933F93EF
S11312504F935F936F937F938F939F93EF93FF933A
S1131260CF93DF93CDB7DEB786E490E0FC01108224
S11312708AE290E02AE230E0F901308120E4232779
S1131280FC01208380912501882309F477C0809193
S11312901801882331F0809118018150809318013E
S11312A06DC080912701882F90E0019718161906C8
S11312B024F584E290E0FC018081882F90E088701E
S11312C099279595879595958795959587952091D7
S11312D02701222F30E049E050E0BA01621B730B72
S11312E09B0102C0880F991F2A95E2F7982F8091DD
S11312F02001892B809320013CC080912701882301
S1131300C1F584E290E0FC018081882F90E0887030
S11313109927892B71F081E08093240182E290E087
S113132022E230E0F901308128E02327FC01208308
S113133003C081E0809312018EE690E02EE630E057
S1131340F90120812D7FFC0120838CE690E02CE6BE
S113135030E0F90120812860FC0120838AE290E0DA
S11313602AE230E0F90120812064FC0120831092FC
S113137025018091270181508093270180911701D5
S1131380882309F45FC080911801813061F41092C0
S1131390180186E290E026E230E0F90120812B7FFB
S11313A0FC0120834FC080911501883028F580917D
S11313B03401882F90E020911501222F30E002C0E3
S11313C0959587952A95E2F781709927892B51F095
S11313D086E290E026E230E0F90120812460FC01FD
S11313E020832BC086E290E026E230E0F9012081E0
S11313F02B7FFC01208321C0809115018830E9F402
S113140086E290E026E230E0F90120812460FC01CC
S113141020838EE690E02EE630E0F90120812D7FD6
S1131420FC012083109217018AE290E02AE230E066
S1131430F90120812064FC012083809115018F5FD4
S1131440809315010000DF91CF91FF91EF919F915F
S11314508F917F916F915F914F913F912F910F9059
S113146000925F000F901F9018951F920F920090AA
S11314705F000F9211242F933F938F939F93EF93C9
S1131480FF93CF93DF93CDB7DEB784E890E0FC0100
S1131490118210828FE690E02FE630E0F90120817E
S11314A02D7FFC01208310921B010000DF91CF915E
S11314B0FF91EF919F918F913F912F910F90009207
S11314C05F000F901F90189597FB072E16F4009459
S11314D006D077FD08D00BD007FC05D03EF49095DC
S11314E081959F4F0895709561957F4F0895AA1B2C
S11314F0BB1B51E107C0AA1FBB1FA617B70710F0FB
S1131500A61BB70B881F991F5A95A9F7809590952C
S10D1510BC01CD010895F894FFCF4B
S9030000FC
