:1000000019C0D2C427C04DC461C424C023C022C0BB
:1000100021C090CA1FC01EC026CB1CC01BC01AC066
:1000200019C018C017C016C015C014C013C012C024
:1000300011C010C011241FBECFEFD2E0DEBFCDBF74
:1000400021E0A0E0B1E001C01D92A839B207E1F7BC
:100050000DD86CCCD5CF54980895892B09F0FBCFDF
:10006000549A0895F8DF64E08AE0D6D264E08FE124
:10007000D3D264E082E5D0D280E090E0EECFEBDF37
:1000800064E08AE0C9D264E08FE1C6D264E082E530
:10009000C3D280E090E0E1DFDEDF64E08AE0BCD242
:1000A00064E080E2B9D28091660164E0B5D280E07C
:1000B00090E0D3DFD0DF64E08AE0AED264E081E29A
:1000C000ABD28091520164E0A7D280E090E0C5DF1E
:1000D000C2DF64E08AE0A0D264E082E29DD264E004
:1000E00080E09AD280E090E0B8DFB5DF64E08AE09B
:1000F00093D264E087E290D264E080E08DD280E029
:1001000090E0ABDFA8DF64E08AE086D264E088E2BA
:1001100083D264E080E080D280E090E09EDF9BDFCD
:1001200064E08AE079D264E089E276D264E088EC27
:1001300073D280E090E091DF8EDF64E08AE06CD2E1
:1001400064E08AE269D264E080E166D280E090E017
:1001500084DF81DF64E08AE05FD264E08BE25CD21E
:1001600064E080E159D280E090E077DF74DF64E002
:100170008AE052D264E08CE24FD264E083E04CD259
:1001800080E090E06ADF67DF64E08AE045D264E007
:100190008DE242D264E08AE03FD280E090E05DCF21
:1001A000CF93DF9358DF64E08BE036D264E08BE0DE
:1001B00033D264E080E030D2C82F80E090E04DDFA1
:1001C000C7FD2CC048DF64E08BE026D264E084E108
:1001D00023D264E080E020D2C82F64E080E01CD20B
:1001E000D82F80E090E039DFD7786C2F70E07D2B3E
:1001F000072E000C880B990BA2DA28EB3EE145E8AC
:100200005DE301DB69DA60935E0170935F018093C7
:10021000600190936101DF91CF9108958091000179
:100220008F5F809300011EDFDF91CF9128CF0F9366
:100230001F93CF9310DF64E08BE0EED164E08BE09E
:10024000EBD164E080E0E8D1C82F80E090E005DFEA
:10025000C7FF08C0809100018F5F8093000102DF1B
:100260000EDF80C0F8DE64E08BE0D6D164E08EE083
:10027000D3D164E080E0D0D180938D0164E080E050
:10028000CBD18093770164E080E0C6D18093780180
:1002900064E080E0C1D180934E0164E080E0BCD195
:1002A00080935B0164E080E0B7D18093630180E0DC
:1002B00090E0D3DE2091770180918D0190E0922B28
:1002C000909351018093500120914E0180917801CB
:1002D00090E0922B909376018093750120916301B9
:1002E00080915B0190E0922B90936A018093690169
:1002F0004091500150915101009196011091970148
:100300002091750130917601A0919601B0919701ED
:100310008091690190916A016091960170919701B5
:1003200057FF03C0519541955109E1E004171507A6
:1003300008F0E0E037FF03C031952195310941E035
:10034000A217B30708F040E04E2B59F497FF03C003
:100350009195819591099B0128513C4F28173907A8
:1003600008F4C0618C2FCF911F910F91089573DE17
:1003700064E08AE051D164E080E24ED18091660170
:1003800064E04AD180E090E068DE65DE64E08AE007
:1003900043D164E081E240D18091520164E03CD1DC
:1003A00080E090E05ACECF93DF9355DE64E08BE09F
:1003B00033D164E08CE030D164E080E02DD1C82FEF
:1003C00064E080E029D1D0E0D82B80E090E045DEE9
:1003D000CE01DF91CF910895089555980895892B06
:1003E00009F0FBCF559A0895F8DF61E080ED14D154
:1003F00061E080EC11D180E090E0F1CFCF93DF930A
:1004000000D0CDB7DEB7E9DF61E083EC05D161E074
:1004100080E002D161E080E0FFD08A8361E080E08B
:10042000FBD089838A81898161E080E0F5D090E00A
:10043000982F8827909365018093640161E080E0A4
:10044000EBD02091640130916501282B3093650138
:100450002093640180E090E0C2DF0F900F90DF9165
:10046000CF9108951F93CF93DF93162FC82FD0E01D
:10047000862F90E0F4E0880F991FFA95E1F78C0F32
:100480009D1F4CE050E020E030E061E070E0FC01B6
:10049000E623F723EF2B11F02F5F3F4F660F771FF7
:1004A00041505109A1F784E0CC0FDD1F8A95E1F797
:1004B000DD2720FD02C0289601C024968EDF61E072
:1004C00087E8AAD061E0812FA7D061E08C2FA4D06B
:1004D00080E090E0DF91CF911F9181CF7EDF61E0DE
:1004E0008EE89AD061E080EB97D061E080E094D014
:1004F0008093850180E090E072DF6FDF61E08EE83D
:100500008BD061E080EC88D061E080E085D0809382
:100510004F0180E090E063CF60DF61E080EF7CD04E
:1005200061E080E079D080E090E059CF579808955D
:10053000892B09F0FBCF579A0895892BF1F010927F
:10054000C5001092C40081EF89B983EC8093C2008A
:1005500088E18093C10088E090E09093C50080938B
:10056000C40080E090E0E4DF80E090E038DF80E0ED
:1005700090E073DD80E090E02FCF0895D7DF80E03A
:1005800090E0D6CF843039F0803141F08130B1F441
:1005900010920201089510920301089580910601BE
:1005A00090910701892B61F08091060190910701DC
:1005B000019790930701809306010895109201011D
:1005C0000895843051F0803171F08130F9F48091D8
:1005D00002018F5F809302010895809103018F5F74
:1005E000809303010895809106019091070101967F
:1005F0009093070180930601809104019091050179
:100600000196909305018093040108958091010162
:100610008F5F809301010895CF93DF9390918B01B9
:10062000911143C0C62FD82F81E080936D01809334
:10063000950116BC80916E00826080936E0080915F
:10064000C00085FD07C080916D018111F8CF8C2F0E
:1006500090E0B7DF80916E008D7F80936E00A99A45
:10066000D093C60081E080936D018093950116BC04
:1006700080916E00826080936E008091C00087FD43
:1006800007C080916D018111F8CF8C2F90E099DF28
:1006900080916E008D7F80936E00A99A80916D018C
:1006A000882331F08C2F6EDF03C081E080936C01D2
:1006B0008091C600DF91CF91089538DF60E180E43A
:1006C000ABDF60E180E0A8DF60E181E6A5DF80E0EC
:1006D00090E02EDF2BDF60E180E49EDF60E18CE0C4
:1006E0009BDF60E181E298DF80E090E021CF1EDFB8
:1006F00060E180E491DF60E188E08EDF60E180E42A
:100700008BDF80E090E014DF11DF60E180E484DFC4
:1007100060E186E081DF60E180E47EDF80E090E000
:1007200007DF04DF60E180E477DF60E18AE074DF07
:1007300060E180E071DF80E090E0FADEF7DE60E10A
:1007400081E46ADF60E182E167DF60E180E064DF2D
:1007500080E090E0EDDEEADE60E181E45DDF60E113
:1007600080E15ADF60E180E057DF80E090E0E0DE8A
:10077000DDDE60E180E450DF60E184E04DDF60E1D8
:1007800080E44ADF80E090E0D3CED0DE60E181E417
:1007900043DF60E180E140DF60E180E03DDF80E059
:1007A00090E0C6CECF93C2DE60E181E435DF60E148
:1007B00082E132DF60E180E02FDFC82F80E090E04F
:1007C000B7DE8C2FCF910895CF93C82FAFDE60E1B5
:1007D00080E422DF60E182E11FDF60E18C2F1CDF1B
:1007E00080E090E0A5DEA2DE60E180E415DF60E15C
:1007F00084E112DF60E18C2F0FDF80E090E0CF9189
:1008000097CE179A16980895169A179808958EBD40
:100810000DB407FEFDCF089580934C0180FF04C006
:1008200091E09093670102C01092670181FF04C0BC
:1008300091E090936B0102C010926B0182FF04C0A3
:1008400091E09093580102C01092580183FF04C0B8
:1008500081E080934D0103C010924D011DBA80913B
:100860004C0185FF04C081E08093720102C01092A8
:10087000720110926E0111981298C6DF80E090E02C
:10088000FC01E55CFE4F1082FC01EB5CFE4F108228
:10089000FC01E15DFE4F108201968530910581F7E4
:1008A00008951F920F920FB60F921124CF93DF93EA
:1008B00000D0CDB7DEB71A8219820F900F90DF916A
:1008C000CF910F900FBE0F901F9018951F920F920F
:1008D0000FB60F9211248F939F93EF93FF9381E0B4
:1008E00080938B01EEE6F0E090819D7F90831092E3
:1008F0006D01109273011092850010928400ECE655
:10090000F0E09081977F90831092530180935D0176
:1009100099E0909379011092680180937101EFE65C
:10092000F0E0808182608083FF91EF919F918F91B1
:100930000F900FBE0F901F9018951092690081E0E4
:100940008DBB78940895CF93DF93119A81E08093C3
:100950006E01809164008B7F8093640089E08DB983
:10096000489A81E58CBD159A4CDF159881E04FDFE0
:1009700080E44DDF159A159882E049DF80E047DF7B
:1009800080E045DFCFEFDFE180E041DF2197E1F755
:10099000159A8CB58F7B8CBD8091640084608093A8
:1009A0006400DF91CF9108951F920F920FB60F92BE
:1009B00011242F933F934F935F936F937F938F9364
:1009C0009F93AF93BF93CF93EF93FF93C1E0C093F7
:1009D0008B0180916E008D7F80936E0010926D016F
:1009E0001092730180914D018823F1F080914B01A9
:1009F0008535D1F480911601811116C0F894A3DFDA
:100A00001DBA789488E0E0DEC0DEC0936E01C0932A
:100A10001601E091410181E08E0F80934101F0E0E9
:100A2000E55CFE4F88E08083FF91EF91CF91BF910D
:100A3000AF919F918F917F916F915F914F913F9176
:100A40002F910F900FBE0F901F90189580938701E4
:100A50001092570181E080935D01809359011092BB
:100A600085001092840080938B0180916F008260DA
:100A700080936F00809159018111FCCF08950F93ED
:100A80001F93CF93DF9300D0CDB7DEB7809168017D
:100A90008134C9F5109270019091700180915301D9
:100AA000911102C08823C1F3009168011092700176
:100AB00080915301813041F410E0102F00271092F3
:100AC000530185E1C3DF05C00091680110E0102FDC
:100AD00000279091700180915301911102C08823E9
:100AE000C1F31092700180915301882319F085E1C0
:100AF000ADDF03C080916801082B1093840100933F
:100B0000830184E1A3DF809168018234F1F41092C3
:100B100070019091700180915301911102C088235E
:100B2000C1F31092700180915301813029F4109229
:100B3000530185E18BDF09C084E188DF8091680182
:100B400090E090938A0180938901809168018334B9
:100B5000F1F4109270019091700180915301911104
:100B600002C08823C1F3109270018091530181303B
:100B700029F41092530185E169DF09C084E166DF41
:100B80008091680190E090938F0180938E01809115
:100B90006801843409F05BC01A82198210927001D6
:100BA00081E08093880190917001809153019111AF
:100BB00002C08823C1F3809168018A83109270017A
:100BC00080915301813039F41092530110928801C1
:100BD00085E13CDF03C0809168018A8390917001B8
:100BE00080915301911102C08823C1F310927001CA
:100BF00080915301882329F01092880185E126DF36
:100C000003C0809168018983809188018823F9F06D
:100C10008A818093660189818093520110928801B4
:100C200084E114DF10928B012091520180916601C2
:100C300090E0922B909397018093960180EC8093A3
:100C4000C2008091C2008D7F8093C20090DB8091B2
:100C50006801853401F510927001909170018091C6
:100C60005301911102C08823C1F310927001809149
:100C70005301813029F41092530185E1E7DE0BC066
:100C80001091680180914C01182B10934C0184E164
:100C9000DDDE812FC1DD80916801863409F5109277
:100CA00070019091700180915301911102C08823CD
:100CB000C1F31092700180915301813029F4109298
:100CC000530185E1C3DE0CC010916801109580913D
:100CD0004C01182310934C0184E1B8DE812F9CDD78
:100CE000809168018F34E9F4109270019091700145
:100CF00080915301911102C08823C1F310927001B9
:100D000080915301813021F41092530185E108C094
:100D100080916801882311F0569A01C0569884E1A9
:100D200095DE80916801873479F41092700180918A
:100D3000640190916501892F89DE80916401909111
:100D4000650184DE84E182DE809168018834B9F433
:100D50001092700180915E0190915F01A0916001FD
:100D6000B0916101892F72DE80915E0190915F01E7
:100D7000A0916001B091610169DE84E167DE80913C
:100D800068018D3481F4109270010DDB80910F01A8
:100D900090911001892F5ADE80910F0190911001DE
:100DA00055DE84E153DE809168018E34B1F41092F7
:100DB0007001809177014ADE80918D0147DE80913C
:100DC0004E0144DE8091780141DE809163013EDE78
:100DD00080915B013BDE84E139DE809168018A34D9
:100DE00079F41092700110DD85E580934B018091BC
:100DF0004D01882319F0109216019FDD84E126DE53
:100E000080916801813571F51092700100E010E069
:100E1000F801E55CFE4F808119DEF801EB5CFE4FC6
:100E2000808114DEF801E15DFE4F80810FDEF80164
:100E3000E75DFE4F80810ADEF801ED5DFE4F8081A7
:100E400005DEF801E35EFE4F808100DEF801E95E19
:100E5000FE4F8081FBDD0F5F1F4F05301105C1F68E
:100E600084E1F4DD809168018C34D1F4109270013A
:100E700000E010E0F801E55CFE4F8081E7DDF8015D
:100E8000EB5CFE4F8081E2DDF801E15DFE4F808189
:100E9000DDDD0F5F1F4F0530110561F784E1D6DD01
:100EA000809168018B3451F41092700180916E0131
:100EB000813011F485E101C084E1C8DD80916801D1
:100EC000803579F41092700180914B01BFDD8091E3
:100ED0004501BCDD8091470190914801B7DD84E177
:100EE000B5DD80916801823571F5109270018091B5
:100EF0005801ACDD80916701A9DD80916B01A6DD11
:100F000080914D01A3DD80917201A0DD809152019D
:100F10009DDD809166019ADD80918301909184012D
:100F2000892F94DD80918301909184018FDD8091E0
:100F3000890190918A018ADD80918E0190918F01C3
:100F400085DD84E183DD10928B010F900F90DF919E
:100F5000CF911F910F91089580914401853148F000
:100F600080916701882329F081E080933501809387
:100F70006E0180914601853170F080915801811198
:100F800004C080916B01882331F084E080933501A7
:100F900081E080936E018091490190914A01893CE2
:100FA000910550F080914D01882331F080E18093CC
:100FB000350181E080936E0180914201853130F0EE
:100FC00080E88093350181E080936E010895EF926F
:100FD000FF920F931F93CF93DF9300D0CDB7DEB76F
:100FE0001A82198283EC8093C20011E008EC84E13C
:100FF000F82E99EBE92E8A8187FD2FC05EDB809168
:1010000054018068E1DB73DBCDDB8A8389818F5FEC
:1010100089838981863150F0809147019091480100
:101020000196909348018093470117C01093730174
:1010300007BDF092860116BC80916E00826080939D
:101040006E00809173018111F7CF80916E008D7FCA
:1010500080936E00A99AE7BCCECF0F900F90DF91DE
:10106000CF911F910F91FF90EF900895CF93DF9351
:101070001F92CDB7DEB7C5DB8FEE81B987EF85B99B
:1010800087E08093680080916B00806180936B00A3
:1010900088E087B980916C00886080936C007894B8
:1010A00010924C0110924B0110926E011982109215
:1010B00059011092710110928701109257011092FC
:1010C00044011092460110924A0110924901109277
:1010D000480110924701109245011092430110926D
:1010E000420110928B0110926C01109255011092E6
:1010F0000E0110920D0110920C0110920B01109232
:101100000A01109209011092080110921601109222
:1011100015011092140110921301109212011092F5
:10112000110181E08093410110929001339A329A2B
:1011300080936F0116BC92E894BD85BD29EB27BD55
:10114000109285001092840090938000809381001B
:101150008BEA90E0909389008093880081E090E092
:10116000ECD9109A0BDA33DFD7D964E870E08DE060
:1011700090E078D9B3D980EC8093C2008091C2000E
:101180008D7F8093C2006ED77AD73EDB10927001BC
:10119000789403EC11E080ECF82E92E0E92E24E044
:1011A000D22E30E2C32E80917001813029F410924A
:1011B000700180935D0163DC80914B01853599F767
:1011C00080918B018111EFCF1098C6DE0093C20091
:1011D000E9DA8983898187FD02C0F9DE5BC08091ED
:1011E000490190914A01892B49F0809149019091E0
:1011F0004A01019790934A018093490180916C01C3
:1012000081113FC0898185FD0FC080910D018F5FE5
:1012100080930D0180910D01853658F010930E01D9
:1012200010920D01129A05C010920D0110920E013C
:101230001298898180FD22C0809109018F5F80937F
:101240000901809109018536F0F080911101811129
:101250001AC0809172018823B1F010936E01E09161
:10126000410181E08E0F80934101F0E0E55CFE4F8B
:10127000C082109311011092720105C010920901F1
:1012800002C010926C0180910E01882311F0B9DA2E
:1012900001C0BADA80915801882309F466C08091B0
:1012A0008B01811162C0F092C2008091C2008D7FDB
:1012B0008093C200BCD784FD02C087FF52C08091DA
:1012C0006C0181114EC080910A018F5F80930A01E9
:1012D00080910A01873008F448C08091150181117E
:1012E00044C0E0914101F0E0E55CFE4FD082E09126
:1012F0004101F0E080918D01EB5CFE4F8083E09135
:101300004101F0E080917701E15DFE4F8083E09143
:101310004101F0E080917801E75DFE4F8083E0912C
:101320004101F0E080914E01ED5DFE4F8083E09140
:101330004101F0E080915B01E35EFE4F8083E0912C
:10134000410181E08E0F80934101F0E080916301C3
:10135000E95EFE4F8083F7DA109258011093150171
:1013600004C010926C0110920A0180916B018823D5
:1013700009F477C080918B01811173C0F092C20093
:101380008091C2008D7F8093C2000AD7409189016D
:1013900050918A0140905E0150905F016090600121
:1013A0007090610180918E0190918F0180905E011B
:1013B00090905F01A0906001B0906101052E000C3B
:1013C000660B770B44155505660577054CF0092E1D
:1013D000000CAA0BBB0B88169906AA06BB06ECF5F7
:1013E00080916C01811139C080910C018F5F8093D5
:1013F0000C0180910C018A31A0F1809114018111BE
:1014000030C0E0914101F0E0E55CFE4FE082E09108
:101410004101F0E080915E0190915F01A091600137
:10142000B0916101EB5CFE4F1082E091410181E0DF
:101430008E0F80934101F0E080915E0190915F01F9
:10144000A0916001B0916101E15DFE4F8083109336
:10145000140179DA10926B0104C010920C01109201
:101460006C0180916701882309F461C080918B0130
:1014700081115DC00093C20080915501811101C0AE
:10148000B3D780915501882319F0B8D710939001F4
:1014900080915501812780935501209164013091FD
:1014A0006501809183019091840182179307D8F59B
:1014B00080916C01811137C080919001882399F14E
:1014C00080910B018F5F80930B0180910B0187301E
:1014D00038F180911301811123C0E0914101F0E0C6
:1014E000E55CFE4F10838091640190916501E0916D
:1014F0004101F0E0EB5CFE4F1082E091410181E0A0
:101500008E0F80934101F0E080916401909165011C
:10151000E15DFE4F808317DA10931301109267018B
:101520001092900104C010920B0110926C01109265
:10153000080139CE1F920F920FB60F9211242F93EC
:101540003F934F935F938F939F93109285001092D8
:10155000840020917101222309F447C020915D018C
:10156000222331F080915D01815080935D013DC067
:101570002091790130E022303105A4F024B150915E
:1015800079014091680123FB882780F929E030E048
:10159000251B310901C0880F2A95EAF7842B809317
:1015A00068011EC08091790181111AC081E0239BDE
:1015B00007C08093700192B188E0892782B904C086
:1015C0008093530110928B0180916F008D7F8093E7
:1015D0006F0080916C00886080936C0010927101A4
:1015E00080917901815080937901809159018823FC
:1015F00079F180915D01813021F410925D01329882
:1016000027C080915701883080F480918701209114
:10161000570190E002C0959587952A95E2F780FFE3
:1016200002C0329A10C032980EC0809157018830A3
:1016300051F4329A80916F008D7F80936F001092E9
:10164000590110928B01809157018F5F8093570150
:101650009F918F915F914F913F912F910F900FBE6E
:101660000F901F9018951F920F920FB60F92112492
:101670008F9316BC80916E008D7F80936E00A99A27
:1016800080916D01882359F080919501815080935C
:10169000950180919501811102C010926D01809198
:1016A0007301882389F0809186018150809386019F
:1016B00080918601811103C01092730105C0809151
:1016C0006E00826080936E00109262018F910F9085
:1016D0000FBE0F901F90189504D06894B1118DC063
:1016E000089570D088F09F5790F0B92F9927B7517F
:1016F000A0F0D1F0660F771F881F991F1AF0BA95D6
:10170000C9F712C0B13081F077D0B1E0089574C04C
:10171000672F782F8827B85F39F0B93FCCF38695CB
:1017200077956795B395D9F73EF490958095709528
:1017300061957F4F8F4F9F4F0895E89409C097FBA5
:101740003EF490958095709561957F4F8F4F9F4F98
:101750009923A9F0F92F96E9BB279395F6958795DC
:1017600077956795B795F111F8CFFAF4BB0F11F49F
:1017700060FF1BC06F5F7F4F8F4F9F4F16C0882346
:1017800011F096E911C0772321F09EE8872F762F7C
:1017900005C0662371F096E8862F70E060E02AF0BD
:1017A0009A95660F771F881FDAF7880F96958795A9
:1017B00097F9089557FD9058440F551F59F05F3F12
:1017C00071F04795880F97FB991F61F09F3F79F063
:1017D00087950895121613061406551FF2CF4695E5
:1017E000F1DF08C0161617061806991FF1CF869567
:1017F0007105610508940895E894BB27662777274B
:10180000CB0197F908950AD080C071D028F076D026
:1018100018F0952309F062C067C0EFCFCBDFA8F3C3
:101820009923D9F35523C9F3950F50E0551FAA27E3
:10183000EE27FF27BB2700240894679520F4E20FCA
:10184000F31FB41F0A1E220F331F441FAA1F6695E1
:10185000A9F7779530F4F30FB41F0A1E121E08F48F
:101860006395330F441FAA1F221F769599F787951A
:1018700020F4B40F0A1E121E631F440FAA1F221F5A
:10188000331F8695A9F7862F712D602D11249F5740
:1018900050408AF0E1F088234AF0EE0FFF1FBB1F93
:1018A000661F771F881F91505040A9F79E3F510532
:1018B00070F014C0A2CF5F3FECF3983EDCF3869546
:1018C00077956795B795F795E7959F5FC1F7FE2BDD
:1018D000880F911D9695879597F9089597F99F67B9
:1018E00080E870E060E008959FEF80EC08950024A8
:1018F0000A941616170618060906089500240A9475
:1019000012161306140605060895092E0394000CFA
:1019100011F4882352F0BB0F40F4BF2B11F460FF89
:1019200004C06F5F7F4F8F4F9F4F0895F894FFCF94
:00000001FF
