:1000000019C0E1C227C0C7C210C324C023C022C088
:1000100021C020C01FC01EC0BEC41CC01BC01AC04F
:1000200019C018C017C016C015C014C013C012C024
:1000300011C010C011241FBECFEFD2E0DEBFCDBF74
:1000400021E0A0E0B1E001C01D92A831B207E1F7C4
:10005000F6D3B6C5D5CFCF93DF9300D0CDB7DEB7FB
:100060009A83898389819A81892B51F08AE290E071
:100070002AE230E0F90120812F7EFC01208309C0B3
:100080008AE290E02AE230E0F90120812061FC015F
:10009000208300000F900F90DF91CF910895CF93B0
:1000A000DF9300D0CDB7DEB79A83898389819A81A7
:1000B000892B51F08AE290E02AE230E0F9012081B8
:1000C0002F7DFC01208309C08AE290E02AE230E023
:1000D000F90120812062FC01208300000F900F9025
:1000E000DF91CF910895CF93DF9300D01F92CDB7CA
:1000F000DEB781E090E0D3DF80EFB0D080E0AED01B
:1001000080E090E0CCDF81E090E0C9DF81EEA6D016
:1001100080E0A4D080E090E0C2DF81E090E0BFDF2B
:1001200083EA9CD08B8380E099D080E090E0B7DFB9
:1001300081E090E0B4DF83EA91D08B8380E08ED0C1
:1001400080E090E0ACDF1A82198205C089819A8133
:1001500001969A83898389819A8180389E43B4F37A
:100160008B810F900F900F90DF91CF910895CF93D7
:10017000DF9300D0CDB7DEB79A83898389819A81D6
:10018000892B51F08AE290E02AE230E0F9012081E7
:100190002F77FC01208309C08AE290E02AE230E058
:1001A000F90120812068FC01208300000F900F904E
:1001B000DF91CF910895CF93DF9300D0CDB7DEB715
:1001C0009A83898389819A81892B21F184EC90E03B
:1001D000FC011182108289E290E021EFFC01208372
:1001E00082EC90E022ECFC01208381EC90E028E19D
:1001F000FC01208384EC90E028E030E0FC013183B6
:10020000208380E090E0B3DF80E090E048DF80E092
:1002100090E021DF00000F900F90DF91CF910895C3
:10022000CF93DF9300D0CDB7DEB781E090E09FDFC2
:100230001A82198205C089819A8101969A838983DD
:1002400089819A818C3D9540B4F380E090E08FDF06
:1002500000000F900F90DF91CF910895CF93DF931F
:100260001F92CDB7DEB78983000080EC90E0FC01DF
:100270008081882F90E080729927892BB1F386ECDA
:1002800090E02981FC012083000080EC90E0FC01DB
:1002900080818823D4F786EC90E0FC0180810F9068
:1002A000DF91CF910895CF93DF93CDB7DEB781E093
:1002B00090E05DDF80E4D2DF80E0D0DF81E6CEDF5A
:1002C00080E090E054DF0000DF91CF910895CF935C
:1002D000DF93CDB7DEB781E090E049DF80E4BEDF99
:1002E00088E0BCDF80E4BADF80E090E040DF81E0BE
:1002F00090E03DDF80E4B2DF86E0B0DF80E0AEDF9B
:1003000080E090E034DF81E090E031DF80E4A6DF40
:100310008AE0A4DF80E0A2DF80E090E028DF81E0D7
:1003200090E025DF81E49ADF82E198DF80E096DFCC
:1003300080E090E01CDF81E090E019DF81E48EDF57
:1003400080E18CDF80E08ADF80E090E010DF81E0F8
:1003500090E00DDF80E482DF84E080DF80E47EDFF8
:1003600080E090E004DF0000DF91CF910895CF930B
:10037000DF93CDB7DEB781E090E0F9DE81E46EDF98
:1003800080E16CDF80E06ADF80E090E0F0DE00007A
:10039000DF91CF910895CF93DF931F92CDB7DEB752
:1003A00081E090E0E4DE81E459DF8EE057DF80E019
:1003B00055DF898380E090E0DADE89810F90DF915C
:1003C000CF910895CF93DF931F92CDB7DEB7898386
:1003D00081E090E0CCDE80E441DF82E13FDF898193
:1003E0003DDF80E090E0C3DE81E090E0C0DE80E4AD
:1003F00035DF84E133DF898131DF80E090E0B7DEF3
:1004000000000F90DF91CF910895CF93DF9300D03C
:10041000CDB7DEB79A83898389819A81892B51F080
:1004200082E290E022E230E0F90120812F7DFC01A0
:10043000208309C082E290E022E230E0F9012081CD
:100440002062FC01208300000F900F90DF91CF917C
:100450000895CF93DF93CDB7DEB782E290E022E23A
:1004600030E0F90120812068FC01208382E290E0E5
:1004700022E230E0F90120812F7BFC012083000083
:10048000DF91CF910895CF93DF93CDB7DEB782E2AE
:1004900090E022E230E0F90120812064FC01208319
:1004A00082E290E022E230E0F90120812F77FC0126
:1004B00020830000DF91CF910895CF93DF9300D088
:1004C000CDB7DEB79A83898389819A81892B31F1EF
:1004D00084E690E024E630E0F90120812B7FFC01E6
:1004E00020838DE290E029E0FC01208389E290E006
:1004F00029E230E0F90120812160FC0120838CE4B5
:1005000090E021E5FC01208382E290E022E230E0ED
:10051000F90120812062FC01208312C08CE490E06C
:100520002CE430E0F90120812F7BFC01208384E65C
:1005300090E024E630E0F90120812460FC01208372
:1005400000000F900F90DF91CF910895CF93DF932C
:100550001F92CDB7DEB789838EE490E02981FC013C
:1005600020838DE490E0FC0180818823D4F7000093
:100570000F90DF91CF910895CF93DF931F92CDB766
:10058000DEB7898381E0E2DF8981E0DF00000F9040
:10059000DF91CF9108951F920F9200905F000F920C
:1005A0001124CF93DF9300D0CDB7DEB71A82198222
:1005B00000000F900F90DF91CF910F9000925F009D
:1005C0000F901F9018951F920F9200905F000F924E
:1005D00011242F933F934F935F936F937F938F9348
:1005E0009F93AF93BF93EF93FF93CF93DF93CDB7D9
:1005F000DEB7F894B3D088E0E5DEB9DE2ADF789480
:100600000000DF91CF91FF91EF91BF91AF919F914A
:100610008F917F916F915F914F913F912F910F90AB
:1006200000925F000F901F9018951F920F920090FC
:100630005F000F9211242F933F938F939F93EF931B
:10064000FF93CF93DF93CDB7DEB786E490E0FC0154
:1006500010828CE690E02CE630E0F9012081277FC3
:10066000FC01208381E08093040189E080930D01E7
:100670001092090181E080930C018EE690E02EE655
:1006800030E0F90120812260FC0120830000DF912D
:10069000CF91FF91EF919F918F913F912F910F906B
:1006A00000925F000F901F901895CF93DF93CDB706
:1006B000DEB781E290E02FEEFC01208385E290E03E
:1006C00027EFFC0120830000DF91CF910895CF93A5
:1006D000DF93CDB7DEB788E690E027E0FC0120830A
:1006E0008BE690E02BE630E0F90120812061FC01EF
:1006F00020838AE290E02AE230E0F9012081206440
:10070000FC01208387E290E028E0FC0120838CE656
:1007100090E02CE630E0F90120812860FC01208384
:1007200078940000DF91CF910895CF93DF93CDB7F8
:10073000DEB789E690E0FC0110828DE390E021E0D5
:10074000FC0120830000DF91CF910895CF93DF93C8
:10075000CDB7DEB70000DF91CF910895CF93DF933F
:1007600000D000D000D0CDB7DEB782E290E022E228
:1007700030E0F90120812860FC01208381E090E0D5
:100780009CDE67DE81E090E040DE80E4F5DE80E024
:1007900090E03BDE81E090E038DE82E0D7DE80E072
:1007A000D5DE80E0D3DE1A82198207C080E0CEDE7B
:1007B00089819A8101969A83898389819A818F3F61
:1007C0009F41A4F380E090E020DE5DDE80E090E0D9
:1007D00074DE82E290E022E230E0F9012081277F9E
:1007E000FC0120831C821B821CC082E290E022E27A
:1007F00030E0F901308121E02327FC0120831E82B3
:100800001D8205C08D819E8101969E838D838D8181
:100810009E8180389C40B4F38B819C8101969C839F
:100820008B838B819C81069704F3000026960FB67C
:10083000F894DEBF0FBECDBFDF91CF910895CF9367
:10084000DF9300D000D0CDB7DEB72FDF7FDF3FDFF3
:100850001B821092030110920C011092170110924A
:10086000020186E290E026E230E0F9012081286072
:10087000FC01208381E080930A0180E180930101E3
:100880008AE290E02AE230E0F90120812064FC0154
:10089000208386E490E0FC01108284E490E022E86A
:1008A000FC01208385E490E021E0FC01208387E4C3
:1008B00090E024EBFC0120838FEF80930E0182E017
:1008C00080930F0183E08093100184E080931101F5
:1008D00085E08093120186E08093130187E0809386
:1008E000140188E08093150189E08093160181E06E
:1008F00090E061DC95DCD7DC80910101826062DDF3
:10090000809101015FDDE3DC46DD8C830EDFEBDBF4
:10091000BADD82E290E022E230E0F90120812F602E
:10092000FC0120831A82198205C089819A8101966F
:100930009A83898389819A8180389E43B4F382E2C5
:1009400090E022E230E0F9012081207FFC01208349
:1009500010920B01789480910B018130E1F7109295
:100960000B0181E0809304018091090180931701BC
:100970001092020181E08093030186E490E0FC0183
:1009800010828EE690E02EE630E0F90120812260B0
:10099000FC012083E0CF1F920F9200905F000F9226
:1009A00011242F933F934F935F936F937F938F9374
:1009B0009F93EF93FF93CF93DF93CDB7DEB786E49A
:1009C00090E0FC0110828AE290E02AE230E0F90136
:1009D000308120E42327FC01208380910C018823AF
:1009E00009F477C080910401882331F080910401DB
:1009F0008150809304016DC080910D01882F90E09B
:100A000001971816190624F584E290E0FC01808114
:100A1000882F90E08870992795958795959587956B
:100A20009595879520910D01222F30E049E050E007
:100A3000BA01621B730B9B0102C0880F991F2A9594
:100A4000E2F7982F80910901892B809309013CC01E
:100A500080910D018823C1F584E290E0FC01808142
:100A6000882F90E088709927892B71F081E080931E
:100A70000B0182E290E022E230E0F901308128E0CF
:100A80002327FC01208303C081E0809300018EE6D0
:100A900090E02EE630E0F90120812D7FFC012083DB
:100AA0008CE690E02CE630E0F90120812860FC0122
:100AB00020838AE290E02AE230E0F901208120647C
:100AC000FC01208310920C0180910D0181508093D4
:100AD0000D0180910301882309F45FC08091040116
:100AE000813061F41092040186E290E026E230E069
:100AF000F90120812B7FFC0120834FC080910201EE
:100B0000883028F580910901882F90E0209102011A
:100B1000222F30E002C0959587952A95E2F78170E3
:100B20009927892B51F086E290E026E230E0F90126
:100B300020812460FC0120832BC086E290E026E225
:100B400030E0F90120812B7FFC01208321C08091BE
:100B500002018830E9F486E290E026E230E0F90113
:100B600020812460FC0120838EE690E02EE630E0B8
:100B7000F90120812D7FFC012083109203018AE27C
:100B800090E02AE230E0F90120812064FC0120831A
:100B9000809102018F5F809302010000DF91CF916D
:100BA000FF91EF919F918F917F916F915F914F9105
:100BB0003F912F910F9000925F000F901F9018951A
:040BC000F894FFCFD7
:00000001FF
