:1000000019C0D2C427C051C465C424C023C022C0B3
:1000100021C07DCD1FC01EC013CE1CC01BC01AC086
:1000200019C018C017C016C015C014C013C012C024
:1000300011C010C011241FBECFEFD2E0DEBFCDBF74
:1000400021E0A0E0B1E001C01D92AF35B207E1F7B9
:1000500006DB61CFD5CF892B11F4549A08955498BB
:100060000895549864E08BE009D364E080E006D3FF
:1000700064E080E003D3549A0895549864E08AE0E1
:10008000FDD264E08FE1FAD264E082E5F7D2549ABF
:100090000895549864E08AE0F1D264E08FE1EED2F2
:1000A00064E082E5EBD2549A549864E08AE0E6D2A8
:1000B00064E080E2E3D28091300164E0DFD2549AC0
:1000C000549864E08AE0DAD264E081E2D7D2809189
:1000D0001C0164E0D3D2549A549864E08AE0CED2F2
:1000E00064E082E2CBD264E080E0C8D2549A5498B3
:1000F00064E08AE0C3D264E087E2C0D264E080E0DA
:10010000BDD2549A549864E08AE0B8D264E088E2A0
:10011000B5D264E080E0B2D2549A549864E08AE0A8
:10012000ADD264E089E2AAD264E088ECA7D2549A06
:10013000549864E08AE0A2D264E08AE29FD264E04C
:1001400080E19CD2549A549864E08AE097D264E0AB
:100150008BE294D264E080E191D2549A549864E0A6
:100160008AE08CD264E08CE289D264E083E086D2BB
:10017000549A549864E08AE081D264E08DE27ED2A1
:1001800064E08AE07BD2549A0895CF93549864E057
:100190008BE074D264E084E171D264E080E06ED2DE
:1001A000C82F64E080E06AD2549A6C2F70E0782BFC
:1001B000072E000C880B990BB7DD28EB3EE145E8D4
:1001C0005DE316DE7EDD6093280170932901809344
:1001D0002A0190932B01CF9108950F931F93CF93F2
:1001E000549864E08BE04AD264E08BE047D264E04C
:1001F00080E044D2C82F549A549864E08BE03ED2F9
:1002000064E08EE03BD264E080E038D28093550118
:1002100064E080E033D280933F0164E080E02ED23E
:100220008093400164E080E029D28093180164E06B
:1002300080E024D28093250164E080E01FD2809387
:100240002D01549A20913F018091550190E0922B0D
:1002500090931B0180931A01209118018091400115
:1002600090E0922B90933E0180933D0120912D01CF
:100270008091250190E0922B90933401809333017B
:1002800020911A0130911B0100915D0110915E01D6
:1002900080913D0190913E01A0915D01B0915E0180
:1002A000409133015091340160915D0170915E0184
:1002B00037FD1CC0E1E00217130708F0E0E097FDEE
:1002C00019C021E0A817B90708F020E02E2B41F44F
:1002D000CA0157FD13C068517C4F6817790708F4AD
:1002E000C0618C2FCF911F910F9108953195219569
:1002F0003109E0CF919581959109E3CF9195819551
:100300009109E9CF549864E08AE0B8D164E080E2D2
:10031000B5D18091300164E0B1D1549A549864E031
:100320008AE0ACD164E081E2A9D180911C0164E053
:10033000A5D1549A0895CF93549864E08BE09ED150
:1003400064E08CE09BD164E080E098D1C82F64E049
:1003500080E094D1549A2C2F30E0A901582BCA0187
:10036000CF9108950895892B11F4559A08955598C1
:100370000895559861E080ED81D161E080EC7ED1F7
:10038000559A0895CF93DF9300D0CDB7DEB7559837
:1003900061E083EC73D161E080E070D161E080E0E6
:1003A0006DD18A8361E080E069D189838A81898106
:1003B00061E080E063D190E0982F882790932F012F
:1003C00080932E0161E080E059D120912E0130917F
:1003D0002F01282B30932F0120932E01559A0F9037
:1003E0000F90DF91CF9108950F931F93CF93C62F56
:1003F00090E0462F50E042955295507F5427407F21
:100400005427480F591F40FF5FC061E070E041FF73
:100410005FC021E030E0260F371F42FF5FC061E080
:1004200070E0260F371F43FF5FC061E070E0260FCA
:10043000371F44FF5FC061E070E0260F371F45FFA4
:100440005FC061E070E0260F371F46FF5FC061E0CC
:1004500070E0260F371F47FF5FC061E070E0260F96
:10046000371F50FF5FC061E070E0260F371F51FF5C
:100470005FC061E070E0260F371F52FF5FC061E090
:1004800070E0260F371F53FF5FC041E050E0240F9C
:10049000351F8C0102951295107F1027007F1027C1
:1004A000112720FF54C00C5F1F4F559861E087E86B
:1004B000E5D061E08C2FE2D061E0802FDFD0559A4B
:1004C000CF911F910F91089560E070E041FDA1CFA1
:1004D00020E030E0260F371F42FDA1CF60E070E042
:1004E000260F371F43FDA1CF60E070E0260F371FB6
:1004F00044FDA1CF60E070E0260F371F45FDA1CF7E
:1005000060E070E0260F371F46FDA1CF60E070E08D
:10051000260F371F47FDA1CF60E070E0260F371F81
:1005200050FDA1CF60E070E0260F371F51FDA1CF35
:1005300060E070E0260F371F52FDA1CF60E070E051
:10054000260F371F53FDA1CF40E050E0A0CF085F3A
:100550001F4FABCF559861E08EE890D061E080EB03
:100560008DD061E080E08AD080934D01559A5598F6
:1005700061E08EE883D061E080EC80D061E080E0D3
:100580007DD080931901559A0895559861E080EFC8
:1005900075D061E080E072D0559A08959091530132
:1005A00091113BC091E09093360190935C0116BC91
:1005B00090916E00926090936E0004C0909136010D
:1005C0009923A1F19091C00095FFF8CF90916E0012
:1005D0009D7F90936E00A99A8093C60081E08093DE
:1005E000360180935C0116BC80916E00826080931E
:1005F0006E0004C080913601882391F08091C00084
:1006000087FFF8CF80916E008D7F80936E00A99A4E
:10061000809136018111109203018091C6000895E6
:10062000809103018F5F80930301ECCF90910301D0
:100630009F5F90930301CACF892B09F4089510920C
:10064000C5001092C40081EF89B983EC8093C20089
:1006500088E18093C10088E090E09093C50080938A
:10066000C400579A80E090E07EDE80E090E0F3DC0A
:1006700080E090E077CE5798579A08959091530173
:10068000911144C091E09093360190935C0116BCA7
:1006900090916E00926090936E0004C0909136012C
:1006A0009923B9F19091C00095FFF8CF90916E0019
:1006B0009D7F90936E00A99A8093C60081E08093FD
:1006C000360180935C0116BC80916E00826080933D
:1006D0006E0004C080913601882349F18091C000EA
:1006E00087FFF8CF80916E008D7F80936E00A99A6E
:1006F00080913601882351F0643009F44CC0603198
:1007000089F1613009F45AC0109200018091C6004D
:100710000895643009F455C0603139F1613009F44D
:1007200056C0909100019F5F90930001BFCF64304D
:1007300011F1603141F0613089F1809100018F5FEA
:1007400080930001CFCF809103018F5F80930301DD
:1007500080916E008D7F80936E00A99A8091360102
:100760008823A1F210920301D1CF909103019F5FE2
:10077000909303019BCF809102018F5F80930201D0
:1007800080916E008D7F80936E00A99A80913601D2
:10079000882309F4BBCF10920201B8CF80910101E8
:1007A0008F5F8093010180916E008D7F80936E003A
:1007B000A99A80913601882309F4A8CF10920101EB
:1007C000A5CF909102019F5F909302016FCF90910E
:1007D00001019F5F9093010169CF579880E4DEDEAD
:1007E00080E0DCDE81E6DADE579A579880E4D6DED8
:1007F0008CE0D4DE81E2D2DE579A0895579880E4E7
:10080000CDDE88E0CBDE80E4C9DE579A579880E4DD
:10081000C5DE86E0C3DE80E4C1DE579A579880E4E7
:10082000BDDE8AE0BBDE80E0B9DE579A579881E4EE
:10083000B5DE82E1B3DE80E0B1DE579A579881E4FD
:10084000ADDE80E1ABDE80E0A9DE579A579880E408
:10085000A5DE84E0A3DE80E4A1DE579A08955798D0
:1008600081E49CDE80E19ADE80E098DE579A08956C
:10087000579881E493DE82E191DE80E08FDE579A23
:100880000895CF93C82F579880E488DE82E186DEF2
:100890008C2F84DE579A579880E480DE84E17EDED8
:1008A0008C2F7CDE579ACF9108951F920F920FB62E
:1008B0000F921124CF93DF9300D0CDB7DEB71A8209
:1008C00019820F900F90DF91CF910F900FBE0F9074
:1008D0001F9018951F920F920FB60F9211248F93AD
:1008E0009F93EF93FF9381E08093530110928500D3
:1008F00010928400ECE6F0E09081977F9083109254
:100900001D018093270199E09093410110923201DB
:1009100080933A01EFE6F0E0808182608083FF916E
:10092000EF919F918F910F900FBE0F901F90189590
:10093000119A91E090933701809164008B7F8093AE
:10094000640089E08DB9489A81E58CBD159A179AA3
:10095000169815989EBD0DB407FEFDCF80E48EBDA0
:100960000DB407FEFDCF159A159882E08EBD0DB42B
:1009700007FEFDCF1EBC0DB407FEFDCF1EBC0DB49F
:1009800007FEFDCF8FEF9FE11EBC0DB407FEFDCF2C
:100990000197D1F7159A8CB58F7B8CBD809164003F
:1009A00084608093640008951F920F920FB60F9297
:1009B00011242F933F934F935F936F937F938F9364
:1009C0009F93AF93BF93EF93FF9380911701882379
:1009D00021F080911501853589F0FF91EF91BF914C
:1009E000AF919F918F917F916F915F914F913F91C7
:1009F0002F910F900FBE0F901F90189580910401BA
:100A00008F5F8093040180910401843030F3F89467
:100A10008FDF1DBA789488E034DF21DF81E0809396
:100A2000370188E080930F01D8CFCF93DF9300D0B8
:100A3000CDB7DEB780913201813409F48BC4809147
:100A40003201823409F453C480913201833409F4B1
:100A50001BC480913201843409F485C38091320132
:100A6000853409F431C380913201863409F4DBC244
:100A7000809132018F3409F4A5C28091320187340C
:100A800009F44CC280913201883409F48CC1809100
:100A900032018D3409F4EDC1809132018E3409F4B4
:100AA000CAC0809132018A3409F4A0C08091320119
:100AB0008C3491F1809132018B3439F010925301D2
:100AC0000F900F90DF91CF9108951092390180918E
:100AD0003701813009F4D3C484E180934F0110922F
:100AE000210181E0809327018093230110928500EA
:100AF000109284008093530180916F0082608093F4
:100B00006F00809123018111FCCF109253010F904F
:100B10000F90DF91CF9108951092390180910F01CC
:100B200080934F011092210181E0809327018093EF
:100B300023011092850010928400809353018091CC
:100B40006F00826080936F00809123018111FCCF40
:100B500080910E0180934F011092210181E08093DA
:100B600027018093230110928500109284008093C6
:100B7000530180916F00826080936F008091230108
:100B80008111FCCF80910D0180934F0110922101C2
:100B900081E08093270180932301109285001092B9
:100BA00084008093530180916F00826080936F0076
:100BB000809123018111FCCF84E180934F01109239
:100BC000210181E080932701809323011092850009
:100BD000109284008093530180916F008260809313
:100BE0006F00809123018111FCCF64CF10923901F5
:100BF000169A179885E58093150180911701811148
:100C00001FC484E180934F011092210181E0809301
:100C10002701809323011092850010928400809315
:100C2000530180916F00826080936F008091230157
:100C30008111FCCF3BCF1092390180913F0180930D
:100C40004F011092210181E08093270180932301BD
:100C500010928500109284008093530180916F0060
:100C6000826080936F00809123018111FCCF80917D
:100C7000550180934F011092210181E0809327015B
:100C80008093230110928500109284008093530179
:100C900080916F00826080936F00809123018111A9
:100CA000FCCF8091180180934F011092210181E0C7
:100CB0008093270180932301109285001092840075
:100CC0008093530180916F00826080936F008091C8
:100CD00023018111FCCF8091400180934F0110923C
:100CE000210181E0809327018093230110928500E8
:100CF000109284008093530180916F0082608093F2
:100D00006F00809123018111FCCF80912D01809390
:100D10004F011092210181E08093270180932301EC
:100D200010928500109284008093530180916F008F
:100D3000826080936F00809123018111FCCF8091AC
:100D4000250180934F011092210181E080932701BA
:100D500080932301109285001092840080935301A8
:100D600080916F00826080936F00809123018111D8
:100D7000FCCF84E180934F011092210181E08093A8
:100D800027018093230110928500109284008093A4
:100D9000530180916F00826080936F0080912301E6
:100DA0008111FCCF7ECE1092390180912801909163
:100DB0002901A0912A01B0912B01892F9A2FAB2FE5
:100DC000BB27A7FDBA9580934F011092210181E0C6
:100DD0008093270180932301109285001092840054
:100DE0008093530180916F00826080936F008091A7
:100DF00023018111FCCF8091280190912901A091BC
:100E00002A01B0912B0180934F011092210181E0C2
:100E10008093270180932301109285001092840013
:100E20008093530180916F00826080936F00809166
:100E300023018111FCCF84E180934F0110922101A5
:100E400081E0809327018093230110928500109206
:100E500084008093530180916F00826080936F00C3
:100E6000809123018111FCCF809132018D3409F0F2
:100E700013CE109239015FDA80910B0190910C0131
:100E800090934F011092210181E08093270180937C
:100E90002301109285001092840080935301809169
:100EA0006F00826080936F00809123018111FCCFDD
:100EB00080910B0190910C0180934F0110922101C0
:100EC00081E0809327018093230110928500109286
:100ED00084008093530180916F00826080936F0043
:100EE000809123018111FCCF84E180934F01109206
:100EF000210181E0809327018093230110928500D6
:100F0000109284008093530180916F0082608093DF
:100F10006F00809123018111FCCFBECD1092390169
:100F200080912E0190912F0190934F0110922101F9
:100F300081E0809327018093230110928500109215
:100F400084008093530180916F00826080936F00D2
:100F5000809123018111FCCF80912E0190912F016E
:100F600080934F011092210181E0809327018093AB
:100F70002301109285001092840080935301809188
:100F80006F00826080936F00809123018111FCCFFC
:100F900084E180934F011092210181E08093270129
:100FA0008093230110928500109284008093530156
:100FB00080916F00826080936F0080912301811186
:100FC000FCCF60CD109239018091390190911D01C3
:100FD000882331F11092390180911D01813009F48B
:100FE00092C280913201811131C2569884E180937E
:100FF0004F011092210181E080932701809323010A
:1010000010928500109284008093530180916F00AC
:10101000826080936F00809123018111FCCF2DCDE0
:10102000992391F2D7CF1092390180913901909193
:101030001D01882309F444C01092390180911D01DB
:10104000813009F47BC28091320180959091160124
:1010500089238093160184E180934F01109221012E
:1010600081E08093270180932301109285001092E4
:1010700084008093530180916F00826080936F00A1
:10108000809123018111FCCF8091160180FFECC17A
:1010900091E09093310181FFEBC191E09093350194
:1010A00082FFEAC191E09093220183FD07C2109272
:1010B00017011DBA109237011198169A1798D8CCBB
:1010C000992309F4B2CFB8CF109239018091390138
:1010D00090911D01882309F442C01092390180913A
:1010E0001D01813009F4F2C1809132019091160105
:1010F000892B8093160184E180934F011092210186
:1011000081E0809327018093230110928500109243
:1011100084008093530180916F00826080936F0000
:10112000809123018111FCCF8091160180FD90C137
:101130001092310181FF91C191E09093350182FFBE
:1011400090C191E09093220183FDBCC110921701E0
:101150001DBA109237011198169A179884CC9923CA
:1011600009F4B4CFBACF1A8219821092390181E002
:10117000809350018091390190911D01882309F4D9
:1011800059C0809132018A831092390180911D01EA
:10119000813009F40DC2809132018A838091390136
:1011A00090911D01882309F449C010923901809162
:1011B0001D0181114DC080913201898380915001C0
:1011C000882309F44BCC8A818093300189818093F4
:1011D0001C011092500184E180934F011092210173
:1011E00081E0809327018093230110928500109263
:1011F00084008093530180916F00826080936F0020
:10120000809123018111FCCF1092530120911C0188
:101210008091300190E0922B90935E0180935D016C
:1012200080EC8093C2008091C2008D7F8093C200C9
:1012300069D814CC992309F49DCFA3CF992309F43D
:10124000ADCF1092390180911D01882309F4B3CFED
:101250001092500185E180934F011092210181E0AD
:1012600080932701809323011092850010928400BF
:101270008093530180916F00826080936F00809112
:1012800023018111FCCF9ACF10923901809139014D
:1012900090911D01882341F11092390180911D0127
:1012A000813009F468C184E180934F0110922101DB
:1012B00081E0809327018093230110928500109292
:1012C00084008093530180916F00826080936F004F
:1012D000809123018111FCCF8091320190E09093A5
:1012E000520180935101B5CB992381F2D5CF109251
:1012F00039018091390190911D01882341F11092AB
:10130000390180911D01813009F48CC184E1809301
:101310004F011092210181E08093270180932301E6
:1013200010928500109284008093530180916F0089
:10133000826080936F00809123018111FCCF8091A6
:10134000320190E090935201809351017DCB99231B
:1013500081F2D5CF1092390181E080933C018091D8
:10136000390190911D01882309F442C02091320176
:101370001092390180911D01813009F436C120910C
:10138000320130E0322F22278091390190911D01E6
:10139000882391F11092390180911D01811134C08F
:1013A00080913201282B80913C01882309F447CB9E
:1013B00030934C0120934B0110923C0184E18093C7
:1013C0004F011092210181E0809327018093230136
:1013D00010928500109284008093530180916F00D9
:1013E000826080936F00809123018111FCCF27CB15
:1013F000992309F4B4CFBACF992331F2109239016D
:1014000080911D01882361F210923C0185E1809357
:101410004F011092210181E08093270180932301E5
:1014200010928500109284008093530180916F0088
:10143000826080936F00809123018111FCCFB3CF34
:101440001092690081E08DBB7894DBCB569ACECDAB
:1014500091E09093310181FD6FCE1092350182FDB4
:1014600070CE1092220170CE1092310181FD15CE06
:101470001092350182FD16CE1092220116CE95E112
:1014800090934F01109221018093270180932301B3
:1014900010928500109284008093530180916F0018
:1014A000826080936F00809123018111FCCF1092A4
:1014B00053010F900F90DF91CF91089581E08093B9
:1014C0001701F8CD81E08093170143CE10921D01E2
:1014D00010923C0195E190934F011092210180936D
:1014E000270180932301109285001092840080933D
:1014F000530180916F00826080936F00809123017F
:101500008111FCCFB0CA10921D0195E190934F015B
:10151000109221018093270180932301109285006E
:10152000109284008093530180916F0082608093B9
:101530006F00809123018111FCCF9FCA10921D0181
:1015400010923C0195E190934F01109221018093FC
:1015500027018093230110928500109284008093CC
:10156000530180916F00826080936F00809123010E
:101570008111FCCF7DCA10921D0110923C0195E1B2
:1015800090934F01109221018093270180932301B2
:1015900010928500109284008093530180916F0017
:1015A000826080936F00809123018111FCCF51CA2A
:1015B00010921D011092500195E190934F011092ED
:1015C00021018093270180932301109285001092BE
:1015D00084008093530180916F00826080936F003C
:1015E000809123018111FCCFD9CD10921D01109261
:1015F0003C0195E190934F011092210180932701C6
:1016000080932301109285001092840080935301EF
:1016100080916F00826080936F008091230181111F
:10162000FCCFAFCE10921D0110923C0195E190933A
:101630004F01109221018093270180932301109282
:101640008500109284008093530180916F00826026
:1016500080936F00809123018111FCCFF5C9CF9356
:10166000DF931F92CDB7DEB7179A16988FEE81B928
:1016700087EF85B907E00093680080916B00806177
:1016800080936B0088E087B980916C0088608093BC
:101690006C0078948FEF80931601109215011092D0
:1016A000370119821092230110923A0110924F01D2
:1016B0001092210110921201109213011092140144
:1016C00010921101109210011092530110921F01FB
:1016D00010920A011092090110920801109207015C
:1016E000109206011092050110920401339A329A69
:1016F00011E01093380180E180931E0116BC82E84E
:1017000084BD15BD99EB97BD1092850010928400A1
:1017100080938000109381008BEA90E09093890081
:101720008093880081E090E087D780E28093300149
:1017300000931C01109A9FD79BD84FD880911E010F
:1017400082609FD880911E019CD858D891D81DD70F
:1017500064E870E08DE090E047D6FCD680EC8093A2
:10176000C2008091C2008D7F8093C2007AD485D45C
:1017700090D40BD5169A179880E590E0A0E0B0E0E1
:101780008093280190932901A0932A01B0932B0103
:1017900080E090E290932F0180932E0180E090E40E
:1017A00090934C0180934B0110923901789485E11C
:1017B00080934F0110922101109327011093230170
:1017C00010928500109284001093530180916F0055
:1017D000826080936F00809123018111FCCF83ECA4
:1017E000F82E11E090EC992E22E0622E34E0A32E28
:1017F00048ECB42E52E3C52E69EBD62E70E2772E5C
:1018000000E4E0E8EE2EF0E18F2E80913901813086
:1018100009F4D2C0809115018535B9F78091530143
:101820008111F3CF109880911201853160F0809181
:101830003101882341F000930F0110930E011092A3
:101840000D011093370180911301853180F0809153
:101850002201811104C080913501882341F0009359
:101860000F01A0920E0110920D011093370180918B
:101870001401853160F080911701882341F00093B5
:101880000F0180920E0110920D011093370180918B
:101890001001853140F000930F01E0920E0110928B
:1018A0000D0110933701F092C200E2D7898389813C
:1018B00085FD88C0809109018F5F80930901809127
:1018C00009018A3110F010930A01129A898180FD72
:1018D00081C0809105018F5F809305018091050192
:1018E0008B3020F01093370170920F0180910A0124
:1018F000882309F475C010933B01B7BCC0924E0118
:1019000016BC80916E00826080936E0080913B01D6
:101910008111F7CF80916E008D7F80936E00A99A20
:10192000D7BC179A169880912201882329F08091BC
:101930005301882309F457C080913501882329F089
:1019400080915301882309F45DC08091310188237F
:1019500061F180915301811128C0F092C200809101
:101960001F01882309F4BFC080911F018111B9C0F4
:1019700080911F01882309F495C010921F012091C6
:101980002E0130912F0180914B0190914C018217D3
:10199000930708F084C0809107018F5F809307014F
:1019A00080910701843008F0A0C01092040180915A
:1019B0003901813009F02ECF10923901809327012F
:1019C00034D828CF1092090110920A011298898107
:1019D00080FF7FCF1092050180910A0181118BCF8A
:1019E000169A1798A0CF9092C2008091C2008D7F66
:1019F0008093C200F2D384FD64C087FD62C0109260
:101A000006019ACF9092C2008091C2008D7F809390
:101A1000C200BBD3809151019091520140912801A5
:101A20005091290160912A0170912B01209156015A
:101A300030915701209028013090290140902A01CF
:101A400050902B01092E000CAA0BBB0B8417950795
:101A5000A607B70754F5809108018F5F80930801AE
:101A600080910801843008F470CF60920F0180915A
:101A7000280190912901A0912A01B0912B01109287
:101A80000E018091280190912901A0912A01B09125
:101A90002B0180930D014CD71092350156CF109237
:101AA000070183CF10931F016ACFC901330FAA0B1F
:101AB000BB0B281639064A065B066CF21092080129
:101AC00044CF809106018F5F8093060180910601CB
:101AD000843008F431CFA0920F012AD7109222014E
:101AE0002BCF50D445CF45D43FCF10930F018091D9
:101AF0002E0190912F0110920E0180912E01909154
:101B00002F0180930D0114D7109231014ECF1F92F7
:101B10000F920FB60F9211242F933F934F935F9321
:101B20008F939F93109285001092840080913A01C8
:101B3000882349F080912701882379F1809127013A
:101B4000815080932701809123018823D9F08091CF
:101B50002701813009F453C0809121018830D8F5E4
:101B600080914F012091210190E002C095958795C9
:101B70002A95E2F780FF3CC0329A809121018F5F65
:101B8000809321019F918F915F914F913F912F9170
:101B90000F900FBE0F901F9018958091410190E01B
:101BA00002978CF184B1509141014091320183FB45
:101BB000222720F989E090E0851B910901C0220FBE
:101BC0008A95EAF7242B20933201809141018150BC
:101BD00080934101B8CF80912101883071F6329A0B
:101BE00080916F008D7F80936F0010922301C5CF8D
:101BF0003298809121018F5F80932101C3CF109291
:101C000027013298BFCF809141018111DECF81E061
:101C1000239B13C08093390192B188E0892782B950
:101C200080916F008D7F80936F0080916C00886041
:101C300080936C0010923A01C8CF80931D01F0CFC1
:101C40001F920F920FB60F9211248F9316BC8091A2
:101C50006E008D7F80936E00A99A80913601882353
:101C600049F080915C01815080935C0180915C011E
:101C70008823D1F080913B01882371F080914E013F
:101C8000815080934E0180914E01882381F0809194
:101C90006E00826080936E0010922C018F910F90E5
:101CA0000FBE0F901F90189510923601E3CF10923F
:101CB0003B0110922C018F910F900FBE0F901F903F
:101CC000189504D06894B1118DC0089570D088F033
:101CD0009F5790F0B92F9927B751A0F0D1F0660F18
:101CE000771F881F991F1AF0BA95C9F712C0B13033
:101CF00081F077D0B1E0089574C0672F782F8827DE
:101D0000B85F39F0B93FCCF3869577956795B39571
:101D1000D9F73EF490958095709561957F4F8F4FE0
:101D20009F4F0895E89409C097FB3EF490958095E5
:101D3000709561957F4F8F4F9F4F9923A9F0F92F91
:101D400096E9BB279395F695879577956795B7950F
:101D5000F111F8CFFAF4BB0F11F460FF1BC06F5FF5
:101D60007F4F8F4F9F4F16C0882311F096E911C007
:101D7000772321F09EE8872F762F05C0662371F028
:101D800096E8862F70E060E02AF09A95660F771F3C
:101D9000881FDAF7880F9695879597F9089557FD6C
:101DA0009058440F551F59F05F3F71F04795880FC9
:101DB00097FB991F61F09F3F79F087950895121660
:101DC00013061406551FF2CF4695F1DF08C016160C
:101DD00017061806991FF1CF8695710561050894BD
:101DE0000895E894BB2766277727CB0197F90895D4
:101DF0000AD080C071D028F076D018F0952309F071
:101E000062C067C0EFCFCBDFA8F39923D9F3552386
:101E1000C9F3950F50E0551FAA27EE27FF27BB27D0
:101E200000240894679520F4E20FF31FB41F0A1EE4
:101E3000220F331F441FAA1F6695A9F7779530F428
:101E4000F30FB41F0A1E121E08F46395330F441FCC
:101E5000AA1F221F769599F7879520F4B40F0A1EC2
:101E6000121E631F440FAA1F221F331F8695A9F756
:101E7000862F712D602D11249F5750408AF0E1F07C
:101E800088234AF0EE0FFF1FBB1F661F771F881FB6
:101E900091505040A9F79E3F510570F014C0A2CF59
:101EA0005F3FECF3983EDCF3869577956795B795A1
:101EB000F795E7959F5FC1F7FE2B880F911D9695CB
:101EC000879597F9089597F99F6780E870E060E03B
:101ED00008959FEF80EC089500240A9416161706C3
:101EE00018060906089500240A941216130614060B
:101EF00005060895092E0394000C11F4882352F06E
:101F0000BB0F40F4BF2B11F460FF04C06F5F7F4F25
:0A1F10008F4F9F4F0895F894FFCF04
:00000001FF
